:020000040000fa
:080000000002040000000000f2
:020000040000fa
:040008007003000081
:020000040000fa
:04000c00700300007d
:020000040000fa
:040010007003000079
:020000040000fa
:040014007003000075
:020000040000fa
:040018007003000071
:020000040000fa
:04001c00700300006d
:020000040000fa
:040020007003000069
:020000040000fa
:040024007003000065
:020000040000fa
:040028007003000061
:020000040000fa
:04002c00700300005d
:020000040000fa
:040030007003000059
:020000040000fa
:04003400fa020000cc
:020000040000fa
:040038007003000051
:020000040000fa
:04003c00700300004d
:020000040000fa
:040040007003000049
:020000040000fa
:0400440012030000a3
:020000040000fa
:040048002a03000087
:020000040000fa
:04004c00700300003d
:020000040000fa
:040050007003000039
:020000040000fa
:040054007003000035
:020000040000fa
:040058007003000031
:020000040000fa
:04005c00700300002d
:020000040000fa
:040060007003000029
:020000040000fa
:040064007003000025
:020000040000fa
:040068007003000021
:020000040000fa
:04006c00700300001d
:020000040000fa
:040070007003000019
:020000040000fa
:040074007003000015
:020000040000fa
:040078007003000011
:020000040000fa
:04007c00700300000d
:020000040000fa
:040080007003000009
:020000040000fa
:040084007003000005
:020000040000fa
:040088007003000001
:020000040000fa
:04008c0070030000fd
:020000040000fa
:0400900070030000f9
:020000040000fa
:0400940070030000f5
:020000040000fa
:0400980070030000f1
:020000040000fa
:04009c0070030000ed
:020000040000fa
:0400a00070030000e9
:020000040000fa
:0400a40070030000e5
:020000040000fa
:0400a80070030000e1
:020000040000fa
:0400ac0070030000dd
:020000040000fa
:0400b00070030000d9
:020000040000fa
:0400b40070030000d5
:020000040000fa
:0400b80070030000d1
:020000040000fa
:0400bc0070030000cd
:020000040000fa
:0400c00070030000c9
:020000040000fa
:0400c40070030000c5
:020000040000fa
:0400c80070030000c1
:020000040000fa
:0400cc0070030000bd
:020000040000fa
:0400d00070030000b9
:020000040000fa
:0400d40070030000b5
:020000040000fa
:0400d80070030000b1
:020000040000fa
:0400dc0070030000ad
:020000040000fa
:0400e00070030000a9
:020000040000fa
:0400e40070030000a5
:020000040000fa
:0400e80070030000a1
:020000040000fa
:0400ec00700300009d
:020000040000fa
:0400f0007003000099
:020000040000fa
:0400f4007003000095
:020000040000fa
:0400f8007003000091
:020000040000fa
:0400fc00700300008d
:020000040000fa
:040100007003000088
:020000040000fa
:040104007003000084
:020000040000fa
:040108007003000080
:020000040000fa
:04010c00700300007c
:020000040000fa
:040110007003000078
:020000040000fa
:040114007003000074
:020000040000fa
:040118007003000070
:020000040000fa
:04011c00700300006c
:020000040000fa
:040120007003000068
:020000040000fa
:040124007003000064
:020000040000fa
:040128007003000060
:020000040000fa
:04012c00700300005c
:020000040000fa
:040130007003000058
:020000040000fa
:040134007003000054
:020000040000fa
:040138007003000050
:020000040000fa
:04013c00700300004c
:020000040000fa
:040140007003000048
:020000040000fa
:040144007003000044
:020000040000fa
:040148007003000040
:020000040000fa
:04014c00700300003c
:020000040000fa
:040150007003000038
:020000040000fa
:040154007003000034
:020000040000fa
:040158007003000030
:020000040000fa
:04015c00700300002c
:020000040000fa
:040160007003000028
:020000040000fa
:040164007003000024
:020000040000fa
:040168007003000020
:020000040000fa
:04016c00700300001c
:020000040000fa
:040170007003000018
:020000040000fa
:040174007003000014
:020000040000fa
:040178007003000010
:020000040000fa
:04017c00700300000c
:020000040000fa
:040180007003000008
:020000040000fa
:040184007003000004
:020000040000fa
:040188007003000000
:020000040000fa
:04018c0070030000fc
:020000040000fa
:0401900070030000f8
:020000040000fa
:0401940070030000f4
:020000040000fa
:0401980070030000f0
:020000040000fa
:04019c0070030000ec
:020000040000fa
:0401a00070030000e8
:020000040000fa
:0401a40070030000e4
:020000040000fa
:0401a80070030000e0
:020000040000fa
:0401ac0070030000dc
:020000040000fa
:0401b00070030000d8
:020000040000fa
:0401b40070030000d4
:020000040000fa
:0401b80070030000d0
:020000040000fa
:0401bc0070030000cc
:020000040000fa
:0401c00070030000c8
:020000040000fa
:0401c40070030000c4
:020000040000fa
:0401c80070030000c0
:020000040000fa
:0401cc0070030000bc
:020000040000fa
:0401d00070030000b8
:020000040000fa
:0401d40070030000b4
:020000040000fa
:0401d80070030000b0
:020000040000fa
:0401dc0070030000ac
:020000040000fa
:0401e00070030000a8
:020000040000fa
:0401e40070030000a4
:020000040000fa
:0401e80070030000a0
:020000040000fa
:0401ec00700300009c
:020000040000fa
:0401f0007003000098
:020000040000fa
:0401f4007003000094
:020000040000fa
:0401f8007003000090
:020000040000fa
:0401fc00700300008c
:020000040000fa
:040200007003000087
:020000040000fa
:040204007003000083
:020000040000fa
:04020800700300007f
:020000040000fa
:04020c00700300007b
:020000040000fa
:040210007003000077
:020000040000fa
:040214007003000073
:020000040000fa
:04021800700300006f
:020000040000fa
:04021c00700300006b
:020000040000fa
:040220007003000067
:020000040000fa
:040224007003000063
:020000040000fa
:04022800700300005f
:020000040000fa
:04022c00700300005b
:020000040000fa
:040230007003000057
:020000040000fa
:040234007003000053
:020000040000fa
:04023800700300004f
:020000040000fa
:04023c00700300004b
:020000040000fa
:040240007003000047
:020000040000fa
:040244007003000043
:020000040000fa
:04024800700300003f
:020000040000fa
:04024c00700300003b
:020000040000fa
:040250007003000037
:020000040000fa
:040254007003000033
:020000040000fa
:04025800700300002f
:020000040000fa
:04025c00700300002b
:020000040000fa
:040260007003000027
:020000040000fa
:040264007003000023
:020000040000fa
:04026800700300001f
:020000040000fa
:04026c00700300001b
:020000040000fa
:040270007003000017
:020000040000fa
:040274007003000013
:020000040000fa
:04027800700300000f
:020000040000fa
:04027c00700300000b
:020000040000fa
:040280007003000007
:020000040000fa
:040284007003000003
:020000040000fa
:0402880070030000ff
:020000040000fa
:04028c0070030000fb
:020000040000fa
:0402900070030000f7
:020000040000fa
:0402940070030000f3
:020000040000fa
:0402980070030000ef
:020000040000fa
:04029c0070030000eb
:020000040000fa
:0402a00070030000e7
:020000040000fa
:0402a40070030000e3
:020000040000fa
:0402a80070030000df
:020000040000fa
:0402ac0070030000db
:020000040000fa
:0402b00070030000d7
:020000040000fa
:0402b40070030000d3
:020000040000fa
:0402b80070030000cf
:020000040000fa
:0402bc0070030000cb
:020000040000fa
:0402c00070030000c7
:020000040000fa
:0402c40070030000c3
:020000040000fa
:0402c80070030000bf
:020000040000fa
:0402cc0070030000bb
:020000040000fa
:0402d00070030000b7
:020000040000fa
:0402d40070030000b3
:020000040000fa
:0402d80070030000af
:020000040000fa
:0402dc0070030000ab
:020000040000fa
:0402e00070030000a7
:020000040000fa
:0402e40070030000a3
:020000040000fa
:0402e800700300009f
:020000040000fa
:0402ec00700300009b
:020000040000fa
:0402f0007003000097
:020000040000fa
:0402f4007003000093
:020000040000fa
:0402f800700300008f
:020000040000fa
:0402fc00700300008b
:020000040000fa
:040300007003000086
:020000040000fa
:040304003c030000b6
:020000040000fa
:04030800700300007e
:020000040000fa
:04030c00700300007a
:020000040000fa
:040310007003000076
:020000040000fa
:100400004f0321000eff22000e01880000000000b3
:10041000000020000000e000020032000001200087
:100420002002880014000700af0007000000e00071
:1004300003003a00c06c22000100200002003700d7
:100440000000200001002000810f70000100320038
:100450000f000700000020000000e0000200320052
:100460000000020000000000c621020000000000a1
:100470000040da000000fe00c07720000000e0002d
:1004800002003200002020009001880000000600d9
:10049000a1028800800478000000eb001f003700f4
:1004a000e284440054a0b4009905ba00e2844400f8
:1004b00054a0b4009906ba00e284440054a0b400e9
:1004c0000006eb00476fde00fd07b200ae018800ba
:1004d000636ce10003003a000ad801000000eb0061
:1004e0000e003700606ce10008003a00004deb00a0
:1004f0000a05e800020039003420ec000af0a000f0
:100500008b05e900f9ff3e00040037006168e10057
:10051000010032000086eb000b00070019c7ba008b
:100520000e04e0001905ba0003003a000a00e000da
:10053000dbff3a0000000600fe07b200ae028800b2
:100540008a047800f5ff37000cd0a300e20f4d00bd
:100550001c003b0089027800354dba000a05e8000e
:10056000020039003420ec000af0a0008b05e900fd
:100570000f003200254dba000a05e80002003900dc
:100580003420ec000af0a0008b05e90008003200de
:100590000c00e0000600320015cdba000a05e800a4
:1005a000020039003420ec000af0a0008b05e900bd
:1005b0008984e80054a0b4000b00e000e2ff3a0098
:1005c000000006009902ba00055d78008b05e9007d
:1005d000f7ff3200c82ade00055d78008b05e900d0
:1005e000f3ff32000c00e000f1ff320019ddba0029
:1005f000eeff3700809fbe000000fa000080800000
:100600001180800061004000e08048000080880088
:10061000118088000068a9000080fa004f00be0029
:1006200000400600809fbe000000fa00208080008d
:100630003180800061004000e08048002080880018
:100640003180880000e8a9000080fa004f00be0059
:1006500000400600801f78000000fa000108a90091
:1006600013e1a90010c0b30008f0b7000080fa0041
:100670004f00780000400600809fbe003200f80066
:100680003400f80010002000a001880000202000a5
:1006900000d0fe000000fa00012880000080200049
:1006a000008060000000e00007003200a028800009
:1006b0004400de0050808800b02880006080880000
:1006c00010c0b30009f0b70016e8a9000080fa00d6
:1006d0003400f9003200f9004f00be00004006006f
:1006e0000040da000000fe000000050014002000b9
:1006f00092033700f4ff2f00900337000001be0083
:10070000240007000470a70003f0a1006509b100f0
:10071000160032000d0035006828e10006003500a3
:10072000f0ff2f00f1ff27000300e00013003b0063
:100730000100280000000500000040008180480002
:100740008502e900fcff3a0008003700f88f4200fc
:1007500002003c008000eb00000005008100d10099
:100760000080d3008502e800fcff3a000300e000af
:1007700002003b0060001000e0801800000006004e
:100780004f89de0082017800870337006011b800ce
:1007900095033700c70ade00f107b200f50fb2007b
:1007a00008003200e1cf4200020032000170a000d8
:1007b00024000500810f70000100320004080500cc
:1007c00044000500810f700002003a00140005008b
:1007d0008502e9000000400081c04800fcff3b00aa
:1007e0000170a0002400050007f8270007836100be
:1007f0000638e10004003a00f70720008783610013
:100800008703710001003a0003f0a200889fbe0038
:100810008a9fbe008c9fbe00470ade000480a100b4
:10082000c71ade000580a1000700280007856000c8
:1008300087856100f70f20000720e1009e0032004d
:100840000728e1009c003200010678000400e00067
:10085000b4003200f7072000878060000170a0001c
:100860000500e000c0003200f7072000878161002a
:100870000370a000050652000f003a000b50e10083
:100880000b0032000308e10002003a000200e10020
:100890007e003200020450008384580004003100be
:1008a0000001fd008101fd008402fd008a05fd00bc
:1008b0006044b800210037000520e10005003d003c
:1008c0000001fd008101fd008402fd008a05fd009c
:1008d000050652007a60e100050035000170a100b4
:1008e0004722dd00848070008a807000630037003a
:1008f0006044b800ef02660007ff2f00070666009d
:100900000500e00006003400f08312008714dd00cb
:100910000511de00071bdd00060171008519de00f0
:100920007060e10005003500090478008204780059
:10093000030178008001eb00700656000b50e100c7
:1009400003003a00020040008380480004003700a2
:1009500060041400e0841c000200580083805800ea
:100960000188a300060032008100d1000080d3007e
:100970008984d3000884d3000402e80027003700ec
:100980000178a30025003a000100e00003003200d6
:100990008186cf00698656000a0037008c0020004f
:1009a0000000e00004003a000900780088047800a4
:1009b0000004eb00700252008086cf000d06460056
:1009c0000c06e9007060e100060035008000780048
:1009d00009007800880478000004eb0070065600d7
:1009e000700252000c00e0000c0034008c08dd00a6
:1009f000f00316000703de00868070000c00dd00a7
:100a0000074bde00060070008c4cdd000743de0063
:100a1000868474000c44dd000c0252006120e10069
:100a20002000350061016000070028008781640014
:100a3000f7ff270087836400070374000300e000ca
:100a40000600320082037300040032000000e80058
:100a5000e08048000188a3000e003a00f70f200054
:100a60000720e1004a003d000170a1004722dd009f
:100a7000810072008a8070000000be004f06be0038
:100a80004f05be004f04be00000006006000b80025
:100a9000faff37008100d1000080d3000402e80093
:100aa000eeff37000401780089017400a1010700fe
:100ab0008a807000f1ff3700f70107000702780015
:100ac0000001fd008101fd00f301070087027800ad
:100ad000850372000778a300040032000001fd00c6
:100ae0008101fd0006020700e4ff37008503620074
:100af0000768a300080032000b50e1000300320039
:100b0000f0ff2f00f1ff2700dcff37000001fd00a0
:100b10008101fd00d9ff37000468a300d7ff320030
:100b2000faff3700f8ff2700888360000b003a00c7
:100b30000000e00009003a00830364008283730030
:100b4000020032000200be00ccff37000b50e10073
:100b5000ceff3a000200be00c8ff3700140020009c
:100b6000810064003eff3700f8ff270088836100a2
:100b700004003a000200e00002003a008c00780015
:100b8000beff3700150020008301640039ff3700e5
:100b900001f827000000200081007500b7ff370032
:100ba000889fbe008a9fbe008c9fbe001b00200055
:100bb0000202be00058668000600280006066600e0
:100bc0004709de00f20fb200820032000243e80063
:100bd00080003200c729de00f30fb2007d00320032
:100be0000343e8007b003200f107b2000170a0006f
:100bf000f507b2000570a000c708dd004903de005c
:100c0000868070004700dd00c72add004923de0032
:100c1000868272004722dd00030551000403500064
:100c200085835800030031000000400081804800a7
:100c30000a05e9008c1f78008a9fbe00040050005e
:100c4000858058000402420085824a00000040006e
:100c5000818048000005eb000004be006033b8004e
:100c60000406be000d48e1005600310011000900e5
:100c70004dccd8000c01b8000d02b80084814100b1
:100c800060824a008283530003045c0084845c0019
:100c900060055d000a00e00025003a00800578004c
:100ca0000d40e1004900310088007800070078001d
:100cb000110009004d88d8000c01b8000d02b800e1
:100cc0008481410060824a006003110083835b00dd
:100cd00004045c00e0845c000900e00021003a00ac
:100ce0004f01be000300e0002b003200e301600072
:100cf000070673008c8171000100320064007000ef
:100d00004200de004e5edd000c007000c258de00c6
:100d100001e0a00083010700cf017800818071000d
:100d20004f06be004f05be004f04be000000060087
:100d30008c8343000d044c00e0844c0060054d00a2
:100d40000000e9000a00e000d4ff32008c83430079
:100d50000d044c00e0844c0060054d000000e900eb
:100d6000ceff37000c0343008d834b0060044c0022
:100d7000e0844c000000e9000900e000d8ff3200e8
:100d80000c0343008d834b0060044c00e0844c0056
:100d90000000e900d2ff37004200de004e5edd00b9
:100da0000c007000c258de0001e0a000cf01780006
:100db0000300e000daff320060001000e08018005d
:100dc000d7ff3700f0ff2f00aaff3700f0ff2f00fa
:100dd000b9ff37000404be002f0107008706780022
:100de0000004fd008104fd002b010700078366005d
:100df0000678a300030032000960a7000800be00c7
:100e00002c0037000d78a300020032000800be005d
:100e1000280037000778a30026003a0001f0a1005f
:100e200009f0a1000668a30003003200f1ff2700cb
:100e3000f0ff2f00baff37000d68a3000300320057
:100e40000800be008c807000b5ff37000768a30063
:100e500007003a000648a30003003200f1ff270014
:100e6000f0ff2f00aeff37000d48a3000300320053
:100e70006000b8008c807000a9ff37000748a3000d
:100e80000400320001f82700000020008c80700070
:100e9000a3ff3700760107000004fd008104fd0078
:100ea00002057800720107000802be008a0178007e
:100eb00059ff37000160a000120220000281880063
:100ec00097ff37000100e000120032000500e0004b
:100ed00010003200889fbe008a9fbe008c9fbe001b
:100ee0000006eb0001f8a3000300320060001000d0
:100ef000e08018000cf0a00005f8a3000300320009
:100f000060021200e0821a000cf0a2008005eb00e3
:100f100041ff37006000b80002000500038368004d
:100f20000700280007036300470ade000480a100d1
:100f3000c71ade000580a100f70f20000720e1009e
:100f4000420032000728e10040003200889fbe00c6
:100f50008a9fbe008c1f7800f107b200f307b20031
:100f60000400e000640032000170a0000500e00011
:100f7000680032000370a00085054200eb07b10055
:100f80000204b8000302b8008484440060854a006b
:100f9000020ab800848444000a854a00030ab800a3
:100fa00004054500040033000804d0008984d20001
:100fb0000a85d2008b05e9006158e1003d0035004b
:100fc00002102000090161000308200089816100ee
:100fd000f70720008783640008867300c84cde0092
:100fe000c853dd00878474004855de000300e0002c
:100ff0000600320082037600040032008904e80013
:1010000060054d000a88a3000c003a00f70f20008d
:101010000758e10044003d000a70a100c75ddd00f3
:101020000a8575008a007300090078004f06780071
:101030004f05be004f04be00000006000a05d100a7
:101040008984d3008b05e800f0ff3700881f780003
:101050000604780090000700070278000001fd00f8
:101060008101fd008c000700870278008503720073
:101070000778a300050032000001fd008101fd009a
:101080009f0007004f0478000000060085037200ef
:101090000748a30003003200f0ff2f00f1ff2700f4
:1010a000f8ff37000000200001f82700888070005a
:1010b000f4ff3700880178004848dd008081710026
:1010c0004848de00c850dd0001007000c850de0056
:1010d000060478000b017800160007008880700075
:1010e000d2ff37000500e0000500320017002000a5
:1010f0003a0007009dff370081037000f9ff3a00b6
:10110000860078004f0678004f05be004f04be00f1
:101110000000050083037100f9ff32002700200062
:101120002e00070094ff370001f82700868070002a
:10113000f4ff37000100e0002600320061011100d9
:101140007810e10023003c006022b8007010e1003c
:101150000400350080027800010078008000eb0078
:10116000700151000200e00009003400700311001a
:10117000062add00822ade008603dd0087827200f7
:101180000200de00860bdd00070070008208de0032
:1011900084817100f4ff2700048262008481710061
:1011a00004002800848262006102600005f0a6004d
:1011b0000000060004827100070032000000e80011
:1011c000e0804800000006000002be006000b80099
:1011d000efff37006000b80000000600889fbe00e7
:1011e0000004eb006138e10016003a000100e00065
:1011f00008003a00c800de004800dd00880020003a
:101200000100e00003003a00c800de004800dd00f5
:10121000680444008184cf00e9845400060034004f
:101220008908dd00f08314008703de0087807000ea
:101230000900dd0009044400610214004f04be00ef
:10124000000006000300e00008003a00c811de00bc
:101250004811dd00880020000300e00003003a0090
:10126000c811de004811dd00680444008384cf000b
:10127000e9845400060034008919dd00f08314006d
:101280008713de00878171000911dd000904440025
:10129000e1021400e9ff37002700200001f0a70059
:1012a00017002000470bde00f60fb20004003200ea
:1012b0000643e8000a0032004702b30000000600bf
:1012c00001037800f607b2000603700002003a003e
:1012d0000703b300000006008702b3000000060009
:1012e00001037800f607b200060370000200320026
:1012f0000770a000000006000760a00000000600c4
:101300000478a300040032000578a3000300320033
:101310000168a30001003a000200be000160a000c5
:101320000000060081017000270032008002eb00ff
:1013300001f8a3000300320060001000e0801800f4
:1013400015002000f40720000202420020003400b3
:10135000f7032000870360000604200000036300f9
:1013600002082000000161004700de00c909dd001d
:1013700000807100c708de000600e00008003200af
:1013800087037100060032001000b0000180b00039
:101390000188a30002003200c108de000402e80058
:1013a000f107b200f30f20000320e10003003d002d
:1013b0004722dd00810072002900370001f8270074
:1013c0000000eb00260037006000b80000000600b7
:1013d000680212007f20e100020034006000b800c3
:1013e0001f0037006011b8007020e10004003500d4
:1013f00080017800010078008000eb00700252004c
:101400000400e00009003400f00312000719dd00b9
:101410008419de000703dd00868171000400de0010
:10142000070bdd00060070008408de00f7ff2700d0
:1014300083836300870371000600280003036300b1
:10144000070032000700e00003003a00610160007d
:1014500002817300020032001000b0000180b00071
:101460000500a6000000060001f0a0000000060034
:101470004f0ade004709de00f107b200f20fb200aa
:101480000b003200f207b1000170a000c708dd00b8
:10149000c901de00838070004700dd000400a60063
:1014a0000000060060001000e08018000000060048
:1014b000810f700001003a00000006008182cf0019
:1014c0000500e00010003e008082cf00ee82420066
:1014d0007028e1000400390007003e008000780019
:1014e0000000eb000e003700708312008600de0063
:1014f0000500dd000a003700708352008600dd0021
:101500000000eb0006003700e28252008508dd0093
:10151000708312000603de00868070000500dd0087
:101520007507b0000501ea000400a60000000600ef
:1015300060001000e080180000000600889fbe00d8
:101540008a9fbe00841f78007c0007004f0078004f
:1015500011003300f0ff2f00838f6c0006003b006a
:10156000040565000a00a7000800370009f0a6007e
:101570001000200008003700820f5400838f5c00a9
:10158000030039001000200001003e000000200090
:1015900009f0a7000000ea004f05be004f04be009e
:1015a0000000e00000000600881f780003047800b7
:1015b0000300e00007003d0060001000e08018001c
:1015c00060011900e081190002003b0001f02d00cc
:1015d000030037000400070008f0a70001f0a00096
:1015e0004f04780000000600889fbe008a9fbe005e
:1015f0000082700004027100048271002600320033
:101600000004be000200be006011b8006b0920009b
:10161000950220000182cf000a0039000541b10087
:101620000082cf00070039000541b1000982cf00d8
:10163000040039000541b1000882cf0001003900e3
:101640000541b10005425200120032000a003b0081
:1016500082817100610164008100d1000080d300ab
:101660008984d3000884d3008b05e8000442e80095
:10167000f7ff3a00070037000804440089844c0053
:1016800000004800818048008b05e9000442e90021
:10169000f9ff3a00030007004f05be004f04be00eb
:1016a0000000060081002000618055000b003d0015
:1016b0000b00200061fe2f000100e1001d0034003e
:1016c00082817100610164008904d1000884d30023
:1016d0000000e800faff3a00710020006100640099
:1016e0000300700002006000090032006104440041
:1016f000e0844c000988a500050032008b05e80055
:101700006808e10002003a008904d1000884d3008f
:10171000f20f20000258e10005003d00c75ddd002a
:10172000f907b20089807500080078000000060003
:101730000bf827008b007800000005000004be00b5
:1017400014fc07000003be000405be000200be003a
:0c17500010fc0700844f7500000006002c
:020000040000fa
:10175c0008c000008608000022a00000a261000062
:10176c0010a000000008000000000000f0c1000004
:10177c00fa80000008540000000000000000000087
:10178c001006000040370000108600000004000026
:10179c00e14d0000801d00009a5f00000315000061
:1017ac0026150000ffff000003000000b000000041
:1017bc0000000000000000000040000000000000dd
:1017cc000200000008000000000000000000000003
:1017dc00ff7f000002000000050000000000000078
:1017ec0000000000000000000000000000400000ad
:1017fc0047b80000960000009700000000ff0000b2
:10180c00001000000100000098580000486c000017
:10181c0000000000010000000080000000fc00003f
:10182c0000f000000010000000800000ff7f0000ae
:10183c0000040000ff7b0000003000000069000085
:10184c0003510000ad170000000000000000000074
:10185c00000000000000000000000000000000007c
:10186c00000000000000000000000000000000006c
:10187c00000000000000000000000000000000005c
:10188c0000000000000000009c580000051800003b
:10189c009a580000041800008be200001d3e000066
:1018ac0086e200001d3c0000a45800000218000055
:1018bc00a09800001718000098d80000031800002a
:1018cc0000440000023a0000787600000018000086
:1018dc0010b4000000860000003800004402000034
:1018ec00a2980000151800009ed8000019180000de
:1018fc0007ca00000632000092ba00002146000020
:10190c00002a00001740000091120000902e0000e9
:10191c0080220000162e00001f1200001e2c00005a
:10192c0000040000162a000000000000012c00003a
:10193c008652000000500000000000000000000073
:10194c000000000028140000bc1d00000000000076
:10195c00436c000065610000726900006e67000056
:10196c002049000043200000537400006174000003
:10197c0075730000206600006c6100006773000046
:10198c002e2e00002e0d00000a00000057610000f2
:10199c00726e0000696e0000673a0000204600007d
:1019ac00616900006c65000064200000746f000029
:1019bc00206300006c650000617200002073000061
:1019cc00746100007475000073200000666c0000e8
:1019dc0061670000732e00000d0a00000046000035
:1019ec00616900006c65000064200000746f0000e9
:1019fc00204500006e74000065720000204300005a
:101a0c006f6d00006d6100006e640000204d0000e1
:101a1c006f64000065210000210d00000a00000029
:101a2c00436f00006d6d0000616e000064200000cb
:101a3c004d6f0000646500002069000073200000f9
:101a4c004f4b0000212100000d0a00000052000045
:101a5c0065610000646900006e670000206600008c
:101a6c0061630000746f0000727900002d7000003b
:101a7c00726f000067720000616d00006d65000000
:101a8c0064200000766100006c7500006573000036
:101a9c002e2e00002e0d00000a00000046610000f2
:101aac00696c000065640000207400006f20000069
:101abc007265000061640000206600006163000034
:101acc00746f00007279000020760000616c0000d9
:101adc0075650000732100000d0a0000004600002f
:101aec0061630000746f00007279000020760000c2
:101afc00616c0000756500007320000072650000c9
:101b0c0061640000204f00004b2e00000d0a000005
:101b1c00004f00004b3a0000204e0000657700009b
:101b2c00204300005243000020630000616c000061
:101b3c00637500006c61000074650000643a00007d
:101b4c0020300000780000000d0a0000004e00005c
:101b5c0056520000414d0000205500006e6c0000f4
:101b6c006f6300006b2000006973000020660000aa
:101b7c00616900006c750000726500002121000095
:101b8c000d0a0000004e000056520000414d0000ae
:101b9c00205500006e6c00006f6300006b2000008d
:101bac0069730000204f00004b210000210d000044
:101bbc000a0000005772000069740000696e000092
:101bcc006720000064610000746100002074000054
:101bdc006f2000004e5600004d2000002830000001
:101bec007830000030200000746f000020300000be
:101bfc0078370000382900002e2e00002e0d000032
:101c0c000a00000046610000746100006c3a00009c
:101c1c00204e000056520000414d0000207700007d
:101c2c00726900007465000020700000726f000083
:101c3c00636500007373000020610000626f000098
:101c4c007274000065640000210d00000a000000a1
:101c5c004f4b00003a2000004e560000524100004d
:101c6c004d200000777200006974000065200000b0
:101c7c00636f00006d6d0000616e00006473000006
:101c8c0020730000656e0000742e00000d0a000029
:101c9c000057000061690000746900006e67000065
:101cac00206600006f720000204e0000564d0000b0
:101cbc0020700000726f000067720000616d000000
:101ccc006d6900006e670000207400006f2000003a
:101cdc00636f00006d7000006c650000746500009f
:101cec002e2e00002e0d00000a000000566500008c
:101cfc007269000066790000696e000067200000c0
:101d0c007772000069740000746500006e2000009a
:101d1c0064610000746100002e2e00002e0d000086
:101d2c000a0000000d0a000045520000524f00004e
:101d3c00523a00002052000065610000642000004f
:101d4c0066610000696c000065640000206400009e
:101d5c0075720000696e0000672000007665000057
:101d6c00726900006669000063610000746900001c
:101d7c006f6e0000206100007420000030780000bd
:101d8c00000d00000a50000041530000533a0000bf
:101d9c002052000065610000642000004f4b0000e1
:101dac0021210000212000003d3e000020300000d9
:101dbc0078000000207c000020570000726f0000ab
:101dcc00746500003a20000030780000002000000c
:101ddc007c20000052650000616400003a20000085
:101dec0030780000000d00000a4d0000495300003f
:101dfc004d41000054430000482000006174000075
:101e0c0020300000780000000d0a0000566500002c
:101e1c00726900006669000063610000746900006b
:101e2c006f6e000020500000415300005321000051
:101e3c00210d00000a0000000d0a0000566500008c
:101e4c00726900006669000063610000746900003b
:101e5c006f6e000020460000414900004c2100003c
:101e6c00210d00000a0000000d0a00002d2d0000bd
:101e7c002d2000005a530000534300003431000061
:101e8c0035310000204e00006f7200006d610000c3
:101e9c006c2000004f70000065720000617400003f
:101eac00696f00006e2000004d6f0000646500003b
:101ebc00202d00002d2d00000d0a00000046000012
:101ecc0061740000616c00003a2000004661000063
:101edc00696c000065640000207400006f20000035
:101eec007374000061720000742000004e6f0000db
:101efc00726d0000616c0000204d00006f640000ea
:101f0c00652100000d0a0000004f00004b3a000054
:101f1c00204e00006f7200006d6100006c2000000c
:101f2c004d6f0000646500002053000074610000d8
:101f3c0072740000656400002e20000041630000f4
:101f4c007175000069720000696e00006720000066
:101f5c0064610000746100002e2e00002e0d000044
:101f6c000a0d00000a0000000d0a000020200000ed
:101f7c00202000002d2d00002d2d0000203f000002
:101f8c003f3f00003f2000003f3f00003f3f00006c
:101f9c003f3f00002c2000005a5300005343000028
:101fac0034310000353100002072000061770000f0
:101fbc00203f00003f3f00003f3f00003f2000005b
:101fcc003f3f00002c200000534500004e54000001
:101fdc00203f00003f3f00003f3f00003f2000003b
:101fec003f3f00003f2000002d2d00002d2d000054
:101ffc000d0a00000d0a000000290000205300000b
:10200c004854000034780000205400003a200000ae
:10201c00002800003f3f0000432900002c20000056
:10202c00483a00002000000028250000292c000060
:10203c0020720000617700004461000074610000b0
:10204c0028620000792000005a530000534300001e
:10205c00293a00002030000078000000202c0000fd
:10206c0020530000454e0000543a00002030000080
:10207c007800000020200000507200006f62000009
:10208c0065200000537400006570000020310000d2
:10209c003a2000005374000061720000740d0000bf
:1020ac000a000000202000002d3e00002046000009
:1020bc00414900004c450000440d00000a0000009e
:1020cc0020200000507200006f62000065200000ac
:1020dc005374000065700000203200003a200000ac
:1020ec005772000069740000652000004164000014
:1020fc006472000065730000730d00000a0000009c
:10210c00202000002d3e0000204600004149000028
:10211c004c45000044200000284e000041430000c4
:10212c004b2000006f72000020540000696d00000d
:10213c00656f000075740000290d00000a00000096
:10214c0020200000507200006f620000652000002b
:10215c005374000065700000203300003a2000002a
:10216c00577200006974000065200000436f000086
:10217c006d6d0000616e0000640d00000a0000002f
:10218c0020200000507200006f62000065200000eb
:10219c005374000065700000203500003a200000e8
:1021ac00526500007374000061720000740d000031
:1021bc000a00000020200000507200006f62000036
:1021cc00652000005374000065700000203600008c
:1021dc003a2000005772000069740000652000006e
:1021ec00526500006164000020410000646400003e
:1021fc0072650000737300000d0a000000200000df
:10220c0020500000726f0000626500002053000037
:10221c007465000070200000373a00002052000066
:10222c0065610000646900006e67000020620000b8
:10223c0079740000657300002e2e00002e0d000036
:10224c000a00000020200000507200006f620000a5
:10225c0065200000525800002052000061770000f9
:10226c003a200000000d00000a00000020200000b1
:10227c002d3e000020500000726f000062650000cf
:10228c00204f00004b2100000d0a00000020000030
:10229c00202d00003e20000046410000494c00006b
:1022ac00454400002028000045630000686f0000d2
:1022bc00206d0000697300006d6100007463000004
:1022cc00682900000d0a0000000d00000a2d000016
:1022dc002d2d00002043000068650000636b00009a
:1022ec00696e0000672000005a5300005343000041
:1022fc0034310000353100002053000074610000bf
:10230c0074750000732000002d2d00002d0d0000b1
:10231c000a0000002020000046610000696c0000eb
:10232c007572000065530000746100007475000044
:10233c00732000002830000078360000322900009d
:10234c003a20000030780000002000003c2d0000f6
:10235c002d20000041700000706c000069630000cb
:10236c0061740000696f00006e200000457200006f
:10237c00726f00007220000044650000746500005c
:10238c006374000065640000210000002020000040
:10239c0046610000696c0000656400002074000058
:1023ac006f20000072650000616400002046000090
:1023bc00616900006c7500007265000053740000c8
:1023cc006174000075730000202800003078000054
:1023dc0036320000290d00000a0000002020000009
:1023ec004943000020530000746100007475000024
:1023fc0073200000283000007836000030290000df
:10240c002020000020200000202000003a200000a6
:10241c0030780000002000003c2d00002d20000032
:10242c0046690000726d0000776100007265000063
:10243c002f4800005720000045720000726f00000a
:10244c007220000044650000746500006374000095
:10245c00656400002100000020200000466100009f
:10246c00696c000065640000207400006f2000009f
:10247c0072650000616400002049000043200000e8
:10248c005374000061740000757300002028000074
:10249c003078000036300000290d00000a000000e2
:1024ac002d2d00002d2d00002d2d00002d2d0000b8
:1024bc002d2d00002d2d00002d2d00002d2d0000a8
:1024cc002d2d00002d2d00002d2d00002d2d000098
:1024dc002d2d00002d2d00002d2d00002d2d000088
:1024ec002d0d00000a0d00000a0000000d0a00006e
:1024fc002d2d00002d2000004e5600004d20000018
:10250c004d61000070200000447500006d700000eb
:10251c00205300007461000072740000202d000034
:10252c002d2d00000d0a0000004e0000564d00003d
:10253c005b300000780000005d2000003d200000b2
:10254c0030780000005d0000203d000020520000ab
:10255c00656100006420000046410000494c000009
:10256c00454400000d0a0000002d00002d2d000038
:10257c00204e0000564d0000204d00006170000000
:10258c0020440000756d000070200000456e0000b6
:10259c00642000002d2d00002d0d00000a0000000d
:1025ac003031000032330000343500003637000083
:1025bc003839000041420000434400004546000009
:1025cc0000490000324300002073000063610000ea
:1025dc006e2000007374000061720000742e000005
:1025ec002e2e00000d0a00000020000020410000eb
:1025fc00434b000020400000203000007800000019
:10260c0020280000573d000030780000002c00000e
:10261c00205200003d30000078000000290d000021
:10262c000a000000493200004320000073630000e0
:10263c00616e0000206400006f6e0000652e0000cb
:08264c000d0a0000000000006f
:020000040000fa
:102654000800fa0000042900ae050700da060700a6
:102664000004a2000004e0000400320080052900f8
:10267400a80507000040eb00700037006006290041
:10268400a405070000c5b300f00607000004a2007b
:102694000004e00005003200600829009d050700e1
:1026a400d40607000040eb0064003700600a2900ec
:1026b40098050700c0c2b300e40607000004a200a6
:1026c4000004e000050032006008290091050700bd
:1026d400c80607000040eb0058003700600c2900d2
:1026e4008c050700ce0607000004a2000004e000e9
:1026f400050032008005290086050700bd06070095
:102704000040eb004d003700000e29008105070052
:1027140010c5b300cd0607000004a2000004e000c9
:1027240005003200600829007a050700b106070099
:102734000040eb00410037005010290075050700e8
:1027440010c0b300d6060700e400470080487800b4
:1027540010c0b300d2060700e500470080487800a7
:1027640010c0b300ce060700e6004700804878009a
:102774000040eb00ca060700e700470080487800e5
:102784009c06070080122900620507000000eb0088
:10279400000f7800080037009e0078006480400035
:1027a40000004700104078000d05070000c2b30088
:1027b400ff0407001e0fe8001e007800e30f50001e
:1027c400f5ff340090132900520507008000eb0048
:1027d4000e80e80001087800110037000e80e80040
:1027e400100078006400400000004700904078002a
:1027f400c0c2b30080cf500004003a00c0132900c7
:102804004405070010c0b3000c0037000e80e80038
:10281400100078008000e8000e80e80001087800cd
:102824000e80e80010007800e30f5000ebff340046
:10283400d0142900370507000040eb000080fa009f
:10284400000006000600fa000e81e8000009780086
:1028540064004700014878000e80e800100078000a
:102864009000780064004700104078000080fb006e
:102874004800dd00808068000e80e80010007800c9
:10288400010878000000eb00000f78001900370001
:102894000e80e80010007800100078000000e000ce
:1028a4000b003d000e80e800100078001000780056
:1028b4000000400080007800100221008080680041
:1028c4000e80e80010007800010878000800370046
:1028d4000e80e8001000780010007800000040002e
:1028e400800078000e80e80010007800010878006d
:1028f4001e0fe8001e007800e70f5000e4ff3400cc
:102904000080fa00000006000800fa00e600470014
:10291400800878008080eb0064004700010878009c
:1029240010002000000f7800130037001e0078000c
:1029340000004000e60047009100780080804000dd
:102944000e80e800110878000e80e800100078007e
:102954004800de008040780064004700b9ff0700ab
:102964000e80e80010007800804078006400470082
:10297400b4ff07001e0fe800800720009e007800c7
:10298400808f5000e9ff3400640047001000780095
:102994000080fa00000006000c00fa0068014700fd
:1029a400004978006a00470001087800060607001d
:1029b4000004a2000004e000020032000080eb00ea
:1029c4005800370000c5b300200607000004a20029
:1029d4000004e00003003200060607000080eb005c
:1029e40050003700680047001040780017060700c1
:1029f4000004a2000004e00003003200fd0507000b
:102a04000080eb0047003700050607000004a20021
:102a14000004e00003003200f60507000080eb002c
:102a24004000370010c5b300080607000004a200e8
:102a34000004e00003003200ee0507000080eb0014
:102a4400380037000000eb00000f78000600370064
:102a540010c0b300120607009e80e8008100470002
:102a6400804878001e0fe8001e007800e30f500035
:102a7400f7ff34000040eb0009060700e6004700ba
:102a840080487800db0507000004a2000004e00091
:102a9400020032000080eb00220037006300470090
:102aa400104078000080fb008000eb00c801dd00ce
:102ab4000200200064004700104078000080fb0002
:102ac4008000eb00c000dd00000020000001710068
:102ad4008181710065004700104078000082fb008e
:102ae4008002eb004828dd00c820de008100700071
:102af4004820dd00000171008181710066004700fb
:102b0400104078000080fb008000eb0000007100a2
:102b1400818071006a014700120178000089be00bb
:102b24000000eb000080fa00000006000400fa0038
:102b340010c6b300004f780080c0eb000e00e80020
:102b44000148780080c0eb000e80e800014878005e
:102b54009d0507000004a2000004e000020032000a
:102b64000080eb003d00370000c5b300b705070047
:102b74000004a2000004e000030032009d050700e9
:102b84000080eb00350037001e407800af050700d9
:102b94000004a2000004e0000300320095050700d1
:102ba4000080eb002d0037000e00e8001040780094
:102bb400a60507000004a2000004e00003003200a0
:102bc4008c0507000080eb00240037000e80e8002d
:102bd400104078009d0507000004a2000004e000f6
:102be40003003200830507000080eb001b00370060
:102bf4000e00e80010407800940507000004a200cd
:102c04000004e000030032007a0507000080eb00b6
:102c1400120037000e80e800104078008b05070092
:102c24000004a2000004e000030032007105070064
:102c34000080eb00090037006e0507000004a200c5
:102c44000004e000020032000080eb0003003700c3
:102c5400401f2000aa0307000000eb000080fa00d8
:102c6400000006000400fa00b01629002904070039
:102c74008e00780020c6b30047ff07000000e00084
:102c840015003a0000192900220407001e007800ec
:102c94009e0090004008de0000007800f103070069
:102ca4001e0078009e00900000007800ed030700ed
:102cb4001e0078009e009000e00f5000e08f580046
:102cc40002003200b01a29001204070090132900f0
:102cd4001004070002003700c01c29000d0407007f
:102ce4008e00780000c6b3002bff07000000e00050
:102cf40015003a00401f2900060407001e00780052
:102d04009e0090004008de0000007800d503070014
:102d14001e0078009e00900000007800d103070098
:102d24001e0078009e009000e00f5000e08f5800d5
:102d34000200320010212900f60307009013290035
:102d4400f40307000200370020232900f1030700e1
:102d540060252900ef0307000080fa000000060048
:102d64000800fa0064014700004978006600470043
:102d7400010878006400470010407800fa406000c1
:102d840050c2b30080c070000e80e8000148780093
:102d94000000eb00000f78000b0507000004e000c2
:102da400020032000080eb002b00370000c5b300a6
:102db4006d0407000000e000020032000080eb0018
:102dc400000f78001e0078000000e00007003a00c1
:102dd4000e80e80010407800630407000000e00063
:102de400020032000080eb00000f78001e00780023
:102df4000000e00009003a00660047001000780077
:102e04004800de0000407800570407000000e0009e
:102e1400020032000080eb00000f78001e007800f2
:102e24000000e00008003a00660047001000780047
:102e3400004078004c0407000000e000020032006b
:102e44000080eb00000f7800ea0407002000200057
:102e54001c0307001e0078000080fa000000060032
:102e64000600fa008040eb000e00e80001487800fc
:102e7400b1c4b3000e80e80001487800c0272900df
:102e8400a40307000e00e800104f78001b00370071
:102e940064004700800078001e407800810107002c
:102ea4000000e0000c003a00b02929009903070053
:102eb4001e4078004a030700202a290095030700d2
:102ec400640047001000780066030700901329008f
:102ed4009003070006003700b02929008d0307007e
:102ee4001e4078003e030700902a2900890307004a
:102ef40010002000f30207001e4fe8000e80e800d7
:102f0400104078009e40780080cf5000e0ff3600eb
:102f1400b02b29007f0307000080fa0000000600a0
:102f24000000fa00a80407000004a2000004e00066
:102f3400020032000080eb002900370000c5b30016
:102f4400c20407000004a2000004e00003003200f1
:102f5400a80407000080eb002100370020c7b3005d
:102f6400ba0407000004a2000004e00003003200d9
:102f7400a00407000080eb001900370050cfb30015
:102f8400b20407000004a2000004e00003003200c1
:102f9400980407000080eb001100370020cab3003a
:102fa400aa0407000004a2000004e00003003200a9
:102fb400900407000080eb00090037008d0407002f
:102fc4000004a2000004e000020032000080eb00d4
:102fd4000300370010002000ba0207000000eb00d5
:102fe4000080fa00000006000000fa0076040700e2
:102ff4000004a2000004e000020032000080eb00a4
:103004001900370000c5b300900407000004a200b3
:103014000004e00003003200760407000080eb00a7
:103024001100370010c0b300880407000004a20098
:103034000004e000030032006e0407000080eb008f
:10304400090037006b0407000004a2000004e0003c
:10305400020032000080eb00030037005000200023
:10306400980207000000eb000080fa000000060050
:103074000400fa008e80e8008008780052040700fb
:103084000004a2000004e000020032000040eb0053
:103094001b00370010c5b3006c0407000004a20035
:1030a4000004e00003003200520407000040eb007b
:1030b4001300370010c0b30079040700004f7800f4
:1030c4000040eb00760407008e00e800804878009a
:1030d400480407001e4078000080fb00c800dd00a3
:1030e4000e00e800104078000080fb0081007000b2
:1030f4000e80e800100078000108780010c0b300ca
:103104000080fa00000006000a00fa006601470089
:10311400004978006800470001087800e0c2b30065
:10312400004f78000e00e800e600470011487800e0
:103134008040eb000e80e80001487800220407007c
:103144000004a2000004e000020032000080eb0052
:103154004f00370000c5b3003c0407000004a20080
:103164000004e00003003200220407000080eb00aa
:10317400470037001e407800340407000004a20012
:103184000004e000030032001a0407000080eb0092
:103194003f0037000e00e800104078002b040700c1
:1031a4000004a2000004e000030032001104070040
:1031b4000080eb00360037000e80e80010407800f5
:1031c400220407000004a2000004e000030032000f
:1031d400080407000080eb002d00370010040700ee
:1031e4000004a2000004e000030032000104070010
:1031f4000080eb002600370010c5b300130407005d
:103204000004a2000004e00003003200f9030700f8
:103214000080eb001e00370010c0b300200407003c
:10322400e30047008048780010c0b3001c04070086
:10323400e4004700804878000040eb0018040700d1
:10324400e500470080487800ea0307000004a20074
:103254000004e000020032000080eb000c003700a4
:1032640064004700104078000080fb00c800dd00c7
:1032740065004700104078000080fb00810070006a
:103284006800470010007800010878000000eb0097
:103294000080fa00000006000800fa0064014700fc
:1032a4000049780066004700010878006400470080
:1032b40010407800fb40600040c2b30000c07000c2
:1032c400004f7800c00307000004a2000004e000df
:1032d400020032000040eb003400370000c5b300a8
:1032e400da0307000004a2000004e0000300320037
:1032f400c00307000040eb002c0037001e4078009c
:10330400d20307000004a2000004e000030032001e
:10331400b80307000040eb0024003700c003070097
:103324000004a2000004e00003003200b10307001f
:103334000040eb001d00370010c5b300c3030700b5
:103344000004a2000004e00003003200a903070007
:103354000040eb001500370010c0b300d003070095
:103364008e00e800804878000040eb00cc030700a2
:103374008e80e800804878009e0307000e00e80075
:10338400104078000080fb00c800dd000e80e800db
:10339400104078000080fb00810070006600470048
:1033a400100078000108780010c0b3000080fa0013
:1033b400000006000400fa0050c1b300004f78007a
:1033c400b1c523000e80e800010878007e030700e1
:1033d4000004a2000004e000020032000080eb00c0
:1033e4002e00370000c5b300980307000004a200b4
:1033f4000004e000030032007e0307000080eb00bd
:10340400260037001e407800900307000004a20045
:103414000004e00003003200760307000080eb00a4
:103424001e0037000e80e800100078004800de001f
:1034340000407800850307000004a2000004e000b7
:10344400030032006b0307000080eb001300370019
:103454000e80e80010007800004078007b0307002d
:103464000004a2000004e00003003200610307002e
:103474000080eb00090037005e0307000004a2008f
:103484000004e000020032000080eb00030037007b
:10349400100020008b0107000000eb000080fa0000
:1034a400000006000800fa006401470000497800a3
:1034b400660047000108780040c2b300004f78005e
:1034c400410307000004a2000004e00002003200ef
:1034d4000080eb005000370000c5b3005b03070019
:1034e4000004a2000004e0000300320041030700ce
:1034f4000080eb00480037001e40780053030700ab
:103504000004a2000004e0000300320039030700b5
:103514000080eb00400037000040eb004b03070045
:103524000004a2000004e00003003200310307009d
:103534000080eb003800370064004700104078003a
:10354400420307000004a2000004e000030032006c
:10355400280307000080eb002f003700300307002a
:103564000004a2000004e00003003200210307006d
:103574000080eb002800370010c5b30033030700b8
:103584000004a2000004e000030032001903070055
:103594000080eb002000370010c0b3004003070098
:1035a4008e00e8008048780010c0b3003c03070098
:1035b4008e80e800804878000040eb003803070064
:1035c400e3004700804878000a0307000004a200d3
:1035d4000004e000020032000080eb000e0037001f
:1035e4000e80e800104078000080fb00c800dd0079
:1035f40063004700104078000080fb0081007000e9
:10360400660047001000780001087800400620009a
:103614003b0107000000eb000080fa0000000600f8
:103624000600fa000e81e8000049780064004700b3
:103634000108780050c2b300004f7800e20207008e
:103644000004a2000004e000020032000080eb004d
:103654003f00370000c5b300fc0207000004a200cd
:103664000004e00003003200e20207000080eb00e7
:10367400370037001e407800f40207000004a2005f
:103684000004e00003003200da0207000080eb00cf
:103694002f0037000040eb00ec0207000004a200fa
:1036a4000004e00003003200d20207000080eb00b7
:1036b400270037000e80e80010407800e30207007e
:1036c4000004a2000004e00003003200c902070065
:1036d4000080eb001e0037006400470010007800f3
:1036e4004800de0000407800d80207000004a20071
:1036f4000004e00003003200be0207000080eb007b
:103704001300370064004700100078000040780080
:10371400ce0207000004a2000004e000030032000f
:10372400b40207000080eb0009003700b102070073
:103734000004a2000004e000020032000080eb005c
:103744000300370010002000de0007000000eb003b
:103754000080fa00000006000000fa006002200069
:10376400303a8800213a800000fe2f00008060007b
:10377400203a8800213a8000f0f32f000080600096
:10378400203a88003200200080072000a109200090
:103794003374200080497800814978008249780098
:1037a400103a8000000178000200a00060042000ac
:1037b4007105200023742000804978008149780035
:1037c4008249780000000000113a800000002700c0
:1037d4008080600000002300808f5000faff3a00d0
:1037e40000000000113a8000000220000080600008
:1037f4000000e000fbff32000080fa000000060039
:103804000000fa0040a7a9000430ef000630ef00e2
:103814000030ef000230ef0005e1a9000421a90007
:1038240004c1a900210880000003200001007000e9
:103834002008880060892900100888000021ef0012
:1038440001428000f0ff2800808060000000230017
:1038540001007000004288000068a9002068a800e8
:1038640011e1a9001021a90010c1a900810880005c
:10387400000320000100700080088800a06120007f
:10388400600888000621ef0011428000f0ff280044
:103894000080600000d0a0001042880000e8a90069
:1038a40020e8a80013e1a9001221a90012c1a9006f
:1038b40091088000f0fc2f00008060000040a00010
:1038c400900888000a21ef000080eb00700888004f
:1038d4000108a9002108a80005e1a80011e1a80039
:1038e4000080fa00000006000000fa00103a800090
:1038f400000178000260a10060042000710520002e
:103904002374200080497800814978008249780036
:103914009133800000fc2f008080600010032000a1
:103924000100700090338800103a80000001780094
:103934000260a000600420007105200023742000b0
:103944008049780081497800824978004f87a9002e
:10395400713a8000f00f2f0000806000703a8800f8
:103964004fe7a8000080fa00000006000000fa00fb
:10397400c1338000f00f2c008080600000502300d1
:1039840001007000c0338800156ea900d144800086
:10399400f0ff280080806000000025000100700016
:1039a400d044880016e8a90036e8a800d144800075
:1039b400f08f2f0080806000006020000100700004
:1039c400d044880016c8a90036c8a800d08080005a
:1039d4008000eb006cf307000002be00e080800072
:1039e400f18080000001be000400be004af507001b
:1039f40041f30700000078000000e9002028880057
:103a04000145a8000105a80000e5a90001288000df
:103a140080ff2f00008060006000b3000028880051
:103a240001e5a8001625ef001425ef000080fa0038
:103a3400000006000000fa00000ea8000e0ea80008
:103a440021e3a90021a3a90001198000f0cf2f00d0
:103a5400008060000019880001198000000e200019
:103a640001007000001988002043a900111980008a
:103a7400f0ff210000806000101988002343a90092
:103a840025e3a90021198000f00f2e0000806000ba
:103a940000c0a0002019880030c0b30024e3b700a0
:103aa4004119800000fc2f0000806000401988004c
:103ab40021e3a80040012000110007000080fa0063
:103ac400000006000200fa00000f78000430ef0046
:103ad4000630ef0001003700000000001e007800ef
:103ae4006101b8002080800031808000800f510087
:103af400818f5900f8ff3e000080fa0000000600a4
:103b04000400fa008e80e800800878000e80e80047
:103b140010007800e500b900000f78000a21ef00da
:103b24009e007800710888000870ef0013e1a80077
:103b34000000000008d0bf000004e000fdff3200d8
:103b44000080fa00000006000000fa00156ea900cb
:103b5400c1338000f00f2c00008060000080a000c2
:103b6400c03388002002a9000111800090ff2f00bb
:103b7400008060000011880020a2a9002062a90032
:103b840011118000f0f32f000080600010118800f4
:103b9400000420004011880021e2a8002342a8006c
:103ba40010002000c7ff07000080fa000000060094
:103bb4000200fa00004f780000000000111180009c
:103bc40000202000008060000000e000fbff3a00bd
:103bd4001e00fb00201188000080fa00000006008f
:103be4001600fa00f400470080487800612d29008f
:103bf40010000900315f78001e01b1007400470015
:103c0400104078000080fb004400de000040780093
:103c14000080fb006f0060000000470090407800c7
:103c24007100470001487800740047001040780094
:103c34000080fb006f0060000000470090407800a7
:103c440072004700014878008040eb007300470091
:103c540001487800710047002e0007000080fa0038
:103c6400000006001800fa00f600470080087800fb
:103c7400612d290010000900315f78001e01b10098
:103c840076004700100078004c00de00000047007a
:103c940090407800710047000148780076004700a2
:103ca400100078004800de006f006000000047004c
:103cb4009040780072004700014878007600470081
:103cc400100078004400de006f0060000000470030
:103cd4009040780073004700014878007600470060
:103ce400100078006f0060000000470090407800ea
:103cf40074004700014878008040eb0075004700dd
:103d04000148780071004700020007000080fa00b3
:103d1400000006000200fa00000f780004003700db
:103d24001e007800104078001e0fe800a0ff070076
:103d34001e007800104078000004e000f8ff3a000c
:103d44000080fa00000006000a00fa00881f7800cc
:103d5400660147000089be0018c0b3006600470032
:103d64006011b80090009000100078005ef2070027
:103d74000000e000010035000044eb000804e0000e
:103d840008003200d0c2b30089ff07006600470074
:103d9400900090001000780001f0a2006601470036
:103da4000089be0066004700900090001000780073
:103db40051f20700000f78001e007800cf80de006b
:103dc4006ef20700660247000001be00140078008e
:103dd4009400900083f2070002002000832c24004a
:103de4004df407000200200003f0230086f20700d0
:103df40041f207000e81e800000978000e80e80017
:103e04009000780030062000808f500004003400b9
:103e14001e0fe8008000eb000e80e8000108780027
:103e24001e0078000000e00003003a0000c3b30065
:103e34005fff0700310037008000eb00640047009b
:103e4400010878001a0037009e007800a0002000c6
:103e540000017800110009008200d8008000fd00f4
:103e6400004078000043b000804078002002210028
:103e74006401470012017800020040000148780004
:103e840064004700100078008000e80064004700e8
:103e9400010878001e017800706626000090b900c1
:103ea400c288de004f90de0000805000000f7800d2
:103eb4001e0078000000e000e3ff3c000b00370028
:103ec40064004700100078008000e90064004700a7
:103ed4000108780020022100e400470091007800e6
:103ee400010040001040780031ff070064004700e3
:103ef400100078000000e000f1ff3c00e0c2b300d5
:103f04002bff07000e80e800100178007066260081
:103f14000090b900c288de004f90de00008050009f
:103f2400004078000043b00021ff07000e80e80045
:103f340090007800706626000089b9004299de007e
:103f44004f88de0000005100ea00b90000805000f4
:103f5400004078000043b00015ff07004f047800cc
:103f64000080fa00000006000200fa00004f78000a
:103f74001e80fb00601088000000000020108000fc
:103f8400610060000000e000fcff3a0081000700cf
:103f94002110800000002800008060000000e00084
:103fa400020032000080eb00010037000000eb004b
:103fb4000080fa00000006000200fa00004f7800ba
:103fc4000062a8000000000000108000680060008b
:103fd4000000e000fcff3a001e4078000004e0000e
:103fe400020032000040eb000100370010c0b300b3
:103ff4000080fb00610060004500dd0001108000ce
:104004000150a10001007000001088000082a80087
:104014000000000000108000700060000000e0005c
:10402400fcff3a0070108000004078000080fa0025
:10403400000006000400fa00702e290035ff070076
:1040440080c0b300004f7800260037001e4078007f
:10405400804040000e00e800014878005a00070044
:104064000004a2000004e000020032006100070026
:104074001b0037000e00e8001040780073000700b2
:104084008e80e800804878005a0007000e80e8001f
:10409400104078000004e00011003200b02f290025
:1040a4001cff07001e407800cdfe07006030290089
:1040b40018ff07000e00e80010407800c8fe070053
:1040c400d030290013ff07000e00e80010407800ec
:1040d4000004a000c2fe0700403129000dff0700c4
:1040e4001e4fe80070c7b3009e40780080cf500098
:1040f400d6ff36008031290006ff07000080fa0051
:10410400000006000200fa0001e2a90014aea900b2
:1041140018aea80014cea9000040eb00004f7800b0
:104124000700370018cea900803e200074fe070067
:1041340018cea800803e200071fe07001e4fe80044
:104144001e407800e84f5000f6ff36001e000700be
:104154002800070001e2a90014cea80014aea800ac
:104164000080fa00000006000000fa0001e2a90045
:1041740014aea80014cea800b01820005010880077
:104184000122a80000a2a90001e2a8000080fa0010
:10419400000006000000fa0000000000211080006a
:1041a40000002400008060000000e000fbff3a00f3
:1041b400001080007f0060000000e000f7ff3a007c
:1041c4000080fa00000006000000fa00f1ff07007a
:1041d4000002a800000000000010800061006000e0
:1041e4000000e000fcff3a0010c0b3000080fa00b9
:1041f400000006000000fa00e6ff07000042a800e5
:104204000000000000108000640060000000e00076
:10421400fcff3a0010c0b3000080fa000000060062
:104224000000fa00dbff07000022a80000000000e5
:1042340000108000620060000000e000fcff3a0013
:1042440010c0b3000080fa00000006000200fa006b
:10425400004f7800cfff07001e80fb00601088002d
:104264000000000020108000610060000000e000f9
:10427400fcff3a00c7ff070021108000000028005f
:10428400008060000000e000020032000040eb000b
:104294000100370010c0b3000080fa0000000600df
:1042a4000400fa008e80e80080487800b9ff070017
:1042b4000062a8000000000020108000620060007e
:1042c4000000e000fcff320070108000004f780016
:1042d400b0ff07000e80e800104078000004e00002
:1042e400020032000040eb000100370010c0b300b0
:1042f4000080fb00610060004500dd0001108000cb
:104304000150a10001007000001088000082a80084
:104314000000000000108000700060000000e00059
:10432400fcff3a001e4078000080fa0000000600fe
:104334000000fa0097ff070000a2a9000082a8006d
:104344000000000000108000700060000000e00029
:10435400fcff3a000080fa00000006000000fa00aa
:104364008cff070000a2a8000082a8000000000043
:1043740000108000700060000000e000fcff3a00c4
:104384000080fa00000006002601fa00f2fc070093
:104394001bfd0700ecfd070073ff070052fd07003b
:1043a400a4fd070071fd0700ddfa070000f0a70077
:1043b4000000ea000000e900cf00de006e004700c4
:1043c40001487800e0ca280052fe0700d7f9070028
:1043d4000000e00002003200c0cc28004dfe0700bf
:1043e4006e004700104078000004a2000004e000c2
:1043f4000300320050cf280046fe0700ffff3700bd
:1044040060d1280043fe07000000eb00000f780095
:104414000b0037001e00780080004000e0ba28003e
:1044240000804000900078001e00780000004000ea
:104434007a00400000004700010878001e0fe800e1
:10444400f00720009e007800808f5000f1ff3400b8
:10445400d0d228002ffe070011c0b3000e80e80060
:10446400014878007a004700a007b0008000780077
:10447400d0c3b3000bfc07000000e00003003200cf
:104484008040eb000e80e80001487800910720008e
:1044940064004700010878001400370064004700f6
:1044a4001000780000004000fa00470080804000bf
:1044b400640047001000780000407800f9fb070012
:1044c4000000e000040032008040eb000e80e800b1
:1044d400014878000a0037006400470010007800a3
:1044e4008000e80064004700010878006400470089
:1044f40090007800f0072000808f5000e7ff340020
:104504000e80e800104078000004a2000004e000df
:104514000300320040d52800fefd0700ffff3700ee
:1045240050d72800fbfd0700414424006007200009
:104534000e00400001087800616626008007200014
:104544000e004000010878007a004700eef80700ea
:104554008000780070004700010878007a00470066
:10456400f000470011087800f0d82800e9fd0700a2
:104574007000470010007800bafd0700a0da280098
:10458400e4fd07008bfb07000000e000030032009d
:10459400d0da2800dffd0700ffff370090dc280099
:1045a400dcfd070000de2800dafd070011c0b300bf
:1045b40066004700014878008000eb00680047006f
:1045c400010878001b0037006800470010007800dd
:1045d400000040007a00400000004700900078008e
:1045e4006800470010007800004078000cfc0700c9
:1045f4000000e0000a003200680047001000780064
:104604000040780076fd0700a0da2800c1fd07000d
:104614008040eb0066004700014878000a0037003c
:1046240068004700100078008000e8006800470038
:104634000108780068004700900078008007200097
:10464400808f5000e0ff340066004700104078007f
:104654000004a2000004e0000300320080e028000f
:10466400acfd0700ffff3700e0e22800a9fd0700ca
:10467400f0e42800a7fd07005000200011fd07000a
:10468400c0e72800a3fd070011c0b3006a0047007b
:10469400014878008000eb006c00470001087800b6
:1046a400530037006c004700100078000040780089
:1046b400a11120008e8040007afb07000000e0007a
:1046c4000c00320080e9280092fd07006c004700ce
:1046d400100078000040780041fd0700a0da2800af
:1046e4008cfd07008040eb006a0047000148780019
:1046f4004400370070ec280086fd07006c0047007a
:10470400100078000040780035fd070000ee280016
:1047140080fd07006c004700100078000000400096
:104724007a00400000004700100078004dfd0700ab
:10473400d0ee280077fd0700a01120000e004000f5
:104744001000780047fd07006c0047001000780057
:10475400000040007a00400000004700900078000c
:10476400a01120000e00400010007800808f50003f
:104774001a00320090ef280066fd07006c00470025
:10478400100078000040780015fd070000ee2800b6
:1047940060fd07006c004700100078000000400036
:1047a4007a00400000004700100078002dfd07004b
:1047b400d0ee280057fd0700a01120000e00400095
:1047c4001000780027fd0700a0da280051fd07003b
:1047d4008040eb006a004700014878006c00470005
:1047e400100078008000e8006c00470001087800a1
:1047f4006c0047009000780080072000808f5000f4
:10480400a8ff34006a004700104078000004e0006c
:1048140003003200a0f028003efd0700020037002c
:1048240020f228003bfd0700a0f3280039fd070013
:104834000cf90700ecf907000000e0000300320067
:1048440050f6280033fd0700ffff3700b0f82800ba
:1048540030fd0700a0fb28002efd070011c0b300a7
:1048640072004700014878002023a800a00020001f
:10487400a3fc07002023a900000000000019800009
:10488400610060000000e000fcff3200740047009b
:1048940001188000010878007400470010007800b7
:1048a4004800de0000407800ef40600076004700da
:1048b4000148780074004700100078004400de00ce
:1048c40000407800ef40600077004700014878001e
:1048d400740047001000780000407800ef4060004a
:1048e40078004700014878007200470010407800c3
:1048f4000080fb00cc00dd0076004700104078000b
:104904000080fb004800dd00810070007700470054
:10491400104078000080fb004400dd00810070003e
:1049240078004700104078000080fb000100700010
:10493400b02888001425ef00c01120000e004000ac
:104944008000780010c0b300eff9070021122000a6
:104954008e804000e01120000e004000610007003e
:10496400b0808000c18080000001780061004000b8
:10497400e0804800b0808800c18088000200780090
:10498400b8fc070030002900e2fc0700e011200019
:104994000e0040009000900010007800eafc070030
:1049a400f0002900dbfc0700201220000e0040006c
:1049b4009000900010007800e3fc0700a00129009b
:1049c400d4fc0700c01120000e0040001000780045
:1049d400a4fc070040032900cefc0700b028800097
:1049e400a0fc0700a0da2800cafc0700200320006e
:1049f40034fc070099ff37000800fa0064014700ff
:104a040000097800660047000148780000c0eb0008
:104a1400004f78008040eb000e00e8000148780069
:104a2400270037000e00e800104078000080fb00eb
:104a3400e4004700910078000080400010407800b6
:104a44001e4f68008040eb000e80e80001487800ab
:104a5400120037001e4078000004e00007003d000b
:104a64001e80fb00000040008040780010c3b300ab
:104a740000c06800004f7800030037001e40780033
:104a840000404000004f78000e80e800104078009d
:104a94008040e8000e80e800014878000e80e800bd
:104aa40010407800e74f5000eaff36000e00e8009f
:104ab400104078008040e8000e00e80001487800cb
:104ac4000e00e8009040780066004700104078002f
:104ad40080cf5000d3ff39001e4078000080fa00d8
:104ae400000006001000fa00881f78006c014700df
:104af400000978006e00470001087800b2fd070045
:104b04000004a2000004e000020032000040eb00b8
:104b14009d003700a0c8b300ccfd07000004a2002c
:104b24000004e00003003200b2fd07000040eb0087
:104b340095003700d0cfb300c4fd07000004a200e5
:104b44000004e00003003200aafd07000040eb006f
:104b54008d003700a7fd070020002000d9fb0700c7
:104b640099fd07000004a2000004e00002003200e6
:104b74000040eb0084003700b0c8b300b3fd070069
:104b84000004a2000004e0000300320099fd0700c5
:104b94000040eb007c0037000000eb00000f7800c1
:104ba4000700370010c0b300bdfd07001e017800e8
:104bb400e600410081004700804878001e0fe800ad
:104bc4001e007800e40f5000f6ff34000040eb00b4
:104bd400b3fd0700eb0047008048780085fd07001f
:104be4006600470021c0b30083ff0700e8004700c8
:104bf40091407800814f5000020032000040eb00e9
:104c040061003700660047006300400021c0b30024
:104c140079ff0700eb00470091407800814f500076
:104c2400020032000040eb005700370066004700e6
:104c3400104078000080fb00c800dd0067004700da
:104c4400104078000080fb00810070000e80e800b6
:104c54000108780069004700104078000080fb00dc
:104c6400c800dd006a004700104078000080fb00a7
:104c74008100700064004700010878000e80e8009d
:104c8400100078008000eb00bfee070002f02f0058
:104c9400f3772400c1ef070002002000f332240060
:104ca4009df007000200200043232400cdee0700fe
:104cb4006c014700120178000089be0064004700bf
:104cc400100078008000eb00afee070002f02f0028
:104cd400f3772400b1ef070002002000a32f240083
:104ce4008df0070002002000030c2400bdee070035
:104cf4006e014700120178000089be006e00470073
:104d040010007800900090001000780018c0b300e4
:104d140002002000832c240075ee07000000e00050
:104d240001003c000044eb000804e00005003200f0
:104d34006e0047001001780000002000812c240040
:104d44000089be006e0047001000780090009000bb
:104d54001000780018c0b3006011b80062ee0700bc
:104d64000000e000010035000044eb000804e0000e
:104d7400040032006e004700100178006000b800a3
:104d84000089be0010c0b3004f0478000080fa0010
:044d94000000060015
:020000040000fa
:104d98002e10000006000000800000000010000037
:104da8001600000080000000161000000a00000035
:104db8008200000001000000003200007b141f0088
:104dc80042000000221000000c00000080000000db
:104dd8002010000002000000800000000000000019
:020000040000fa
:020000040002f8
:04af3000fbff000023
:020000040000fa
:020000040002f8
:04af38007dff000099
:020000040000fa
:020000040002f8
:04af40009fff00006f
:020000040000fa
:020000040002f8
:04af4800feff000008
:020000040000fa
:020000040002f8
:04af5000ffff0000ff
:020000040000fa
:020000040002f8
:04af7800feff0000d8
:020000040000fa
:020000040002f8
:04af8000ffff0000cf
:00000001FF
