:020000040000fa
:080000000002040000000000f2
:020000040000fa
:040008005803000099
:020000040000fa
:04000c005803000095
:020000040000fa
:040010005803000091
:020000040000fa
:04001400580300008d
:020000040000fa
:040018005803000089
:020000040000fa
:04001c005803000085
:020000040000fa
:040020005803000081
:020000040000fa
:04002400580300007d
:020000040000fa
:040028005803000079
:020000040000fa
:04002c005803000075
:020000040000fa
:040030005803000071
:020000040000fa
:04003400fa020000cc
:020000040000fa
:040038005803000069
:020000040000fa
:04003c005803000065
:020000040000fa
:040040005803000061
:020000040000fa
:0400440012030000a3
:020000040000fa
:040048002a03000087
:020000040000fa
:04004c005803000055
:020000040000fa
:040050005803000051
:020000040000fa
:04005400580300004d
:020000040000fa
:040058005803000049
:020000040000fa
:04005c005803000045
:020000040000fa
:040060005803000041
:020000040000fa
:04006400580300003d
:020000040000fa
:040068005803000039
:020000040000fa
:04006c005803000035
:020000040000fa
:040070005803000031
:020000040000fa
:04007400580300002d
:020000040000fa
:040078005803000029
:020000040000fa
:04007c005803000025
:020000040000fa
:040080005803000021
:020000040000fa
:04008400580300001d
:020000040000fa
:040088005803000019
:020000040000fa
:04008c005803000015
:020000040000fa
:040090005803000011
:020000040000fa
:04009400580300000d
:020000040000fa
:040098005803000009
:020000040000fa
:04009c005803000005
:020000040000fa
:0400a0005803000001
:020000040000fa
:0400a40058030000fd
:020000040000fa
:0400a80058030000f9
:020000040000fa
:0400ac0058030000f5
:020000040000fa
:0400b00058030000f1
:020000040000fa
:0400b40058030000ed
:020000040000fa
:0400b80058030000e9
:020000040000fa
:0400bc0058030000e5
:020000040000fa
:0400c00058030000e1
:020000040000fa
:0400c40058030000dd
:020000040000fa
:0400c80058030000d9
:020000040000fa
:0400cc0058030000d5
:020000040000fa
:0400d00058030000d1
:020000040000fa
:0400d40058030000cd
:020000040000fa
:0400d80058030000c9
:020000040000fa
:0400dc0058030000c5
:020000040000fa
:0400e00058030000c1
:020000040000fa
:0400e40058030000bd
:020000040000fa
:0400e80058030000b9
:020000040000fa
:0400ec0058030000b5
:020000040000fa
:0400f00058030000b1
:020000040000fa
:0400f40058030000ad
:020000040000fa
:0400f80058030000a9
:020000040000fa
:0400fc0058030000a5
:020000040000fa
:0401000058030000a0
:020000040000fa
:04010400580300009c
:020000040000fa
:040108005803000098
:020000040000fa
:04010c005803000094
:020000040000fa
:040110005803000090
:020000040000fa
:04011400580300008c
:020000040000fa
:040118005803000088
:020000040000fa
:04011c005803000084
:020000040000fa
:040120005803000080
:020000040000fa
:04012400580300007c
:020000040000fa
:040128005803000078
:020000040000fa
:04012c005803000074
:020000040000fa
:040130005803000070
:020000040000fa
:04013400580300006c
:020000040000fa
:040138005803000068
:020000040000fa
:04013c005803000064
:020000040000fa
:040140005803000060
:020000040000fa
:04014400580300005c
:020000040000fa
:040148005803000058
:020000040000fa
:04014c005803000054
:020000040000fa
:040150005803000050
:020000040000fa
:04015400580300004c
:020000040000fa
:040158005803000048
:020000040000fa
:04015c005803000044
:020000040000fa
:040160005803000040
:020000040000fa
:04016400580300003c
:020000040000fa
:040168005803000038
:020000040000fa
:04016c005803000034
:020000040000fa
:040170005803000030
:020000040000fa
:04017400580300002c
:020000040000fa
:040178005803000028
:020000040000fa
:04017c005803000024
:020000040000fa
:040180005803000020
:020000040000fa
:04018400580300001c
:020000040000fa
:040188005803000018
:020000040000fa
:04018c005803000014
:020000040000fa
:040190005803000010
:020000040000fa
:04019400580300000c
:020000040000fa
:040198005803000008
:020000040000fa
:04019c005803000004
:020000040000fa
:0401a0005803000000
:020000040000fa
:0401a40058030000fc
:020000040000fa
:0401a80058030000f8
:020000040000fa
:0401ac0058030000f4
:020000040000fa
:0401b00058030000f0
:020000040000fa
:0401b40058030000ec
:020000040000fa
:0401b80058030000e8
:020000040000fa
:0401bc0058030000e4
:020000040000fa
:0401c00058030000e0
:020000040000fa
:0401c40058030000dc
:020000040000fa
:0401c80058030000d8
:020000040000fa
:0401cc0058030000d4
:020000040000fa
:0401d00058030000d0
:020000040000fa
:0401d40058030000cc
:020000040000fa
:0401d80058030000c8
:020000040000fa
:0401dc0058030000c4
:020000040000fa
:0401e00058030000c0
:020000040000fa
:0401e40058030000bc
:020000040000fa
:0401e80058030000b8
:020000040000fa
:0401ec0058030000b4
:020000040000fa
:0401f00058030000b0
:020000040000fa
:0401f40058030000ac
:020000040000fa
:0401f80058030000a8
:020000040000fa
:0401fc0058030000a4
:020000040000fa
:04020000580300009f
:020000040000fa
:04020400580300009b
:020000040000fa
:040208005803000097
:020000040000fa
:04020c005803000093
:020000040000fa
:04021000580300008f
:020000040000fa
:04021400580300008b
:020000040000fa
:040218005803000087
:020000040000fa
:04021c005803000083
:020000040000fa
:04022000580300007f
:020000040000fa
:04022400580300007b
:020000040000fa
:040228005803000077
:020000040000fa
:04022c005803000073
:020000040000fa
:04023000580300006f
:020000040000fa
:04023400580300006b
:020000040000fa
:040238005803000067
:020000040000fa
:04023c005803000063
:020000040000fa
:04024000580300005f
:020000040000fa
:04024400580300005b
:020000040000fa
:040248005803000057
:020000040000fa
:04024c005803000053
:020000040000fa
:04025000580300004f
:020000040000fa
:04025400580300004b
:020000040000fa
:040258005803000047
:020000040000fa
:04025c005803000043
:020000040000fa
:04026000580300003f
:020000040000fa
:04026400580300003b
:020000040000fa
:040268005803000037
:020000040000fa
:04026c005803000033
:020000040000fa
:04027000580300002f
:020000040000fa
:04027400580300002b
:020000040000fa
:040278005803000027
:020000040000fa
:04027c005803000023
:020000040000fa
:04028000580300001f
:020000040000fa
:04028400580300001b
:020000040000fa
:040288005803000017
:020000040000fa
:04028c005803000013
:020000040000fa
:04029000580300000f
:020000040000fa
:04029400580300000b
:020000040000fa
:040298005803000007
:020000040000fa
:04029c005803000003
:020000040000fa
:0402a00058030000ff
:020000040000fa
:0402a40058030000fb
:020000040000fa
:0402a80058030000f7
:020000040000fa
:0402ac0058030000f3
:020000040000fa
:0402b00058030000ef
:020000040000fa
:0402b40058030000eb
:020000040000fa
:0402b80058030000e7
:020000040000fa
:0402bc0058030000e3
:020000040000fa
:0402c00058030000df
:020000040000fa
:0402c40058030000db
:020000040000fa
:0402c80058030000d7
:020000040000fa
:0402cc0058030000d3
:020000040000fa
:0402d00058030000cf
:020000040000fa
:0402d40058030000cb
:020000040000fa
:0402d80058030000c7
:020000040000fa
:0402dc0058030000c3
:020000040000fa
:0402e00058030000bf
:020000040000fa
:0402e40058030000bb
:020000040000fa
:0402e80058030000b7
:020000040000fa
:0402ec0058030000b3
:020000040000fa
:0402f00058030000af
:020000040000fa
:0402f40058030000ab
:020000040000fa
:0402f80058030000a7
:020000040000fa
:0402fc0058030000a3
:020000040000fa
:04030000580300009e
:020000040000fa
:040304003c030000b6
:020000040000fa
:040308005803000096
:020000040000fa
:04030c005803000092
:020000040000fa
:04031000580300008e
:020000040000fa
:100400008f0321000eff22000e0188000000000073
:10041000000020000000e000020032000001200087
:100420002002880014000700a30007000000e0007d
:1004300003003a000078220001002000020037008b
:100440000000200001002000810f70000100320038
:100450000f000700000020000000e0000200320052
:100460000000020000000000c423020000000000a1
:100470000040da000000fe00e07120000000e00013
:1004800002003200002020009001880000000600d9
:10049000a1028800800478000000eb001f003700f4
:1004a000e284440054a0b4009905ba00e2844400f8
:1004b00054a0b4009906ba00e284440054a0b400e9
:1004c0000006eb00476fde00fd07b200ae018800ba
:1004d000636ce10003003a000ad801000000eb0061
:1004e0000e003700606ce10008003a00004deb00a0
:1004f0000a05e800020039003420ec000af0a000f0
:100500008b05e900f9ff3e00040037006168e10057
:10051000010032000086eb000b00070019c7ba008b
:100520000e04e0001905ba0003003a000a00e000da
:10053000dbff3a0000000600fe07b200ae028800b2
:100540008a047800f5ff37000cd0a300e20f4d00bd
:100550001c003b0089027800354dba000a05e8000e
:10056000020039003420ec000af0a0008b05e900fd
:100570000f003200254dba000a05e80002003900dc
:100580003420ec000af0a0008b05e90008003200de
:100590000c00e0000600320015cdba000a05e800a4
:1005a000020039003420ec000af0a0008b05e900bd
:1005b0008984e80054a0b4000b00e000e2ff3a0098
:1005c000000006009902ba00055d78008b05e9007d
:1005d000f7ff3200c82ade00055d78008b05e900d0
:1005e000f3ff32000c00e000f1ff320019ddba0029
:1005f000eeff3700809fbe000000fa000080800000
:100600001180800061004000e08048000080880088
:10061000118088000068a9000080fa004f00be0029
:1006200000400600809fbe000000fa00208080008d
:100630003180800061004000e08048002080880018
:100640003180880000e8a9000080fa004f00be0059
:1006500000400600801f78000000fa000108a90091
:1006600013e1a90010c0b30008f0b7000080fa0041
:100670004f007800004006003200f8003400f80017
:10068000881f780018002000a8018800082020009a
:1006900008d0fe004f0478000000fa0016e8a90018
:1006a0000080fa003400f9003200f9000040060032
:1006b0000040da000000fe000000050014002000e9
:1006c000ad033700f4ff2f00ab0337000001be007d
:1006d0003f0007000470a70003f0a1006509b10006
:1006e000160032000d0035006828e10006003500d4
:1006f000f0ff2f00f1ff27000300e00013003b0094
:100700000100280000000500000040008180480032
:100710008502e900fcff3a0008003700f88f42002c
:1007200002003c008000eb00000005008100d100c9
:100730000080d3008502e800fcff3a000300e000df
:1007400002003b0060001000e0801800000006007e
:100750000001be001e0007000470a70003f0a10006
:1007600003f8a30013003a006509b100100032003d
:10077000090035006928e100020035000100280069
:100780000000050000004000818048008502e9006b
:10079000fcff3a0000000600f88f4200050035001b
:1007a0008100d1000080d3008502e800fcff3a0000
:1007b000000006008000eb00000005004f89de000d
:1007c00082017800870337006011b8009503370075
:1007d000c70ade00f107b200f50fb20008003200d0
:1007e000e1cf4200020032000170a00024000500a9
:1007f000810f70000100320004080500440005006c
:10080000810f700002003a00140005008502e90023
:100810000000400081c04800fcff3b000170a000c8
:100820002400050007f82700078361000638e1006f
:1008300004003a00f70720008783610087037100f6
:1008400001003a0003f0a200889fbe008a9fbe000c
:100850008c9fbe00470ade000480a100c71ade009c
:100860000580a100070028000785600087856100da
:10087000f70f20000720e1009e0032000728e1006a
:100880009c003200010678000400e000b400320051
:10089000f7072000878060000170a0000500e000dd
:1008a000c0003200f7072000878161000370a000bc
:1008b000050652000f003a000b50e1000b00320019
:1008c0000308e10002003a000200e1007e0032006d
:1008d0000204500083845800040031000001fd0030
:1008e0008101fd008402fd008a05fd006044b8001e
:1008f000210037000520e10005003d000001fd005a
:100900008101fd008402fd008a05fd0005065200fc
:100910007a60e100050035000170a1004722dd008a
:10092000848070008a807000630037006044b800e3
:10093000ef02660007ff2f00070666000500e000d3
:1009400006003400f08312008714dd000511de007c
:10095000071bdd00060171008519de007060e100f3
:10096000050035000904780082047800030178004e
:100970008001eb00700656000b50e10003003a00c6
:100980000200400083804800040037006004140027
:10099000e0841c0002005800838058000188a300f6
:1009a000060032008100d1000080d3008984d3008a
:1009b0000884d3000402e800270037000178a30070
:1009c00025003a000100e000030032008186cf00dc
:1009d000698656000a0037008c0020000000e00005
:1009e00004003a0009007800880478000004eb0055
:1009f000700252008086cf000d0646000c06e9000a
:100a00007060e10006003500800078000900780081
:100a1000880478000004eb00700656007002520053
:100a20000c00e0000c0034008c08dd00f003160020
:100a30000703de00868070000c00dd00074bde003f
:100a4000060070008c4cdd000743de0086847400d5
:100a50000c44dd000c0252006120e1002000350052
:100a6000610160000700280087816400f7ff27000c
:100a700087836400070374000300e000060032006f
:100a800082037300040032000000e800e0804800a8
:100a90000188a3000e003a00f70f20000720e100b4
:100aa0004a003d000170a1004722dd008100720074
:100ab0008a8070000000be004f06be004f05be00d9
:100ac0004f04be00000006006000b800faff3700c7
:100ad0008100d1000080d3000402e800eeff37005f
:100ae0000401780089017400a10107008a80700068
:100af000f1ff3700f7010700070278000001fd0051
:100b00008101fd00f3010700870278008503720070
:100b10000778a300040032000001fd008101fd0000
:100b200006020700e4ff3700850362000768a300a0
:100b3000080032000b50e10003003200f0ff2f00ec
:100b4000f1ff2700dcff37000001fd008101fd00ff
:100b5000d9ff37000468a300d7ff3200faff37003f
:100b6000f8ff2700888360000b003a000000e000d7
:100b700009003a008303640082837300020032009c
:100b80000200be00ccff37000b50e100ceff3a0060
:100b90000200be00c8ff370014002000810064007e
:100ba0003eff3700f8ff27008883610004003a0009
:100bb0000200e00002003a008c007800beff37001f
:100bc000150020008301640039ff370001f8270079
:100bd0000000200081007500b7ff3700889fbe002d
:100be0008a9fbe008c9fbe001b0020000202be0038
:100bf0000586680006002800060666004709de0034
:100c0000f20fb200820032000243e800800032009e
:100c1000c729de00f30fb2007d0032000343e80075
:100c20007b003200f107b2000170a000f507b200ae
:100c30000570a000c708dd004903de008680700053
:100c40004700dd00c72add004923de0086827200ee
:100c50004722dd000305510004035000858358003e
:100c60000300310000004000818048000a05e900cf
:100c70008c1f78008a9fbe000400500085805800b9
:100c80000402420085824a00000040008180480042
:100c90000005eb000004be006033b8000406be008f
:100ca0000d48e10056003100110009004dccd8007c
:100cb0000c01b8000d02b8008481410060824a0036
:100cc0008283530003045c0084845c0060055d0043
:100cd0000a00e00025003a00800578000d40e100a0
:100ce00049003100880078000700780011000900f1
:100cf0004d88d8000c01b8000d02b8008481410075
:100d000060824a006003110083835b0004045c007e
:100d1000e0845c000900e00021003a004f01be00c1
:100d20000300e0002b003200e301600007067300bf
:100d30008c81710001003200640070004200de000e
:100d40004e5edd000c007000c258de0001e0a00025
:100d500083010700cf017800818071004f06be003b
:100d60004f05be004f04be00000006008c83430008
:100d70000d044c00e0844c0060054d000000e900cb
:100d80000a00e000d4ff32008c8343000d044c00c5
:100d9000e0844c0060054d000000e900ceff370004
:100da0000c0343008d834b0060044c00e0844c0036
:100db0000000e9000900e000d8ff32000c03430006
:100dc0008d834b0060044c00e0844c000000e9007f
:100dd000d2ff37004200de004e5edd000c007000e6
:100de000c258de0001e0a000cf0178000300e0005f
:100df000daff320060001000e0801800d7ff3700f3
:100e0000f0ff2f00aaff3700f0ff2f00b9ff3700d7
:100e10000404be002f010700870678000004fd00cf
:100e20008104fd002b010700078366000678a300fc
:100e3000030032000960a7000800be002c00370044
:100e40000d78a300020032000800be002800370021
:100e50000778a30026003a0001f0a10009f0a100e4
:100e60000668a30003003200f1ff2700f0ff2f0007
:100e7000baff37000d68a300030032000800be006f
:100e80008c807000b5ff37000768a30007003a00a8
:100e90000648a30003003200f1ff2700f0ff2f00f7
:100ea000aeff37000d48a300030032006000b80019
:100eb0008c807000a9ff37000748a30004003200af
:100ec00001f82700000020008c807000a3ff37008d
:100ed000760107000004fd008104fd000205780092
:100ee000720107000802be008a01780059ff37002e
:100ef0000160a000120220002281880097ff3700c5
:100f00000100e000120032000500e0001000320095
:100f1000889fbe008a9fbe008c9fbe000006eb002b
:100f200001f8a3000300320060001000e080180008
:100f30000cf0a00005f8a3000300320060021200cc
:100f4000e0821a000cf0a2008005eb0041ff3700a0
:100f50006000b80002000500038368000700280055
:100f600007036300470ade000480a100c71ade0001
:100f70000580a100f70f20000720e10042003200a9
:100f80000728e10040003200889fbe008a9fbe0013
:100f90008c1f7800f107b200f307b2000400e000f4
:100fa000640032000170a0000500e000680032001b
:100fb0000370a00085054200eb07b1000204b800f1
:100fc0000302b8008484440060854a00020ab80025
:100fd000848444000a854a00030ab80004054500d9
:100fe000040033000804d0008984d2000a85d200ae
:100ff0008b05e9006158e1003d003500021020003a
:10100000090161000308200089816100f7072000c1
:101010008783640008867300c84cde00c853dd0077
:10102000878474004855de000300e00006003200ab
:1010300082037600040032008904e80060054d0058
:101040000a88a3000c003a00f70f20000758e100bf
:1010500044003d000a70a100c75ddd000a857500ef
:101060008a007300090078004f0678004f05be0023
:101070004f04be00000006000a05d1008984d30099
:101080008b05e800f0ff3700881f78000604780021
:1010900090000700070278000001fd008101fd00bb
:1010a0008c00070087027800850372000778a30090
:1010b000050032000001fd008101fd009f000700d6
:1010c0004f04780000000600850372000748a30063
:1010d00003003200f0ff2f00f1ff2700f8ff370078
:1010e0000000200001f8270088807000f4ff37001e
:1010f000880178004848dd00808171004848de00a2
:10110000c850dd0001007000c850de000604780001
:101110000b0178001600070088807000d2ff3700ae
:101120000500e00005003200170020003a0007002b
:101130009dff370081037000f9ff3a0086007800b8
:101140004f0678004f05be004f04be0000000500aa
:1011500083037100f9ff3200270020002e000700f2
:1011600094ff370001f8270086807000f4ff3700f5
:101170000100e00026003200610111007810e1005a
:1011800023003c006022b8007010e100040035002c
:1011900080027800010078008000eb0070015100af
:1011a0000200e0000900340070031100062add008f
:1011b000822ade008603dd00878272000200de00e4
:1011c000860bdd00070070008208de00848171005c
:1011d000f4ff27000482620084817100040028006b
:1011e000848262006102600005f0a6000000060033
:1011f00004827100070032000000e800e08048002f
:10120000000006000002be006000b800efff3700db
:101210006000b80000000600889fbe000004eb00dc
:101220006138e10016003a000100e00008003a00d1
:10123000c800de004800dd00880020000100e0005a
:1012400003003a00c800de004800dd0068044400e6
:101250008184cf00e9845400060034008908dd0051
:10126000f08314008703de00878070000900dd0032
:1012700009044400610214004f04be00000006008f
:101280000300e00008003a00c811de004811dd004c
:10129000880020000300e00003003a00c811de00cf
:1012a0004811dd00680444008384cf00e9845400c1
:1012b000060034008919dd00f08314008713de0076
:1012c000878171000911dd0009044400e102140066
:1012d000e9ff37002700200001f0a70017002000d9
:1012e000470bde00f60fb200040032000643e800b0
:1012f0000a0032004702b300000006000103780034
:10130000f607b2000603700002003a000703b300bc
:10131000000006008702b300000006000103780009
:10132000f607b20006037000020032000770a0004a
:10133000000006000760a000000006000478a3007b
:10134000040032000578a300030032000168a30006
:1013500001003a000200be000160a000000006008b
:1013600081017000270032008002eb0001f8a30029
:101370000300320060001000e0801800150020001b
:10138000f40720000202420020003400f70320008e
:1013900087036000060420000003630002082000a9
:1013a000000161004700de00c909dd000080710016
:1013b000c708de000600e000080032008703710065
:1013c000060032001000b0000180b0000188a300c8
:1013d00002003200c108de000402e800f107b2009a
:1013e000f30f20000320e10003003d004722dd0051
:1013f000810072002900370001f827000000eb008f
:10140000260037006000b8000000060068021200e5
:101410007f20e100020034006000b8001f003700a8
:101420006011b8007020e1000400350080017800f0
:10143000010078008000eb00700252000400e00020
:1014400009003400f00312000719dd008419de00e2
:101450000703dd00868171000400de00070bdd005c
:10146000060070008408de00f7ff27008383630016
:1014700087037100060028000303630007003200a1
:101480000700e00003003a00610160000281730080
:10149000020032001000b0000180b0000500a6007c
:1014a0000000060001f0a000000006004f0ade0068
:1014b0004709de00f107b200f20fb2000b00320064
:1014c000f207b1000170a000c708dd00c901de000d
:1014d000838070004700dd000400a60000000600c5
:1014e00060001000e080180000000600810f70000e
:1014f00001003a00000006008182cf000500e000f4
:1015000010003e008082cf00ee8242007028e10091
:101510000400390007003e00800078000000eb0066
:101520000e003700708312008600de000500dd002b
:101530000a003700708352008600dd000000eb00d7
:1015400006003700e28252008508dd007083120039
:101550000603de00868070000500dd007507b00020
:101560000501ea000400a60000000600600010006b
:10157000e080180000000600889fbe008a9fbe0021
:10158000841f78007c0007004f00780011003300b2
:10159000f0ff2f00838f6c0006003b000405650000
:1015a0000a00a7000800370009f0a600100020007c
:1015b00008003700820f5400838f5c00030039005d
:1015c0001000200001003e000000200009f0a700ec
:1015d0000000ea004f05be004f04be000000e0001e
:1015e00000000600881f7800030478000300e00074
:1015f00007003d0060001000e08018006001190045
:10160000e081190002003b0001f02d0003003700cb
:101610000400070008f0a70001f0a0004f047800c4
:1016200000000600889fbe008a9fbe0000827000f6
:101630000402710004827100260032000004be0022
:101640000200be006011b8006b0920009502200066
:101650000182cf000a0039000541b1000082cf00ad
:10166000070039000541b1000982cf0004003900ac
:101670000541b1000882cf00010039000541b100e9
:1016800005425200120032000a003b0082817100c4
:10169000610164008100d1000080d3008984d300ff
:1016a0000884d3008b05e8000442e800f7ff3a0005
:1016b000070037000804440089844c0000004800fb
:1016c000818048008b05e9000442e900f9ff3a00f7
:1016d000030007004f05be004f04be0000000600d7
:1016e00081002000618055000b003d000b002000b0
:1016f00061fe2f000100e1001d00340082817100b5
:10170000610164008904d1000884d3000000e8006e
:10171000faff3a00710020006100640003007000cd
:10172000020060000900320061044400e0844c00c3
:101730000988a500050032008b05e8006808e10073
:1017400002003a008904d1000884d300f20f20007f
:101750000258e10005003d00c75ddd00f907b20059
:101760008980750008007800000006000bf827004b
:101770008b007800000005000004be0014fc070088
:101780000003be000405be000200be0010fc0700fe
:08179000844f75000000060003
:020000040000fa
:1017980008c000008608000022a00000a261000026
:1017a80010a000000008000000000000f0c10000c8
:1017b800fa8000000854000000000000000000004b
:1017c80010060000403700001086000000040000ea
:1017d800e14d0000801d00009a5f00000315000025
:1017e80026150000ffff000003000000b000000005
:1017f80000000000000000000040000000000000a1
:1018080002000000080000000000000000000000c6
:10181800ff7f00000200000005000000000000003b
:101828000000000000000000000000000040000070
:1018380047b80000960000009700000000ff000075
:10184800001000000100000098580000486c0000db
:1018580000000000010000000080000000fc000003
:1018680000f000000010000000800000ff7f000072
:1018780000040000ff7b0000003000000069000049
:1018880003510000ad170000000000000000000038
:101898000000000000000000000000000000000040
:1018a8000000000000000000000000000000000030
:1018b8000000000000000000000000000000000020
:1018c800000000009c580000051800009a5800000d
:1018d800041800008be200001d3e000086e20000b4
:1018e8001d3c0000a458000002180000a098000049
:1018f8001718000098d800000318000000440000e2
:10190800023a0000787600000018000010b40000c9
:10191800008600000038000044020000a298000081
:10192800151800009ed800001918000007ca00000a
:101938000632000092ba000021460000002a00008a
:101948001740000091120000902e00008022000035
:10195800162e00001f1200001e2c000000040000bc
:10196800162a000000000000012c0000865200002a
:10197800005000000000000000000000000000000f
:1019880028140000bc1d000000000000000000003a
:10199800721500008608000022a00000a261000065
:1019a80010a000000008000000000000f0c10000c6
:1019b800fa80000008540000000000000000000049
:1019c8001086000000040000100e000040370000e0
:1019d800e14d0000801d00009a5f00000315000023
:1019e80026110000ffff000003000000b000000007
:1019f800000000000000000000400000000000009f
:101a080002000000080000000000000000000000c4
:101a1800ff7f000002000000050000000000000039
:101a2800000000000000000000000000004000006e
:101a380047b80000960000009700000000ff000073
:101a4800001000000100000098580000486c0000d9
:101a580000000000010000000080000000fc000001
:101a680000f000000010000000800000ff7f000070
:101a780000040000ff7b0000003000000069000047
:101a880002510000b0170000000000000000000034
:101a9800000000000000000000000000000000003e
:101aa800000000000000000000000000000000002e
:101ab800000000000000000000000000000000001e
:101ac80000000000000000009c58000005180000fd
:101ad8009a580000041800008be200001d3e000028
:101ae80086e200001d3c0000a45800000218000017
:101af800a09800001718000098d8000003180000ec
:101b080000440000023a0000787600000018000047
:101b18001034000000860000003800004402000075
:101b2800a2980000151800009ed80000191800009f
:101b380007ca00000632000092ba000021460000e1
:101b4800002a00001740000091120000902e0000ab
:101b580080220000162e00001f1200001e2c00001c
:101b680000040000162a000001000000002c0000fc
:101b78008652000000500000000000000000000035
:101b88000000000028140000bc1d00000000000038
:101b98000d0a00005379000073740000656d0000a1
:101ba800204900006e69000074690000616c000043
:101bb800697a0000656400002e0a000000530000e6
:101bc8007461000072740000696e000067200000f4
:101bd8005a530000534300003431000035310000ef
:101be800205200004157000020520000414d0000e3
:101bf8002052000065610000642000005465000068
:101c0800737400002e2e00002e0a00000a00000047
:101c1800202d00003e20000046610000696c000095
:101c280065640000207400006f200000656e0000ed
:101c38007465000072200000436f00006d6d0000a5
:101c4800616e0000642000004d6f000064650000b4
:101c5800210a00000a000000312e00002045000083
:101c68006e74000065720000656400002043000087
:101c78006f6d00006d6100006e640000204d000073
:101c88006f640000652e00000a000000322e00007c
:101c9800204300006c65000061720000696e00005e
:101ca8006720000073740000617400007573000001
:101cb800206600006c610000677300002e2e000093
:101cc8002e0a0000002000002d3e000020460000e3
:101cd800616900006c65000064200000746f0000fa
:101ce800206300006f700000792000004e5600004d
:101cf8004d200000746f0000205300006861000050
:101d0800646f000077200000524100004d21000060
:101d18000a0a0000003300002e200000436f000074
:101d28007069000065640000204e0000564d0000f8
:101d3800207400006f2000005368000061640000f8
:101d48006f77000020520000414d00002e0a00006d
:101d5800002000002d3e00002046000061690000c0
:101d68006c65000064200000746f000020730000a0
:101d7800656e00006420000053740000617200006a
:101d8800744d000065610000734300007963000032
:101d98006c650000206300006f6d00006d6100003d
:101da8006e640000210a00000a000000342e0000c2
:101db8002053000074610000727400004d6500003b
:101dc8006173000043790000636c00006520000027
:101dd800636f00006d6d0000616e000064200000fc
:101de800736500006e7400002e0a000000350000c4
:101df8002e20000043680000656300006b69000046
:101e08006e67000020460000494e0000414c00006b
:101e180020630000686900007020000073740000ef
:101e280061740000757300002e2e00002e0a000059
:101e3800003600002e20000052650000616400009a
:101e4800696e000067200000524100004d2000002c
:101e580064610000746100002e2e00002e0a00004c
:101e6800002000002d3e00002052000065610000a7
:101e78006420000053750000636300006573000070
:101e8800732100000a0000005b30000078000000a9
:101e98005d20000030780000002c000020200000a9
:101ea800002000002d3e0000205200006561000067
:101eb8006420000046610000696c00006564000051
:101ec800210a0000000d00000a0000004572000011
:101ed800726f0000723a000020460000616900003d
:101ee8006c65000064200000746f0000206700002b
:101ef8006574000020530000485400003478000046
:101f080020560000616c0000756500002e0d000071
:101f18000a00000029200000627200005f760000bd
:101f2800616c00003a200000002c000020540000e2
:101f3800656d0000703a000020000000204300009a
:101f48002c200000487500006d6900003a20000050
:101f580000200000252000002d3e00002053000036
:101f6800454e00005420000046720000616d0000dc
:101f7800653a0000203000007800000020200000b2
:101f8800507200006f62000065200000537400006a
:101f980065700000203100003a20000053740000f2
:101fa80061720000740d00000a000000202000008b
:101fb8002d3e000020460000414900004c4500002d
:101fc800440d00000a0000002020000050720000ac
:101fd8006f62000065200000537400006570000007
:101fe800203200003a200000577200006974000097
:101ff8006520000041640000647200006573000001
:10200800730d00000a000000202000002d3e000093
:1020180020460000414900004c45000044200000d3
:10202800284e0000414300004b2000006f72000062
:1020380020540000696d0000656f00007574000091
:10204800290d00000a000000202000005072000046
:102058006f62000065200000537400006570000086
:10206800203300003a200000577200006974000015
:1020780065200000436f00006d6d0000616e000078
:10208800640d00000a0000002020000050720000cb
:102098006f62000065200000537400006570000046
:1020a800203500003a2000005265000073740000db
:1020b80061720000740d00000a000000202000007a
:1020c800507200006f620000652000005374000029
:1020d80065700000203600003a20000057720000aa
:1020e800697400006520000052650000616400000a
:1020f80020410000646400007265000073730000f2
:102108000d0a00000020000020500000726f00003f
:102118006265000020530000746500007020000014
:10212800373a000020520000656100006469000031
:102138006e6700002062000079740000657300007b
:102148002e2e00002e0d00000a00000020200000a6
:10215800507200006f6200006520000052580000b5
:1021680020520000617700003a200000000d0000b6
:102178000a000000202000002d3e00002050000032
:10218800726f000062650000204f00004b210000c4
:102198000d0a000000200000202d00003e20000055
:1021a80046410000494c000045440000202800003a
:1021b80045630000686f0000206d0000697300002f
:1021c8006d61000074630000682900000d0a0000ba
:1021d800000d00000a2d00002d2d000020430000f6
:1021e80068650000636b0000696e000067200000ee
:1021f8005a530000534300003431000035310000c9
:102208002053000074610000747500007320000002
:102218002d2d00002d0d00000a00000020200000d8
:1022280046610000696c000075720000655300008b
:1022380074610000747500007320000028300000ed
:1022480078360000322900003a200000307800007b
:10225800002000003c2d00002d20000041700000ef
:10226800706c00006963000061740000696f000011
:102278006e20000045720000726f0000722000009e
:102288004465000074650000637400006564000024
:10229800210000002020000046610000696c000059
:1022a80065640000207400006f2000007265000063
:1022b8006164000020460000616900006c75000040
:1022c80072650000537400006174000075730000ab
:1022d800202800003078000036320000290d000068
:1022e8000a0000002020000049430000205300009d
:1022f800746100007475000073200000283000002d
:10230800783600003029000020200000202000003e
:10231800202000003a200000307800000020000053
:102328003c2d00002d20000046690000726d000061
:1023380077610000726500002f48000057200000f8
:1023480045720000726f00007220000044650000b2
:1023580074650000637400006564000021000000db
:102368002020000046610000696c000065640000e0
:10237800207400006f200000726500006164000096
:1023880020490000432000005374000061740000dd
:1023980075730000202800003078000036300000f7
:1023a800290d00000a0000002d2d00002d2d000031
:1023b8002d2d00002d2d00002d2d00002d2d0000ad
:1023c8002d2d00002d2d00002d2d00002d2d00009d
:1023d8002d2d00002d2d00002d2d00002d2d00008d
:1023e8002d2d00002d2d00002d0d00000a0d0000e0
:1023f8000a000000202d00003e2000004943000094
:102408002053000074610000747500007320000000
:102418002830000078360000302900003a200000fb
:1024280030780000002000002d3e0000204600000b
:10243800616900006c65000064200000746f000092
:10244800207200006561000064200000494300001c
:1024580020530000746100007475000073200000b0
:102468002830000078360000302900000d0a0000ee
:10247800002000002d3e0000204600006169000099
:102488006c75000072650000205300007461000044
:1024980074750000732000002830000078360000b2
:1024a800322900003a2000003078000000200000a7
:1024b8002d3e000020460000616900006c650000a8
:1024c80064200000746f0000207200006561000045
:1024d8006420000046610000696c0000757200000d
:1024e80065200000537400006174000075730000db
:1024f800202800003078000036320000290d000046
:102508000a0000003031000032330000343500008a
:1025180036370000383900004142000043440000cb
:1025280045460000004900003243000020730000c7
:10253800636100006e200000737400006172000087
:10254800742e00002e2e00000d0a0000002000004e
:1025580020410000434b00002040000020300000d4
:102568007800000020280000573d00003078000067
:10257800002c0000205200003d30000078000000d0
:10258800290d00000a000000493200004320000025
:1025980073630000616e0000206400006f6e00002d
:1025a800652e00000d0a0000000000000d07000065
:1025b8000a0e000003090000040100000c060000d8
:0c25c8000b0f00000208000005000000de
:020000040000fa
:1025d4000800fa0020fc2800b0060700c70707001f
:1025e4000004a2000004e00004003200a0fd280062
:1025f400aa0607000040eb006500370080fe2800b3
:10260400a606070000c5b300dd0707000004a2000a
:102614000004e00005003200800029009f06070046
:10262400c10707000040eb00590037008002290071
:102634009a060700c0c2b300d10707000004a20035
:102644000004e00005003200800029009306070022
:10265400b50707000040eb004d0037008004290057
:102664008e060700bb0707000004a2000004e00078
:1026740005003200a0fd280088060700aa0707000d
:102684000040eb00420037002006290083060700c3
:1026940010c5b300ba0707000004a2000004e0005c
:1026a40005003200800029007c0607009e07070011
:1026b4000040eb0036003700700829007706070059
:1026c40010c0b300c30707004047980010c0b30010
:1026d400c00707005047980010c0b300bd070700ab
:1026e400604798000040eb00ba0707007047980065
:1026f4008d070700a00a2900680607000000eb0008
:10270400000f7800070037009e00780064804000c6
:102714006e407800d205070000c2b300c40507006c
:102724001e0fe8001e007800e30f5000f6ff34008f
:10273400b00b2900590607000000eb0010079800b1
:102744000d0037001e00900064004000ee40780049
:10275400c0c2b30080cf500004003a00e00b29004f
:102764004e06070010c0b300090037001e00900099
:102774000000e800100798001e009000e30f5000ce
:10278400f0ff3400f00c2900440607000040eb0081
:102794000080fa00000006000600fa001007980006
:1027a400414798001e009000900078004e40900031
:1027b4000080fb004800dd00808068001e0090005f
:1027c400010878000000eb00000f780014003700c7
:1027d4001e009000100078000000e00009003d0099
:1027e4001e00900010007800000040008000780077
:1027f40010022100808068001e009000010878000b
:10280400060037001e009000100078000000400011
:10281400800078001e009000010878001e0fe80078
:102824001e007800e70f5000e9ff34000080fa0032
:10283400000006000800fa00300798000080eb0052
:102844002007980010002000000f780010003700c7
:102854001e00780000004000be0090000080400090
:1028640090007800110798001e0090004800de00d8
:102874008040780064004700c7ff07001e009000f6
:102884008040780064004700c3ff07001e0fe80083
:10289400800720009e007800808f5000ecff3400f9
:1028a4002e0090000080fa00000006000c00fa00e0
:1028b400004f980051079800100707000004a20079
:1028c4000004e000020032000080eb0050003700fa
:1028d40000c5b3002a0707000004a2000004e000ba
:1028e40003003200100707000080eb0048003700a7
:1028f4000e489000220707000004a2000004e00034
:1029040003003200080707000080eb004000370096
:10291400100707000004a2000004e00003003200d6
:10292400010707000080eb003900370010c5b30031
:10293400130707000004a2000004e00003003200b3
:10294400f90607000080eb00310037000000eb00bf
:10295400000f78000500370010c0b3001d07070002
:102964009e80e80000f778001e0fe8001e00780043
:10297400e30f5000f8ff34000040eb001507070098
:1029840060479800e80607000004a2000004e00085
:10299400020032000080eb001d0037003e40900032
:1029a4000080fb008000eb00c801dd000200200075
:1029b4004e4090000080fb008000eb00c000dd0072
:1029c4000000200000017100818171005e409000d0
:1029d4000082fb008002eb004828dd00c820de00f6
:1029e400810070004820dd000001710081817100c8
:1029f4006e4090000080fb008000eb00000071003e
:102a0400818071005e0190000089be000000eb002f
:102a14000080fa00000006000400fa0010c6b300ab
:102a2400004f780000c0eb001047980000c0eb0096
:102a340020479800b10607000004a2000004e0004b
:102a4400020032000080eb003900370000c5b300fb
:102a5400cb0607000004a2000004e00003003200db
:102a6400b10607000080eb00310037001e407800fb
:102a7400c30607000004a2000004e00003003200c3
:102a8400a90607000080eb00290037001e409000d3
:102a9400bb0607000004a2000004e00003003200ab
:102aa400a10607000080eb00210037002e409000b3
:102ab400b30607000004a2000004e0000300320093
:102ac400990607000080eb00190037001e409000b3
:102ad400ab0607000004a2000004e000030032007b
:102ae400910607000080eb00110037002e40900093
:102af400a30607000004a2000004e0000300320063
:102b0400890607000080eb000900370086060700ed
:102b14000004a2000004e000020032000080eb0088
:102b240003003700401f2000b10407000000eb0041
:102b34000080fa00000006000400fa00d00e29000c
:102b4400560507008e00780020c6b30057ff070023
:102b54000000e00015003a00201129004f0507008d
:102b64001e0078009e0090004008de0000007800ff
:102b7400d40407001e0078009e0090000000780036
:102b8400d00407001e0078009e009000e00f500063
:102b9400e08f580002003200d01229003f050700e0
:102ba400b00b29003d05070002003700e01429009e
:102bb4003a0507008e00780000c6b3003bff07000b
:102bc4000000e00015003a006017290033050700f3
:102bd4001e0078009e0090004008de00000078008f
:102be400b80407001e0078009e00900000007800e2
:102bf400b40407001e0078009e009000e00f50000f
:102c0400e08f580002003200301929002305070024
:102c1400b00b29002105070002003700401b2900e2
:102c24001e050700801d29001c0507000080fa000e
:102c3400000006000000fa00300607000004a200ad
:102c44000004e000020032000080eb00290037009d
:102c540000c5b3004a0607000004a2000004e00017
:102c640003003200300607000080eb00210037002b
:102c740020c7b300420607000004a2000004e000dd
:102c840003003200280607000080eb00190037001b
:102c940050cfb3003a0607000004a2000004e0008d
:102ca40003003200200607000080eb00110037000b
:102cb40020cab300320607000004a2000004e000aa
:102cc40003003200180607000080eb0009003700fb
:102cd400150607000004a2000004e0000200320010
:102ce4000080eb00030037001000200031040700cf
:102cf4000000eb000080fa00000006000000fa006b
:102d0400fe0507000004a2000004e00002003200f7
:102d14000080eb001900370000c5b3001806070057
:102d24000004a2000004e00003003200fe050700d6
:102d34000080eb001100370010c0b300100607003c
:102d44000004a2000004e00003003200f6050700be
:102d54000080eb0009003700f30507000004a2001f
:102d64000004e000020032000080eb0003003700a2
:102d7400500020000f0407000000eb000080fa0060
:102d8400000006000400fa0050c1b300004f7800b0
:102d9400b0c5230010079800d80507000004a2005e
:102da4000004e000020032000080eb002c00370039
:102db40000c5b300f20507000004a2000004e0000f
:102dc40003003200d80507000080eb002400370020
:102dd4001e407800ea0507000004a2000004e00099
:102de40003003200d00507000080eb001c00370010
:102df4001e0090004800de0000407800e005070057
:102e04000004a2000004e00003003200c60507002d
:102e14000080eb00120037001e0090000040780094
:102e2400d70507000004a2000004e00003003200fc
:102e3400bd0507000080eb0009003700ba05070054
:102e44000004a2000004e000020032000080eb0055
:102e54000300370010002000d60307000000eb0039
:102e64000080fa00000006000800fa0040479800bd
:102e74003107980040c2b300004f78009f05070057
:102e84000004a2000004e000020032000080eb0015
:102e94004900370000c5b300b90507000004a200cb
:102ea4000004e000030032009f0507000080eb00ef
:102eb400410037001e407800b10507000004a2005d
:102ec4000004e00003003200970507000080eb00d7
:102ed400390037000040eb00a90507000004a200f8
:102ee4000004e000030032008f0507000080eb00bf
:102ef400310037004e409000a10507000004a200f5
:102f04000004e00003003200870507000080eb00a6
:102f1400290037008f0507000004a2000004e00028
:102f240003003200800507000080eb002200370018
:102f340010c5b300920507000004a2000004e000dd
:102f440003003200780507000080eb001a00370008
:102f540010c0b3009f0507001047980010c0b300cd
:102f64009c050700204798000040eb0099050700e6
:102f7400304798006c0507000004a2000004e0003c
:102f8400020032000080eb000b0037002e4090005e
:102f94000080fb00c800dd003e4090000080fb0084
:102fa400810070003e009000010878004006200077
:102fb4008f0307000000eb000080fa000000060009
:102fc4000600fa00204798002107980050c2b30079
:102fd400004f7800490507000004a2000004e00047
:102fe400020032000080eb003c00370000c5b30053
:102ff400630507000004a2000004e000030032009f
:10300400490507000080eb00340037001e407800bb
:103014005b0507000004a2000004e0000300320086
:10302400410507000080eb002c0037000040eb0056
:10303400530507000004a2000004e000030032006e
:10304400390507000080eb00240037002e40900073
:103054004b0507000004a2000004e0000300320056
:10306400310507000080eb001c0037002e009000a3
:103074004800de0000407800410507000004a2007b
:103084000004e00003003200270507000080eb0085
:10309400120037002e009000004078003805070029
:1030a4000004a2000004e000030032001e05070033
:1030b4000080eb00090037001b0507000004a20094
:1030c4000004e000020032000080eb00030037003f
:1030d40020002000370307000000eb000080fa0006
:1030e400000006000600fa002047980031479800c7
:1030f400424798004e4090000080fb00670060004b
:10310400cc00dd003e4090000080fb006f006000ba
:103114004800dd00810070002e4090000080fb001c
:103124007f006000008f7000f40407000004a20018
:103134000004e000020032000080eb002a003700a7
:1031440000c5b3000e0507000004a2000004e0005f
:1031540003003200f40407000080eb002200370073
:1031640090c0b300060507000004a2000004e000bc
:1031740003003200ec0407000080eb001a00370063
:103184001e0078004800de0000407800fc040700c0
:103194000004a2000004e00003003200e20407007f
:1031a4000080eb00100037001e007800004078001b
:1031b400f30407000004a2000004e000030032004e
:1031c400d90407000080eb0007003700d60407008d
:1031d4000004a2000004e000020032000080eb00c2
:1031e400010037000000eb000080fa000000060038
:1031f4000a00fa00881f7800604798007147980019
:10320400420798007e4090000004e00002003a006b
:103214000000eb0057003700b80407000004a200c8
:103224000004e000020032000080eb00510037008f
:1032340000c5b300d20407000004a2000004e000ab
:1032440003003200b80407000080eb004900370097
:10325400e0c2b300ca0407000004a2000004e000b6
:1032640003003200b00407000080eb004100370087
:103274006e409000c20407000004a2000004e000b5
:1032840003003200a80407000080eb003900370077
:103294007e4090000040e900b90407000004a20049
:1032a4000004e000030032009f0407000080eb00ec
:1032b40030003700a70407000004a2000004e00067
:1032c40003003200980407000080eb002900370057
:1032d40010c5b300aa0407000004a2000004e00023
:1032e40003003200900407000080eb002100370047
:1032f40010c0b300b70407007e4090000080fb00bc
:1033040000004000100798000000eb00000f780058
:103314000d0037001e0090008000e90010c0b300cb
:103324009e8f500001003e000040eb004047980093
:103334004e0090001e0440004e409000a50407007b
:10334400004c78001e0fe8001e0090009e007800dc
:10335400808f5000efff3900730407000004a200bf
:103364000004e000020032000080eb00010037009e
:103374000000eb004f0478000080fa000000060013
:103384000400fa00100798001e0090008000eb0073
:103394000108780027fe07000000e0000200320068
:1033a4000080eb00290037002a0007000000e0003d
:1033b4000300320051fe07000080eb0023003700b9
:1033c4000041eb008040eb000040eb0045ff0700ac
:1033d4000000e0000300320048fe07000080eb001c
:1033e4001a00370020002000720207000e01780046
:1033f40011c0b30050c1b3007dff07000000e0001e
:10340400030032003dfe07000080eb000f00370090
:103414003afe07000000e000020032000080eb00ea
:103424000a0037001e4078000080fb00c800dd0061
:103434001e4090000080fb000100700080007800b6
:103444001e009000010878000000eb000080fa00e4
:10345400000006000000fa00280407000004a2008f
:103464000004e000020032000080eb001900370085
:1034740000c5b300420407000004a2000004e000f9
:1034840003003200280407000080eb00110037001d
:1034940080c1b3003a0407000004a2000004e00065
:1034a40003003200200407000080eb00090037000d
:1034b4001d0407000004a2000004e0000200320022
:1034c4000080eb0003003700401f20004802070083
:1034d4000000eb000080fa00000006000600fa007d
:1034e400881f7800204798003147980022079800e9
:1034f400020407000004a2000004e00002003200fd
:103504000080eb005700370000c5b3001c0407001f
:103514000004a2000004e0000300320002040700db
:10352400e0ff2f004f003700e0c2b300140407008f
:103534000004a2000004e00003003200fa030700c4
:10354400d0ff2f00470037002e4090000c040700e6
:103554000004a2000004e00003003200f2030700ac
:10356400c0ff2f003f0037003e4090000040e900bc
:10357400030407000004a2000004e000030032007a
:10358400e9030700b0ff2f0036003700f1030700fe
:103594000004a2000004e00002003200a0ff2f009b
:1035a4003000370010c5b300f50307000004a20083
:1035b4000004e00003003200db03070090ff2f004b
:1035c400280037000040eb00004f78001800370057
:1035d4001e80fb00ae0090000084400010c0b300c9
:1035e400fc030700004c78001e80fb000000e8008c
:1035f400ae009000008440009e80fb003e4090009e
:103604000080fb000000e90000004000008068002a
:1036140000f0a7000000ea000000ea004f00de000e
:1036240000407800eb030700004c78001ecfe80050
:103634009e80fb003e4090000080fb0000004000a4
:10364400808f5000e2ff3500b70307000004a2009a
:103654000004e0000200320080ff2f000100370068
:103664000000eb004f0478000080fa000000060020
:103674000c00fa00881f7800004f9800114f980042
:10368400520798009d0307000004a2000004e00014
:10369400020032000080eb005f00370000c5b30079
:1036a400b70307000004a2000004e0000300320096
:1036b4009d030700e0ff2f0057003700e0c2b3006e
:1036c400af0307000004a2000004e000030032007e
:1036d40095030700d0ff2f004f0037000e489000dd
:1036e4000080fb00c800dd001e4890000080fb0045
:1036f4000000e90001007000100798001e0090000f
:103704004880de00004078009d0307000004a2000a
:103714000004e0000300320083030700c0ff2f0011
:103724003d0037001e00900000407800940307001d
:103734000004a2000004e000030032007a03070042
:10374400b0ff2f0034003700820307000004a200fa
:103754000004e00002003200a0ff2f002e0037001a
:1037640010c5b300860307000004a2000004e000b3
:10377400030032006c03070090ff2f00260037007f
:1037840010c0b300930307001e4890000080fb00a4
:1037940000004000200798000000eb00000f7800b4
:1037a400120037002e0090000000e9001e0068009f
:1037b40000f0a7000000ea000000e9004f00de006e
:1037c400604798001e007800de00900000844000ee
:1037d4006e4090000004a2000080fb0000407800ce
:1037e4007c030700004c78001e0fe8002e009000b8
:1037f4009e007800808f5000eaff35004a030700de
:103804000004a2000004e0000200320080ff2f0048
:10381400010037000000eb004f0478000080fa003c
:10382400000006000000fa00340307000004a200b0
:103834000004e000020032000080eb0027003700a3
:1038440000c5b3004e0307000004a2000004e0001a
:103854000300320034030700e0ff2f001f0037008d
:10386400b0c0b300460307000004a2000004e00057
:10387400030032002c030700d0ff2f00170037008d
:103884000040eb003e0307000004a2000004e00037
:103894000300320024030700c0ff2f000f0037008d
:1038a4000040eb00360307000004a2000004e0001f
:1038b400030032001c030700b0ff2f00070037008d
:1038c400190307000004a2000004e0000200320013
:1038d400a0ff2f00010037000000eb000080fa0079
:1038e400000006000000fa00040307000004a20020
:1038f4000004e000020032000080eb0027003700e3
:1039040000c5b3001e0307000004a2000004e00089
:103914000300320004030700e0ff2f001f003700fc
:10392400e0c0b300160307000004a2000004e00096
:1039340003003200fc020700d0ff2f0017003700fd
:103944000040eb000e0307000004a2000004e000a6
:1039540003003200f4020700c0ff2f000f003700fd
:103964000040eb00060307000004a2000004e0008e
:1039740003003200ec020700b0ff2f0007003700fd
:10398400e90207000004a2000004e0000200320083
:10399400a0ff2f00010037000000eb000080fa00b8
:1039a400000006000400fa008e00780000c6b30090
:1039b400befb07000000e0000e003a00e01f2900f3
:1039c400b60107001e0078009e0090004008de004b
:1039d400000078003b0107001e0078009e00900064
:1039e4000000780037010700b00b2900ab01070085
:1039f4000200370070212900a80107008e0078001a
:103a040020c6b300a9fb07000000e0000e003a0046
:103a1400d0232900a10107001e0078009e00900019
:103a24004008de0000007800260107001e00780030
:103a34009e0090000000780022010700b00b2900ce
:103a44009601070002003700b02529009301070002
:103a54000080fa00000006000000fa006002200066
:103a6400303a8800213a800000fe2f000080600078
:103a7400203a8800213a8000f0f32f000080600093
:103a8400203a88003200200080072000a10920008d
:103a94003374200080497800814978008249780095
:103aa400103a8000000178000200a00060042000a9
:103ab4007105200023742000804978008149780032
:103ac4008249780000000000113a800000002700bd
:103ad4008080600000002300808f5000faff3a00cd
:103ae40000000000113a8000000220000080600005
:103af4000000e000fbff32000080fa000000060036
:103b04000000fa0040a7a9000430ef000630ef00df
:103b14000030ef000230ef0005e1a9000421a90004
:103b240004c1a900210880000003200001007000e6
:103b34002008880060892900100888000021ef000f
:103b440001428000f0ff2800808060000000230014
:103b540001007000004288000068a9002068a800e5
:103b640011e1a9001021a90010c1a9008108800059
:103b7400000320000100700080088800a06120007c
:103b8400600888000621ef0011428000f0ff280041
:103b94000080600000d0a0001042880000e8a90066
:103ba40020e8a80013e1a9001221a90012c1a9006c
:103bb40091088000f0fc2f00008060000040a0000d
:103bc400900888000a21ef000080eb00700888004c
:103bd4000108a9002108a80005e1a80011e1a80036
:103be4000080fa00000006000000fa00103a80008d
:103bf400000178000260a10060042000710520002b
:103c04002374200080497800814978008249780033
:103c14009133800000fc2f0080806000100320009e
:103c24000100700090338800103a80000001780091
:103c34000260a000600420007105200023742000ad
:103c44008049780081497800824978004f87a9002b
:103c5400713a8000f00f2f0000806000703a8800f5
:103c64004fe7a8000080fa00000006000000fa00f8
:103c7400156ea900c1338000f00f2c000080600095
:103c84000080a000c03388002002a9000111800038
:103c940090ff2f00008060000011880020a2a9007e
:103ca4002062a90011118000f0f32f000080600051
:103cb40010118800000420004011880021e2a800af
:103cc4002342a800100020003a0007000080fa00f8
:103cd400000006000000fa00156ea900113a8000e9
:103ce400f00b2000008160006004200071052000ba
:103cf4002374200080497800814978008249780043
:103d0400c1338000f00f2c008080600000902300fd
:103d140001007000c0338800103a80000001780070
:103d24000260a000600420007105200023742000bc
:103d340080497800814978008249780001e5a9002a
:103d4400f08080008000eb009ef207000002be00bd
:103d540000818000118180000001be000400be00cb
:103d64007cf4070058f20700000078000000e90026
:103d7400202888000165a9000145a8000105a800c4
:103d84000125a90000e5a9000128800080ff2f007b
:103d9400008060006000b3000028880001e5a800ee
:103da40036e8a90016e8a90001e5a8000080fa0099
:103db400000006000200fa00000f78000430ef0053
:103dc4000630ef0001003700000000001e007800fc
:103dd4006101b8002080800031808000800f510094
:103de400818f5900f8ff3e000080fa0000000600b1
:103df4000400fa00100798001e009000e500b900c6
:103e0400000f78000a21ef009e00780071088800f6
:103e14000870ef0013e1a8000000000008d0bf0004
:103e24000004e000fdff32000080fa0000000600fc
:103e34000200fa00004f7800000000001111800019
:103e440000202000008060000000e000fbff3a003a
:103e54001e00fb00201188000080fa00000006000c
:103e64001600fa0040579800612829001000090044
:103e7400315f78001e01b1004e5090000080fb00bd
:103e84004400de00004078000080fb006f0060000a
:103e94006e407800105798004e5090000080fb0050
:103ea4006f0060006e407800205798000040eb00df
:103eb4003057980071004700780007000080fa002e
:103ec400000006001800fa00300f9800612829004d
:103ed40010000900315f78001e01b1003e08900017
:103ee4004c00de006e407800105798003e089000a9
:103ef4004800de006f0060006e4078002057980094
:103f04003e0890004400de006f0060006e407800c0
:103f1400305798003e0890006f0060006e407800b3
:103f2400405798000040eb0050579800710047003c
:103f34005a0007000080fa00000006000800fa009a
:103f4400604798000000eb00000f78006e4090007e
:103f54000004e00016003a0000c3b300b4ff0700f9
:103f6400210037006e4090000081fb00d0cc2c0073
:103f74000010b8004308de00ea00b9000000510058
:103f8400004078000043b000804078001e80e800c4
:103f9400017778001e0fe8006e4090008080fb00df
:103fa400d0cc2c000008b8004308de00604798001d
:103fb4006e4090000004e000eaff3a001e80e80032
:103fc4008040eb0001777800040037001e0fe90001
:103fd4001e80e8006e40780095ff07001e00780000
:103fe4000000e000f9ff3c000080fa000000060039
:103ff4000a00fa00400798000000eb00000f780068
:104004004e0090000000e00014003a0000c3b3002a
:1040140087ff07001f0037004e019000d0cc2c0012
:104024000010b8004308de00ea00b90000005100a7
:10403400004078000043b000804078001e80e80013
:10404400017778001e0fe800ce009000d0cc2c0041
:104054000008b8004308de00400798004e009000b6
:104064000000e000ecff3a001e80e8008040eb0016
:1040740001777800040037001e0fe9001e80e80075
:104084006e4078006aff07001e0078000000e00020
:10409400f9ff3c000080fa00000006000200fa006c
:1040a400000f7800040037001e00780010407800ec
:1040b4001e0fe8005eff07001e0078001040780025
:1040c4000004e000f8ff3a000080fa000000060057
:1040d4000a00fa00881f780030079800410798000a
:1040e40018c0b3006011b8003e009000ce009000ec
:1040f40071f107000000e000010035000044eb000e
:104104000804e00007003200d0c2b30048ff0700f3
:104114003e009000ce00900001f0a200300798000d
:10412400410798003e009000ce00900066f1070021
:10413400000f78001e007800cf80de009ef107009b
:104144000001be003e009000ce009000b4f10700d4
:1041540002002000832c24007ef3070002002000cc
:1041640003f02300b7f1070057f107001007980088
:104174009e00900030062000808f50000300340021
:104184001e0fe8000000eb00100798001e007800e6
:104194000000e00003003a0000c3b30024ff07005e
:1041a4002b0037000000eb002007980019003700af
:1041b4009e007800706626000089b9004299de00ee
:1041c4004f88de0000005100ea00b9000080500072
:1041d400004078000043b000804078006202210073
:1041e4002e00900000004100014878002e0090004d
:1041f4000000e800200798001e0178007066260081
:104204000090b900c288de004f90de0000805000ac
:10421400000f78001e0078000000e000e4ff3c007e
:10422400080037002e0090000000e90020079800e5
:10423400610221002e0090000080400010407800b0
:10424400fbfe07002e0090000000e000f5ff3c009c
:10425400e0c2b300f6fe07001e019000706626005f
:104264000090b900c288de004f90de00008050004c
:10427400004078000043b000edfe07009e0090006f
:10428400706626000089b9004299de004f88de007e
:1042940000005100ea00b90000805000004078009e
:1042a4000043b000e2fe07004f0478000080fa00eb
:1042b400000006000200fa00004f78001e80fb0098
:1042c4006010880000000000201080006100600081
:1042d4000000e000fcff3a007b0007002110800092
:1042e40000002800008060000000e00002003200ae
:1042f4000080eb00010037000000eb000080fa00b2
:10430400000006000200fa00004f78000062a800d6
:104314000000000000108000680060000000e00061
:10432400fcff3a001e4078000004e0000200320066
:104334000040eb000100370010c0b3000080fb0018
:10434400610060004500dd00011080000150a10003
:1043540001007000001088000082a8000000000026
:1043640000108000700060000000e000fcff3a00d4
:1043740070108000004078000080fa000000060001
:104384000400fa007029290044ff070080c0b3002c
:10439400004f7800200037001e40780000404000a5
:1043a40010479800550007000004a2000004e00034
:1043b400020032005c000700160037001e40900027
:1043c4006f00070020479800570007002e40900018
:1043d4000004e0000f003200b02a29002fff07007c
:1043e4001e4078009efe0700602b29002bff07006b
:1043f4001e4090009afe0700d02b290027ff0700db
:104404001e4090000004a00095fe0700402c2900e7
:1044140022ff07001e4fe80070c7b3009e407800db
:1044240080cf5000dcff3600802c29001bff0700e2
:104434000080fa00000006000200fa0001e2a90070
:1044440014aea90018aea80014cea9000040eb00d9
:10445400004f78000700370018cea900803e2000e6
:1044640063fe070018cea800803e200060fe07000f
:104474001e4fe8001e407800e84f5000f6ff36005b
:104484001e0007002800070001e2a90014cea800be
:1044940014aea8000080fa00000006000000fa0034
:1044a40001e2a90014aea80014cea800b0182000a0
:1044b400501088000122a80000a2a90001e2a8006f
:1044c4000080fa00000006000000fa00000000006e
:1044d4002110800000002400008060000000e00043
:1044e400fbff3a00001080007f0060000000e00045
:1044f400f7ff3a000080fa00000006000000fa000e
:10450400f1ff07000002a800000000000010800076
:10451400610060000000e000fcff3a0010c0b3003e
:104524000080fa00000006000000fa00e6ff070021
:104534000042a80000000000001080006400600039
:104544000000e000fcff3a0010c0b3000080fa0055
:10455400000006000000fa00dbff07000022a800ac
:104564000000000000108000620060000000e00015
:10457400fcff3a0010c0b3000080fa0000000600ff
:104584000200fa00004f7800cfff07001e80fb00f6
:1045940060108800000000002010800061006000ae
:1045a4000000e000fcff3a00c7ff07002110800074
:1045b40000002800008060000000e00002003200db
:1045c4000040eb000100370010c0b3000080fa0087
:1045d400000006000400fa0020479800baff070014
:1045e4000062a8000000000020108000620060004b
:1045f4000000e000fcff320070108000004f7800e3
:10460400b1ff07002e4090000004e00002003200d9
:104614000040eb000100370010c0b3000080fb0035
:10462400610060004500dd00011080000150a10020
:1046340001007000001088000082a8000000000043
:1046440000108000700060000000e000fcff3a00f1
:104654001e4078000080fa00000006000000fa0006
:1046640099ff070000a2a9000082a8000000000032
:1046740000108000700060000000e000fcff3a00c1
:104684000080fa00000006000000fa008eff070018
:1046940000a2a8000082a800000000000010800012
:1046a400700060000000e000fcff3a000080fa00a7
:1046b400000006001400fa00100f9800e100470003
:1046c400922d29000f000900b258780050c0b300a1
:1046d400004f78001e089000104078001e406800cb
:1046e4000080fb000000e8006e4f78001e08900078
:1046f4000000e800104078001e4068000080fb00c5
:104704000000e8006e4f78001e0890000080e8006a
:10471400104078001e4068000080fb000000e800a4
:104724006e4f78001e08900063004000104078002f
:104734001e4068000080fb000000e8006e4f780017
:104744001e08900064004000104078001e4068007d
:104754000080fb000000e8006e4f78001e08900007
:1047640065004000104078001e4068000080fb0097
:104774000000e8006e4f78001e4078000080fa00c8
:10478400000006005c00fa00b3fc0700dcfc070034
:1047940042ff070035fd0700c0dc28003ffe07008c
:1047a40030de28003dfe0700a000200081fd070048
:1047b4006000b800400f9800510f98006000b800e6
:1047c400600f9800710f98001af907000000e000cc
:1047d40005003200c0e0280030fe0700400620003b
:1047e40074fd0700fe00370000e328002bfe0700dd
:1047f40089f80700a0e4280028fe070015fb07003d
:104804000000e0000500320070e6280023fe0700e7
:104814004006200067fd0700f1003700100020006b
:1048240064fd0700f0e828001cfe0700fdfb0700fc
:104834000000e00005003200d0ea280017fe07005f
:10484400400620005bfd0700e5003700a0ed2800ce
:1048540012fe07002000200056fd0700b0ef2800dc
:104864000efe07004ffc0700d0f128000bfe0700e6
:10487400000220000e0040000001780091c1b30046
:104884000040eb007afb070010079800fc0047008b
:104894007800470001010700404798001e0090007f
:1048a4000000e00022003a0050f32800fbfd07005e
:1048b4000000eb00000f7800190037001e0078009c
:1048c400000040000002b0006e4078000080fb0051
:1048d400c800dd001e007800000040000000e80071
:1048e4000002b0006e4078000080fb000100700000
:1048f4003007980080f42800e8fd07001e007800c7
:1049040070fd0700c0f42800e4fd07003e0090009d
:104914006cfd070010f52800e0fd07001e0fe800fd
:104924001e007800f80f5000e4ff34000200370046
:1049340050f52800d9fd070070f62800d7fd0700c0
:104944004e4090000004a2000004e0000800320081
:10495400a0f62800d1fd07006000b800400f9800c1
:10496400510f98006000b800600f9800710f980014
:104974002e6090000080fb00c800dd003e609000c7
:104984000080fb0001007000400798002ec89000d2
:104994000080fb00c800dd003ec890000080fb00e2
:1049a4000100700050079800ce0090005e00900057
:1049b40000805000600798006e009000604f9800df
:1049c4006e4890008080fb00d0cc2c000008b8001a
:1049d4004308de00004078000081fb00d0cc2c00ae
:1049e4000010b8004308de00ea00b90000005100de
:1049f400704f98006e4890000081fb00d0cc2c00d2
:104a04000010b8004308de00ea00b90000005100bd
:104a1400005798004e089000de0890004bef070006
:104a2400105798001e5090008080fb00d0cc2c00c2
:104a34000008b8004308de00004078000081fb0055
:104a4400d0cc2c000010b8004308de00ea00b90006
:104a540000005100205798001e5090000081fb0078
:104a6400d0cc2c000010b8004308de00ea00b900e6
:104a740000005100305798006e089000fe08900026
:104a840032ef0700405798004e5090008080fb00a2
:104a9400d0cc2c000008b8004308de0000407800a9
:104aa4000081fb00d0cc2c000010b8004308de00cd
:104ab400ea00b90000005100505798004e50900091
:104ac4000081fb00d0cc2c000010b8004308de00ad
:104ad400ea00b900000051006057980010c0b3000c
:104ae400705798007e5090000080fb00cc00dd00e1
:104af4007e4890000080fb004800dd0081007000cb
:104b04000e5090000080fb004400dd008100700026
:104b14002e5090000080fb0001007000b028880037
:104b24003e5090000080fb00cc00dd005e50900001
:104b34000080fb004800dd00810070006e50900092
:104b44000080fb004400dd0001007000a028880004
:104b54000c05a800000000006028800061006000cf
:104b64000000e000fcff3a00b08080000000e80094
:104b7400b0808800b08080001dfd0700e0f82800a8
:104b840046fd07006e00900019fd070090f928000b
:104b940042fd07004e089000de0890004cfd07001f
:104ba40020fa28003dfd07006e089000fe089000e2
:104bb40047fd0700d0fa280038fd0700b028800020
:104bc400c0fc0700a0288000befc070070f6280087
:104bd40032fd0700800c200076fc0700f4fe37004d
:104be400f3fe37000800fa00200798006147980098
:104bf40000c0eb00004f78000040eb001047980025
:104c04001f0037001e4090000080fb00ae009000a3
:104c140000804000104078001e4f68000040eb0008
:104c240020479800100037001e4078000004e00080
:104c340007003d001e80fb0000004000804078001b
:104c440010c3b30000c06800004f780003003700b1
:104c54001e40780000404000004f78002e40900035
:104c64000040e800204798002e409000e74f500095
:104c7400edff36001e4090000040e8001047980009
:104c84009e4090006e40900080cf5000ddff3900c0
:104c94001e4078000080fa00000006001000fa00b0
:104ca400881f7800600798007107980013fe0700ba
:104cb4000004a2000004e000020032000040eb0007
:104cc4008b003700a0c8b3002dfe07000004a2002b
:104cd4000004e0000300320013fe07000040eb0074
:104ce40083003700d0cfb30025fe07000004a200e4
:104cf4000004e000030032000bfe07000040eb005c
:104d04007b00370008fe07002000200029fc070074
:104d1400fafd07000004a2000004e00002003200d3
:104d24000040eb0072003700b0c8b30014fe070067
:104d34000004a2000004e00003003200fafd0700b2
:104d44000040eb006a0037000000eb00000f780021
:104d54000600370010c0b3001efe07001e017800d5
:104d6400e600410000f778001e0fe8001e007800fe
:104d7400e40f5000f7ff34000040eb0015fe07007d
:104d8400304f9800e8fd07006600470021c0b300db
:104d940094ff07008e489000814f500002003200bb
:104da4000040eb00520037006600470063004000fb
:104db40021c0b3008bff0700be489000814f500014
:104dc400020032000040eb00490037006e409000c2
:104dd4000080fb00c800dd007e4090000080fb00e6
:104de40001007000100798001e4890000080fb002e
:104df400c800dd002e4890000080fb000100700018
:104e0400200798001e0090008000eb006dee070064
:104e140002f02f00f37724006fef07000200200058
:104e2400f33224004bf00700020020004323240047
:104e34007bee07006e0190000089be002e009000fa
:104e44008000eb005fee070002f02f00f3772400f0
:104e540061ef070002002000a32f24003df00700ab
:104e640002002000030c24006dee07007e01900078
:104e74000089be007e009000900090001000780031
:104e840018c0b30002002000832c24000cee07009d
:104e94000000e00001003c000044eb000804e000d6
:104ea400040032007e01900000002000812c2400c8
:104eb4000089be007e0090009000900010007800f1
:104ec40018c0b3006011b800fbed07000000e0005b
:104ed400010035000044eb000804e0000300320048
:104ee4007e0190006000b8000089be0010c0b300cd
:0c4ef4004f0478000080fa000000060067
:020000040000fa
:104f000032100000060000008000000000100000c9
:104f10001a000000800000001a1000000a000000c3
:104f200082000000010000000003000000002000db
:104f300042000000261000000c000000800000006d
:104f400024100000020000008000000000000000ab
:020000040000fa
:020000040002f8
:04af3000fbff000023
:020000040000fa
:020000040002f8
:04af38005dff0000b9
:020000040000fa
:020000040002f8
:04af40009fff00006f
:020000040000fa
:020000040002f8
:04af4800feff000008
:020000040000fa
:020000040002f8
:04af5000ffff0000ff
:020000040000fa
:020000040002f8
:04af7800feff0000d8
:020000040000fa
:020000040002f8
:04af8000ffff0000cf
:00000001FF
