:020000040000fa
:080000000002040000000000f2
:020000040000fa
:040008005803000099
:020000040000fa
:04000c005803000095
:020000040000fa
:040010005803000091
:020000040000fa
:04001400580300008d
:020000040000fa
:040018005803000089
:020000040000fa
:04001c005803000085
:020000040000fa
:040020005803000081
:020000040000fa
:04002400580300007d
:020000040000fa
:040028005803000079
:020000040000fa
:04002c005803000075
:020000040000fa
:040030005803000071
:020000040000fa
:04003400fa020000cc
:020000040000fa
:040038005803000069
:020000040000fa
:04003c005803000065
:020000040000fa
:040040005803000061
:020000040000fa
:0400440012030000a3
:020000040000fa
:040048002a03000087
:020000040000fa
:04004c005803000055
:020000040000fa
:040050005803000051
:020000040000fa
:04005400580300004d
:020000040000fa
:040058005803000049
:020000040000fa
:04005c005803000045
:020000040000fa
:040060005803000041
:020000040000fa
:04006400580300003d
:020000040000fa
:040068005803000039
:020000040000fa
:04006c005803000035
:020000040000fa
:040070005803000031
:020000040000fa
:04007400580300002d
:020000040000fa
:040078005803000029
:020000040000fa
:04007c005803000025
:020000040000fa
:040080005803000021
:020000040000fa
:04008400580300001d
:020000040000fa
:040088005803000019
:020000040000fa
:04008c005803000015
:020000040000fa
:040090005803000011
:020000040000fa
:04009400580300000d
:020000040000fa
:040098005803000009
:020000040000fa
:04009c005803000005
:020000040000fa
:0400a0005803000001
:020000040000fa
:0400a40058030000fd
:020000040000fa
:0400a80058030000f9
:020000040000fa
:0400ac0058030000f5
:020000040000fa
:0400b00058030000f1
:020000040000fa
:0400b40058030000ed
:020000040000fa
:0400b80058030000e9
:020000040000fa
:0400bc0058030000e5
:020000040000fa
:0400c00058030000e1
:020000040000fa
:0400c40058030000dd
:020000040000fa
:0400c80058030000d9
:020000040000fa
:0400cc0058030000d5
:020000040000fa
:0400d00058030000d1
:020000040000fa
:0400d40058030000cd
:020000040000fa
:0400d80058030000c9
:020000040000fa
:0400dc0058030000c5
:020000040000fa
:0400e00058030000c1
:020000040000fa
:0400e40058030000bd
:020000040000fa
:0400e80058030000b9
:020000040000fa
:0400ec0058030000b5
:020000040000fa
:0400f00058030000b1
:020000040000fa
:0400f40058030000ad
:020000040000fa
:0400f80058030000a9
:020000040000fa
:0400fc0058030000a5
:020000040000fa
:0401000058030000a0
:020000040000fa
:04010400580300009c
:020000040000fa
:040108005803000098
:020000040000fa
:04010c005803000094
:020000040000fa
:040110005803000090
:020000040000fa
:04011400580300008c
:020000040000fa
:040118005803000088
:020000040000fa
:04011c005803000084
:020000040000fa
:040120005803000080
:020000040000fa
:04012400580300007c
:020000040000fa
:040128005803000078
:020000040000fa
:04012c005803000074
:020000040000fa
:040130005803000070
:020000040000fa
:04013400580300006c
:020000040000fa
:040138005803000068
:020000040000fa
:04013c005803000064
:020000040000fa
:040140005803000060
:020000040000fa
:04014400580300005c
:020000040000fa
:040148005803000058
:020000040000fa
:04014c005803000054
:020000040000fa
:040150005803000050
:020000040000fa
:04015400580300004c
:020000040000fa
:040158005803000048
:020000040000fa
:04015c005803000044
:020000040000fa
:040160005803000040
:020000040000fa
:04016400580300003c
:020000040000fa
:040168005803000038
:020000040000fa
:04016c005803000034
:020000040000fa
:040170005803000030
:020000040000fa
:04017400580300002c
:020000040000fa
:040178005803000028
:020000040000fa
:04017c005803000024
:020000040000fa
:040180005803000020
:020000040000fa
:04018400580300001c
:020000040000fa
:040188005803000018
:020000040000fa
:04018c005803000014
:020000040000fa
:040190005803000010
:020000040000fa
:04019400580300000c
:020000040000fa
:040198005803000008
:020000040000fa
:04019c005803000004
:020000040000fa
:0401a0005803000000
:020000040000fa
:0401a40058030000fc
:020000040000fa
:0401a80058030000f8
:020000040000fa
:0401ac0058030000f4
:020000040000fa
:0401b00058030000f0
:020000040000fa
:0401b40058030000ec
:020000040000fa
:0401b80058030000e8
:020000040000fa
:0401bc0058030000e4
:020000040000fa
:0401c00058030000e0
:020000040000fa
:0401c40058030000dc
:020000040000fa
:0401c80058030000d8
:020000040000fa
:0401cc0058030000d4
:020000040000fa
:0401d00058030000d0
:020000040000fa
:0401d40058030000cc
:020000040000fa
:0401d80058030000c8
:020000040000fa
:0401dc0058030000c4
:020000040000fa
:0401e00058030000c0
:020000040000fa
:0401e40058030000bc
:020000040000fa
:0401e80058030000b8
:020000040000fa
:0401ec0058030000b4
:020000040000fa
:0401f00058030000b0
:020000040000fa
:0401f40058030000ac
:020000040000fa
:0401f80058030000a8
:020000040000fa
:0401fc0058030000a4
:020000040000fa
:04020000580300009f
:020000040000fa
:04020400580300009b
:020000040000fa
:040208005803000097
:020000040000fa
:04020c005803000093
:020000040000fa
:04021000580300008f
:020000040000fa
:04021400580300008b
:020000040000fa
:040218005803000087
:020000040000fa
:04021c005803000083
:020000040000fa
:04022000580300007f
:020000040000fa
:04022400580300007b
:020000040000fa
:040228005803000077
:020000040000fa
:04022c005803000073
:020000040000fa
:04023000580300006f
:020000040000fa
:04023400580300006b
:020000040000fa
:040238005803000067
:020000040000fa
:04023c005803000063
:020000040000fa
:04024000580300005f
:020000040000fa
:04024400580300005b
:020000040000fa
:040248005803000057
:020000040000fa
:04024c005803000053
:020000040000fa
:04025000580300004f
:020000040000fa
:04025400580300004b
:020000040000fa
:040258005803000047
:020000040000fa
:04025c005803000043
:020000040000fa
:04026000580300003f
:020000040000fa
:04026400580300003b
:020000040000fa
:040268005803000037
:020000040000fa
:04026c005803000033
:020000040000fa
:04027000580300002f
:020000040000fa
:04027400580300002b
:020000040000fa
:040278005803000027
:020000040000fa
:04027c005803000023
:020000040000fa
:04028000580300001f
:020000040000fa
:04028400580300001b
:020000040000fa
:040288005803000017
:020000040000fa
:04028c005803000013
:020000040000fa
:04029000580300000f
:020000040000fa
:04029400580300000b
:020000040000fa
:040298005803000007
:020000040000fa
:04029c005803000003
:020000040000fa
:0402a00058030000ff
:020000040000fa
:0402a40058030000fb
:020000040000fa
:0402a80058030000f7
:020000040000fa
:0402ac0058030000f3
:020000040000fa
:0402b00058030000ef
:020000040000fa
:0402b40058030000eb
:020000040000fa
:0402b80058030000e7
:020000040000fa
:0402bc0058030000e3
:020000040000fa
:0402c00058030000df
:020000040000fa
:0402c40058030000db
:020000040000fa
:0402c80058030000d7
:020000040000fa
:0402cc0058030000d3
:020000040000fa
:0402d00058030000cf
:020000040000fa
:0402d40058030000cb
:020000040000fa
:0402d80058030000c7
:020000040000fa
:0402dc0058030000c3
:020000040000fa
:0402e00058030000bf
:020000040000fa
:0402e40058030000bb
:020000040000fa
:0402e80058030000b7
:020000040000fa
:0402ec0058030000b3
:020000040000fa
:0402f00058030000af
:020000040000fa
:0402f40058030000ab
:020000040000fa
:0402f80058030000a7
:020000040000fa
:0402fc0058030000a3
:020000040000fa
:04030000580300009e
:020000040000fa
:040304003c030000b6
:020000040000fa
:040308005803000096
:020000040000fa
:04030c005803000092
:020000040000fa
:04031000580300008e
:020000040000fa
:100400004f0321000eff22000e01880000000000b3
:10041000000020000000e000020032000001200087
:100420002002880014000700a30007000000e0007d
:1004300003003a00004622000100200002003700bd
:100440000000200001002000810f70000100320038
:100450000f000700000020000000e0000200320052
:100460000000020000000000262002000000000042
:100470000040da000000fe00604f20000000e000b5
:1004800002003200002020009001880000000600d9
:10049000a1028800800478000000eb001f003700f4
:1004a000e284440054a0b4009905ba00e2844400f8
:1004b00054a0b4009906ba00e284440054a0b400e9
:1004c0000006eb00476fde00fd07b200ae018800ba
:1004d000636ce10003003a000ad801000000eb0061
:1004e0000e003700606ce10008003a00004deb00a0
:1004f0000a05e800020039003420ec000af0a000f0
:100500008b05e900f9ff3e00040037006168e10057
:10051000010032000086eb000b00070019c7ba008b
:100520000e04e0001905ba0003003a000a00e000da
:10053000dbff3a0000000600fe07b200ae028800b2
:100540008a047800f5ff37000cd0a300e20f4d00bd
:100550001c003b0089027800354dba000a05e8000e
:10056000020039003420ec000af0a0008b05e900fd
:100570000f003200254dba000a05e80002003900dc
:100580003420ec000af0a0008b05e90008003200de
:100590000c00e0000600320015cdba000a05e800a4
:1005a000020039003420ec000af0a0008b05e900bd
:1005b0008984e80054a0b4000b00e000e2ff3a0098
:1005c000000006009902ba00055d78008b05e9007d
:1005d000f7ff3200c82ade00055d78008b05e900d0
:1005e000f3ff32000c00e000f1ff320019ddba0029
:1005f000eeff3700809fbe000000fa000080800000
:100600001180800061004000e08048000080880088
:10061000118088000068a9000080fa004f00be0029
:1006200000400600809fbe000000fa00208080008d
:100630003180800061004000e08048002080880018
:100640003180880000e8a9000080fa004f00be0059
:1006500000400600801f78000000fa000108a90091
:1006600013e1a90010c0b30008f0b7000080fa0041
:100670004f007800004006003200f8003400f80017
:10068000881f780018002000a8018800082020009a
:1006900008d0fe004f0478000000fa0016e8a90018
:1006a0000080fa003400f9003200f9000040060032
:1006b0000040da000000fe000000050014002000e9
:1006c000ad033700f4ff2f00ab0337000001be007d
:1006d0003f0007000470a70003f0a1006509b10006
:1006e000160032000d0035006828e10006003500d4
:1006f000f0ff2f00f1ff27000300e00013003b0094
:100700000100280000000500000040008180480032
:100710008502e900fcff3a0008003700f88f42002c
:1007200002003c008000eb00000005008100d100c9
:100730000080d3008502e800fcff3a000300e000df
:1007400002003b0060001000e0801800000006007e
:100750000001be001e0007000470a70003f0a10006
:1007600003f8a30013003a006509b100100032003d
:10077000090035006928e100020035000100280069
:100780000000050000004000818048008502e9006b
:10079000fcff3a0000000600f88f4200050035001b
:1007a0008100d1000080d3008502e800fcff3a0000
:1007b000000006008000eb00000005004f89de000d
:1007c00082017800870337006011b8009503370075
:1007d000c70ade00f107b200f50fb20008003200d0
:1007e000e1cf4200020032000170a00024000500a9
:1007f000810f70000100320004080500440005006c
:10080000810f700002003a00140005008502e90023
:100810000000400081c04800fcff3b000170a000c8
:100820002400050007f82700078361000638e1006f
:1008300004003a00f70720008783610087037100f6
:1008400001003a0003f0a200889fbe008a9fbe000c
:100850008c9fbe00470ade000480a100c71ade009c
:100860000580a100070028000785600087856100da
:10087000f70f20000720e1009e0032000728e1006a
:100880009c003200010678000400e000b400320051
:10089000f7072000878060000170a0000500e000dd
:1008a000c0003200f7072000878161000370a000bc
:1008b000050652000f003a000b50e1000b00320019
:1008c0000308e10002003a000200e1007e0032006d
:1008d0000204500083845800040031000001fd0030
:1008e0008101fd008402fd008a05fd006044b8001e
:1008f000210037000520e10005003d000001fd005a
:100900008101fd008402fd008a05fd0005065200fc
:100910007a60e100050035000170a1004722dd008a
:10092000848070008a807000630037006044b800e3
:10093000ef02660007ff2f00070666000500e000d3
:1009400006003400f08312008714dd000511de007c
:10095000071bdd00060171008519de007060e100f3
:10096000050035000904780082047800030178004e
:100970008001eb00700656000b50e10003003a00c6
:100980000200400083804800040037006004140027
:10099000e0841c0002005800838058000188a300f6
:1009a000060032008100d1000080d3008984d3008a
:1009b0000884d3000402e800270037000178a30070
:1009c00025003a000100e000030032008186cf00dc
:1009d000698656000a0037008c0020000000e00005
:1009e00004003a0009007800880478000004eb0055
:1009f000700252008086cf000d0646000c06e9000a
:100a00007060e10006003500800078000900780081
:100a1000880478000004eb00700656007002520053
:100a20000c00e0000c0034008c08dd00f003160020
:100a30000703de00868070000c00dd00074bde003f
:100a4000060070008c4cdd000743de0086847400d5
:100a50000c44dd000c0252006120e1002000350052
:100a6000610160000700280087816400f7ff27000c
:100a700087836400070374000300e000060032006f
:100a800082037300040032000000e800e0804800a8
:100a90000188a3000e003a00f70f20000720e100b4
:100aa0004a003d000170a1004722dd008100720074
:100ab0008a8070000000be004f06be004f05be00d9
:100ac0004f04be00000006006000b800faff3700c7
:100ad0008100d1000080d3000402e800eeff37005f
:100ae0000401780089017400a10107008a80700068
:100af000f1ff3700f7010700070278000001fd0051
:100b00008101fd00f3010700870278008503720070
:100b10000778a300040032000001fd008101fd0000
:100b200006020700e4ff3700850362000768a300a0
:100b3000080032000b50e10003003200f0ff2f00ec
:100b4000f1ff2700dcff37000001fd008101fd00ff
:100b5000d9ff37000468a300d7ff3200faff37003f
:100b6000f8ff2700888360000b003a000000e000d7
:100b700009003a008303640082837300020032009c
:100b80000200be00ccff37000b50e100ceff3a0060
:100b90000200be00c8ff370014002000810064007e
:100ba0003eff3700f8ff27008883610004003a0009
:100bb0000200e00002003a008c007800beff37001f
:100bc000150020008301640039ff370001f8270079
:100bd0000000200081007500b7ff3700889fbe002d
:100be0008a9fbe008c9fbe001b0020000202be0038
:100bf0000586680006002800060666004709de0034
:100c0000f20fb200820032000243e800800032009e
:100c1000c729de00f30fb2007d0032000343e80075
:100c20007b003200f107b2000170a000f507b200ae
:100c30000570a000c708dd004903de008680700053
:100c40004700dd00c72add004923de0086827200ee
:100c50004722dd000305510004035000858358003e
:100c60000300310000004000818048000a05e900cf
:100c70008c1f78008a9fbe000400500085805800b9
:100c80000402420085824a00000040008180480042
:100c90000005eb000004be006033b8000406be008f
:100ca0000d48e10056003100110009004dccd8007c
:100cb0000c01b8000d02b8008481410060824a0036
:100cc0008283530003045c0084845c0060055d0043
:100cd0000a00e00025003a00800578000d40e100a0
:100ce00049003100880078000700780011000900f1
:100cf0004d88d8000c01b8000d02b8008481410075
:100d000060824a006003110083835b0004045c007e
:100d1000e0845c000900e00021003a004f01be00c1
:100d20000300e0002b003200e301600007067300bf
:100d30008c81710001003200640070004200de000e
:100d40004e5edd000c007000c258de0001e0a00025
:100d500083010700cf017800818071004f06be003b
:100d60004f05be004f04be00000006008c83430008
:100d70000d044c00e0844c0060054d000000e900cb
:100d80000a00e000d4ff32008c8343000d044c00c5
:100d9000e0844c0060054d000000e900ceff370004
:100da0000c0343008d834b0060044c00e0844c0036
:100db0000000e9000900e000d8ff32000c03430006
:100dc0008d834b0060044c00e0844c000000e9007f
:100dd000d2ff37004200de004e5edd000c007000e6
:100de000c258de0001e0a000cf0178000300e0005f
:100df000daff320060001000e0801800d7ff3700f3
:100e0000f0ff2f00aaff3700f0ff2f00b9ff3700d7
:100e10000404be002f010700870678000004fd00cf
:100e20008104fd002b010700078366000678a300fc
:100e3000030032000960a7000800be002c00370044
:100e40000d78a300020032000800be002800370021
:100e50000778a30026003a0001f0a10009f0a100e4
:100e60000668a30003003200f1ff2700f0ff2f0007
:100e7000baff37000d68a300030032000800be006f
:100e80008c807000b5ff37000768a30007003a00a8
:100e90000648a30003003200f1ff2700f0ff2f00f7
:100ea000aeff37000d48a300030032006000b80019
:100eb0008c807000a9ff37000748a30004003200af
:100ec00001f82700000020008c807000a3ff37008d
:100ed000760107000004fd008104fd000205780092
:100ee000720107000802be008a01780059ff37002e
:100ef0000160a000120220000281880097ff3700e5
:100f00000100e000120032000500e0001000320095
:100f1000889fbe008a9fbe008c9fbe000006eb002b
:100f200001f8a3000300320060001000e080180008
:100f30000cf0a00005f8a3000300320060021200cc
:100f4000e0821a000cf0a2008005eb0041ff3700a0
:100f50006000b80002000500038368000700280055
:100f600007036300470ade000480a100c71ade0001
:100f70000580a100f70f20000720e10042003200a9
:100f80000728e10040003200889fbe008a9fbe0013
:100f90008c1f7800f107b200f307b2000400e000f4
:100fa000640032000170a0000500e000680032001b
:100fb0000370a00085054200eb07b1000204b800f1
:100fc0000302b8008484440060854a00020ab80025
:100fd000848444000a854a00030ab80004054500d9
:100fe000040033000804d0008984d2000a85d200ae
:100ff0008b05e9006158e1003d003500021020003a
:10100000090161000308200089816100f7072000c1
:101010008783640008867300c84cde00c853dd0077
:10102000878474004855de000300e00006003200ab
:1010300082037600040032008904e80060054d0058
:101040000a88a3000c003a00f70f20000758e100bf
:1010500044003d000a70a100c75ddd000a857500ef
:101060008a007300090078004f0678004f05be0023
:101070004f04be00000006000a05d1008984d30099
:101080008b05e800f0ff3700881f78000604780021
:1010900090000700070278000001fd008101fd00bb
:1010a0008c00070087027800850372000778a30090
:1010b000050032000001fd008101fd009f000700d6
:1010c0004f04780000000600850372000748a30063
:1010d00003003200f0ff2f00f1ff2700f8ff370078
:1010e0000000200001f8270088807000f4ff37001e
:1010f000880178004848dd00808171004848de00a2
:10110000c850dd0001007000c850de000604780001
:101110000b0178001600070088807000d2ff3700ae
:101120000500e00005003200170020003a0007002b
:101130009dff370081037000f9ff3a0086007800b8
:101140004f0678004f05be004f04be0000000500aa
:1011500083037100f9ff3200270020002e000700f2
:1011600094ff370001f8270086807000f4ff3700f5
:101170000100e00026003200610111007810e1005a
:1011800023003c006022b8007010e100040035002c
:1011900080027800010078008000eb0070015100af
:1011a0000200e0000900340070031100062add008f
:1011b000822ade008603dd00878272000200de00e4
:1011c000860bdd00070070008208de00848171005c
:1011d000f4ff27000482620084817100040028006b
:1011e000848262006102600005f0a6000000060033
:1011f00004827100070032000000e800e08048002f
:10120000000006000002be006000b800efff3700db
:101210006000b80000000600889fbe000004eb00dc
:101220006138e10016003a000100e00008003a00d1
:10123000c800de004800dd00880020000100e0005a
:1012400003003a00c800de004800dd0068044400e6
:101250008184cf00e9845400060034008908dd0051
:10126000f08314008703de00878070000900dd0032
:1012700009044400610214004f04be00000006008f
:101280000300e00008003a00c811de004811dd004c
:10129000880020000300e00003003a00c811de00cf
:1012a0004811dd00680444008384cf00e9845400c1
:1012b000060034008919dd00f08314008713de0076
:1012c000878171000911dd0009044400e102140066
:1012d000e9ff37002700200001f0a70017002000d9
:1012e000470bde00f60fb200040032000643e800b0
:1012f0000a0032004702b300000006000103780034
:10130000f607b2000603700002003a000703b300bc
:10131000000006008702b300000006000103780009
:10132000f607b20006037000020032000770a0004a
:10133000000006000760a000000006000478a3007b
:10134000040032000578a300030032000168a30006
:1013500001003a000200be000160a000000006008b
:1013600081017000270032008002eb0001f8a30029
:101370000300320060001000e0801800150020001b
:10138000f40720000202420020003400f70320008e
:1013900087036000060420000003630002082000a9
:1013a000000161004700de00c909dd000080710016
:1013b000c708de000600e000080032008703710065
:1013c000060032001000b0000180b0000188a300c8
:1013d00002003200c108de000402e800f107b2009a
:1013e000f30f20000320e10003003d004722dd0051
:1013f000810072002900370001f827000000eb008f
:10140000260037006000b8000000060068021200e5
:101410007f20e100020034006000b8001f003700a8
:101420006011b8007020e1000400350080017800f0
:10143000010078008000eb00700252000400e00020
:1014400009003400f00312000719dd008419de00e2
:101450000703dd00868171000400de00070bdd005c
:10146000060070008408de00f7ff27008383630016
:1014700087037100060028000303630007003200a1
:101480000700e00003003a00610160000281730080
:10149000020032001000b0000180b0000500a6007c
:1014a0000000060001f0a000000006004f0ade0068
:1014b0004709de00f107b200f20fb2000b00320064
:1014c000f207b1000170a000c708dd00c901de000d
:1014d000838070004700dd000400a60000000600c5
:1014e00060001000e080180000000600810f70000e
:1014f00001003a00000006008182cf000500e000f4
:1015000010003e008082cf00ee8242007028e10091
:101510000400390007003e00800078000000eb0066
:101520000e003700708312008600de000500dd002b
:101530000a003700708352008600dd000000eb00d7
:1015400006003700e28252008508dd007083120039
:101550000603de00868070000500dd007507b00020
:101560000501ea000400a60000000600600010006b
:10157000e080180000000600889fbe008a9fbe0021
:10158000841f78007c0007004f00780011003300b2
:10159000f0ff2f00838f6c0006003b000405650000
:1015a0000a00a7000800370009f0a600100020007c
:1015b00008003700820f5400838f5c00030039005d
:1015c0001000200001003e000000200009f0a700ec
:1015d0000000ea004f05be004f04be000000e0001e
:1015e00000000600881f7800030478000300e00074
:1015f00007003d0060001000e08018006001190045
:10160000e081190002003b0001f02d0003003700cb
:101610000400070008f0a70001f0a0004f047800c4
:1016200000000600889fbe008a9fbe0000827000f6
:101630000402710004827100260032000004be0022
:101640000200be006011b8006b0920009502200066
:101650000182cf000a0039000541b1000082cf00ad
:10166000070039000541b1000982cf0004003900ac
:101670000541b1000882cf00010039000541b100e9
:1016800005425200120032000a003b0082817100c4
:10169000610164008100d1000080d3008984d300ff
:1016a0000884d3008b05e8000442e800f7ff3a0005
:1016b000070037000804440089844c0000004800fb
:1016c000818048008b05e9000442e900f9ff3a00f7
:1016d000030007004f05be004f04be0000000600d7
:1016e00081002000618055000b003d000b002000b0
:1016f00061fe2f000100e1001d00340082817100b5
:10170000610164008904d1000884d3000000e8006e
:10171000faff3a00710020006100640003007000cd
:10172000020060000900320061044400e0844c00c3
:101730000988a500050032008b05e8006808e10073
:1017400002003a008904d1000884d300f20f20007f
:101750000258e10005003d00c75ddd00f907b20059
:101760008980750008007800000006000bf827004b
:101770008b007800000005000004be0014fc070088
:101780000003be000405be000200be0010fc0700fe
:08179000844f75000000060003
:020000040000fa
:1017980008c000008608000022a00000a261000026
:1017a80010a000000008000000000000f0c10000c8
:1017b800fa8000000854000000000000000000004b
:1017c80010060000403700001086000000040000ea
:1017d800e14d0000801d00009a5f00000315000025
:1017e80026150000ffff000003000000b000000005
:1017f80000000000000000000040000000000000a1
:1018080002000000080000000000000000000000c6
:10181800ff7f00000200000005000000000000003b
:101828000000000000000000000000000040000070
:1018380047b80000960000009700000000ff000075
:10184800001000000100000098580000486c0000db
:1018580000000000010000000080000000fc000003
:1018680000f000000010000000800000ff7f000072
:1018780000040000ff7b0000003000000069000049
:1018880003510000ad170000000000000000000038
:101898000000000000000000000000000000000040
:1018a8000000000000000000000000000000000030
:1018b8000000000000000000000000000000000020
:1018c80000000000000000009c58000005180000ff
:1018d8009a580000041800008be200001d3e00002a
:1018e80086e200001d3c0000a45800000218000019
:1018f800a09800001718000098d8000003180000ee
:1019080000440000023a0000787600000018000049
:1019180010b40000008600000038000044020000f7
:10192800a2980000151800009ed8000019180000a1
:1019380007ca00000632000092ba000021460000e3
:10194800002a00001740000091120000902e0000ad
:1019580080220000162e00001f1200001e2c00001e
:1019680000040000162a000000000000012c0000fe
:101978008652000000500000000000000000000037
:101988000000000028140000bc1d0000000000003a
:101998000d0a00005379000073740000656d0000a3
:1019a800204900006e69000074690000616c000045
:1019b800697a0000656400002e0d00000a0000002e
:1019c8005374000061720000746900006e670000c3
:1019d800205a000053530000433400003135000002
:1019e80031200000696e0000204e00006f72000078
:1019f8006d6100006c2000004d6f00006465000000
:101a08002e2e00002e0d00000a0000004661000086
:101a1800746100006c3a0000204600006169000013
:101a28006c65000064200000746f000020730000e3
:101a38007461000072740000204e00006f72000094
:101a48006d6100006c2000004d6f000064650000af
:101a58002e0d00000a0000005a53000053430000f6
:101a68003431000035310000206900007320000087
:101a7800727500006e6e0000696e0000672e00002f
:101a8800205300007461000072740000696e000049
:101a9800672000004d610000696e0000204c0000c6
:101aa8006f6f0000702e00002e2e00000d0a00003f
:101ab80000570000617200006e6900006e67000048
:101ac8003a2000005a53000053430000343100000c
:101ad800353100002044000069610000676e000095
:101ae8006f730000746900006320000045720000f5
:101af800726f000072200000466c000061670000f1
:101b08002069000073200000736500007421000044
:101b18000d0a000000450000727200006f7200009c
:101b28003a20000046610000696c0000656400000e
:101b3800207400006f2000007265000061640000de
:101b4800205a000053530000433400003135000090
:101b580031200000524100004d2e00000d0a000007
:101b680000450000727200006f7200003a20000009
:101b780046610000696c0000656400002074000084
:101b88006f200000676500007420000053480000c3
:101b98005434000078200000566100006c75000085
:101ba800652e00000d0a00000029000020530000e7
:101bb800656e0000736500003a20000000200000f8
:101bc80025200000283100003562000069740000fb
:101bd80020520000617700003a20000030780000b1
:101be800002900002c200000546500006d700000e2
:101bf8003a20000000200000432c0000204800008c
:101c0800756d0000693a00002000000020250000e2
:101c1800202d00003e200000534500004e540000d7
:101c280020460000726100006d6500003a20000047
:101c380030780000000d00000a000000202000009d
:101c4800507200006f6200006520000053740000ad
:101c580065700000203100003a2000005374000035
:101c680061720000740d00000a00000020200000ce
:101c78002d3e000020460000414900004c45000070
:101c8800440d00000a0000002020000050720000ef
:101c98006f6200006520000053740000657000004a
:101ca800203200003a2000005772000069740000da
:101cb8006520000041640000647200006573000044
:101cc800730d00000a000000202000002d3e0000d7
:101cd80020460000414900004c4500004420000017
:101ce800284e0000414300004b2000006f720000a6
:101cf80020540000696d0000656f000075740000d5
:101d0800290d00000a000000202000005072000089
:101d18006f620000652000005374000065700000c9
:101d2800203300003a200000577200006974000058
:101d380065200000436f00006d6d0000616e0000bb
:101d4800640d00000a00000020200000507200000e
:101d58006f62000065200000537400006570000089
:101d6800203500003a20000052650000737400001e
:101d780061720000740d00000a00000020200000bd
:101d8800507200006f62000065200000537400006c
:101d980065700000203600003a20000057720000ed
:101da800697400006520000052650000616400004d
:101db8002041000064640000726500007373000035
:101dc8000d0a00000020000020500000726f000083
:101dd8006265000020530000746500007020000058
:101de800373a000020520000656100006469000075
:101df8006e670000206200007974000065730000bf
:101e08002e2e00002e0d00000a00000020200000e9
:101e1800507200006f6200006520000052580000f8
:101e280020520000617700003a200000000d0000f9
:101e38000a000000202000002d3e00002050000075
:101e4800726f000062650000204f00004b21000007
:101e58000d0a000000200000202d00003e20000098
:101e680046410000494c000045440000202800007d
:101e780045630000686f0000206d00006973000072
:101e88006d61000074630000682900000d0a0000fd
:101e9800000d00000a2d00002d2d00002043000039
:101ea80068650000636b0000696e00006720000031
:101eb8005a5300005343000034310000353100000c
:101ec8002053000074610000747500007320000046
:101ed8002d2d00002d0d00000a000000202000001c
:101ee80046610000696c00007572000065530000cf
:101ef8007461000074750000732000002830000031
:101f080078360000322900003a20000030780000be
:101f1800002000003c2d00002d2000004170000032
:101f2800706c00006963000061740000696f000054
:101f38006e20000045720000726f000072200000e1
:101f48004465000074650000637400006564000067
:101f5800210000002020000046610000696c00009c
:101f680065640000207400006f20000072650000a6
:101f78006164000020460000616900006c75000083
:101f880072650000537400006174000075730000ee
:101f9800202800003078000036320000290d0000ab
:101fa8000a000000202000004943000020530000e0
:101fb8007461000074750000732000002830000070
:101fc8007836000030290000202000002020000082
:101fd800202000003a200000307800000020000097
:101fe8003c2d00002d20000046690000726d0000a5
:101ff80077610000726500002f480000572000003c
:1020080045720000726f00007220000044650000f5
:10201800746500006374000065640000210000001e
:102028002020000046610000696c00006564000023
:10203800207400006f2000007265000061640000d9
:102048002049000043200000537400006174000020
:10205800757300002028000030780000363000003a
:10206800290d00000a0000002d2d00002d2d000074
:102078002d2d00002d2d00002d2d00002d2d0000f0
:102088002d2d00002d2d00002d2d00002d2d0000e0
:102098002d2d00002d2d00002d2d00002d2d0000d0
:1020a8002d2d00002d2d00002d0d00000a0d000023
:1020b8000a000000303100003233000034350000df
:1020c8003637000038390000414200004344000020
:1020d800454600000049000032430000207300001c
:1020e800636100006e2000007374000061720000dc
:1020f800742e00002e2e00000d0a000000200000a3
:1021080020410000434b0000204000002030000028
:102118007800000020280000573d000030780000bb
:10212800002c0000205200003d3000007800000024
:10213800290d00000a000000493200004320000079
:1021480073630000616e0000206400006f6e000081
:10215800652e00000d0a0000000000000d070000b9
:102168000a0e000003090000040100000c0600002c
:0c2178000b0f0000020800000500000032
:020000040000fa
:102184000800fa0020e22800cf050700fd0607003a
:102194000004a2000004e00004003200a0e32800d0
:1021a400c90507000040eb007000370080e42800f8
:1021b400c505070000c5b300130707000004a2000b
:1021c4000004e0000500320080e62800be05070098
:1021d400f70607000040eb006400370080e82800a1
:1021e400b9050700c0c2b300070707000004a20036
:1021f4000004e0000500320080e62800b205070074
:10220400eb0607000040eb005800370080ea280086
:10221400ad050700f10607000004a2000004e00079
:1022240005003200a0e32800a7050700e006070028
:102234000040eb004d00370020ec2800a205070009
:1022440010c5b300f00607000004a2000004e0007b
:102254000500320080e628009b050700d40607002d
:102264000040eb004100370070ee2800960507009f
:1022740010c0b300f9060700e40047008048780066
:1022840010c0b300f5060700e50047008048780059
:1022940010c0b300f1060700e6004700804878004c
:1022a4000040eb00ed060700e70047008048780097
:1022b400bf060700a0f02800830507000000eb001c
:1022c400000f7800080037009e007800648040000a
:1022d4000000470010407800c404070000c2b300a7
:1022e400b60407001e0fe8001e007800e30f50003c
:1022f400f5ff3400b0f12800730507008000eb00ff
:102304000e80e80001087800110037000e80e80014
:1023140010007800640040000000470090407800fe
:10232400c0c2b30080cf500004003a00e0f128009e
:102334006505070010c0b3000c0037000e80e800ec
:10234400100078008000e8000e80e80001087800a2
:102354000e80e80010007800e30f5000ebff34001b
:10236400f0f22800580507000040eb000080fa0056
:10237400000006000600fa000e81e800000978005b
:1023840064004700014878000e80e80010007800df
:102394009000780064004700104078000080fb0043
:1023a4004800dd00808068000e80e800100078009e
:1023b400010878000000eb00000f780019003700d6
:1023c4000e80e80010007800100078000000e000a3
:1023d4000b003d000e80e80010007800100078002b
:1023e4000000400080007800100221008080680016
:1023f4000e80e8001000780001087800080037001b
:102404000e80e80010007800100078000000400002
:10241400800078000e80e800100078000108780041
:102424001e0fe8001e007800e70f5000e4ff3400a0
:102434000080fa00000006000800fa00e6004700e9
:10244400800878008080eb00640047000108780071
:1024540010002000000f7800130037001e007800e1
:1024640000004000e60047009100780080804000b2
:102474000e80e800110878000e80e8001000780053
:102484004800de008040780064004700b9ff070080
:102494000e80e80010007800804078006400470057
:1024a400b4ff07001e0fe800800720009e0078009c
:1024b400808f5000e9ff340064004700100078006a
:1024c4000080fa00000006000c00fa0068014700d2
:1024d400004978006a0047000108780029060700cf
:1024e4000004a2000004e000020032000080eb00bf
:1024f4005800370000c5b300430607000004a200db
:102504000004e00003003200290607000080eb000d
:102514005000370068004700104078003a06070072
:102524000004a2000004e0000300320020060700bb
:102534000080eb0047003700280607000004a200d3
:102544000004e00003003200190607000080eb00dd
:102554004000370010c5b3002b0607000004a2009a
:102564000004e00003003200110607000080eb00c5
:10257400380037000000eb00000f78000600370039
:1025840010c0b300350607009e80e80081004700b4
:10259400804878001e0fe8001e007800e30f50000a
:1025a400f7ff34000040eb002c060700e60047006c
:1025b40080487800fe0507000004a2000004e00043
:1025c400020032000080eb00220037006300470065
:1025d400104078000080fb008000eb00c801dd00a3
:1025e4000200200064004700104078000080fb00d7
:1025f4008000eb00c000dd0000002000000171003d
:102604008181710065004700104078000082fb0062
:102614008002eb004828dd00c820de008100700045
:102624004820dd00000171008181710066004700cf
:10263400104078000080fb008000eb000000710077
:10264400818071006a014700120178000089be0090
:102654000000eb000080fa00000006000400fa000d
:1026640010c6b300004f780080c0eb000e00e800f5
:102674000148780080c0eb000e80e8000148780033
:10268400c00507000004a2000004e00002003200bc
:102694000080eb003d00370000c5b300da050700f9
:1026a4000004a2000004e00003003200c00507009b
:1026b4000080eb00350037001e407800d20507008b
:1026c4000004a2000004e00003003200b805070083
:1026d4000080eb002d0037000e00e8001040780069
:1026e400c90507000004a2000004e0000300320052
:1026f400af0507000080eb00240037000e80e800df
:1027040010407800c00507000004a2000004e000a7
:1027140003003200a60507000080eb001b00370011
:102724000e00e80010407800b70507000004a2007e
:102734000004e000030032009d0507000080eb0068
:10274400120037000e80e80010407800ae05070044
:102754000004a2000004e000030032009405070016
:102764000080eb0009003700910507000004a20077
:102774000004e000020032000080eb000300370098
:10278400401f20007b0307000000eb000080fa00dc
:10279400000006000400fa00d0f428004a040700f0
:1027a4008e00780020c6b30047ff07000000e00059
:1027b40015003a0020f72800430407001e007800a3
:1027c4009e0090004008de0000007800a803070087
:1027d4001e0078009e00900000007800a40307000b
:1027e4001e0078009e009000e00f5000e08f58001b
:1027f40002003200d0f8280033040700b0f12800aa
:102804003104070002003700e0fa28002e04070014
:102814008e00780000c6b3002bff07000000e00024
:1028240015003a0060fd2800270407001e00780008
:102834009e0090004008de00000078008c03070032
:102844001e0078009e0090000000780088030700b6
:102854001e0078009e009000e00f5000e08f5800aa
:102864000200320030ff280017040700b0f12800ee
:102874001504070002003700400129001204070074
:1028840080032900100407000080fa0000000600fd
:102894000000fa003b0507000004a2000004e00069
:1028a400020032000080eb002900370000c5b300ad
:1028b400550507000004a2000004e00003003200f4
:1028c4003b0507000080eb002100370020c7b30060
:1028d4004d0507000004a2000004e00003003200dc
:1028e400330507000080eb001900370050cfb30018
:1028f400450507000004a2000004e00003003200c4
:102904002b0507000080eb001100370020cab3003c
:102914003d0507000004a2000004e00003003200ab
:10292400230507000080eb0009003700200507009d
:102934000004a2000004e000020032000080eb006a
:102944000300370010002000fb0207000000eb002a
:102954000080fa00000006000000fa0009050700e4
:102964000004a2000004e000020032000080eb003a
:102974001900370000c5b300230507000004a200b6
:102984000004e00003003200090507000080eb00aa
:102994001100370010c0b3001b0507000004a2009b
:1029a4000004e00003003200010507000080eb0092
:1029b40009003700fe0407000004a2000004e00040
:1029c400020032000080eb000300370050002000ba
:1029d400d90207000000eb000080fa0000000600a6
:1029e4000400fa0050c1b300004f7800b1c52300c1
:1029f4000e80e80001087800e20407000004a20049
:102a04000004e000020032000080eb002e003700da
:102a140000c5b300fc0407000004a2000004e000a9
:102a240003003200e20407000080eb0026003700b8
:102a34001e407800f40407000004a2000004e00033
:102a440003003200da0407000080eb001e003700a8
:102a54000e80e800100078004800de000040780096
:102a6400e90407000004a2000004e00003003200af
:102a7400cf0407000080eb00130037000e80e8004d
:102a84001000780000407800df0407000004a20072
:102a94000004e00003003200c50407000080eb00de
:102aa40009003700c20407000004a2000004e0008b
:102ab400020032000080eb00030037001000200009
:102ac4009d0207000000eb000080fa0000000600f1
:102ad4000800fa00640147000049780066004700d6
:102ae4000108780040c2b300004f7800a504070035
:102af4000004a2000004e000020032000080eb00a9
:102b04005000370000c5b300bf0407000004a20052
:102b14000004e00003003200a50407000080eb007d
:102b2400480037001e407800b70407000004a200e4
:102b34000004e000030032009d0407000080eb0065
:102b4400400037000040eb00af0407000004a2007f
:102b54000004e00003003200950407000080eb004d
:102b6400380037006400470010407800a6040700ce
:102b74000004a2000004e000030032008c040700fb
:102b84000080eb002f003700940407000004a2002b
:102b94000004e00003003200850407000080eb001d
:102ba4002800370010c5b300970407000004a200f2
:102bb4000004e000030032007d0407000080eb0005
:102bc4002000370010c0b300a40407008e00e80002
:102bd4008048780010c0b300a00407008e80e8008d
:102be400804878000040eb009c040700e3004700a5
:102bf400804878006e0407000004a2000004e0008e
:102c0400020032000080eb000e0037000e80e80066
:102c1400104078000080fb00c800dd00630047001e
:102c2400104078000080fb008100700066004700bf
:102c34001000780001087800400620004d020700cb
:102c44000000eb000080fa00000006000600fa0015
:102c54000e81e8000049780064004700010878000c
:102c640050c2b300004f7800460407000004a200dd
:102c74000004e000020032000080eb003f00370057
:102c840000c5b300600407000004a2000004e000d3
:102c940003003200460407000080eb0037003700d1
:102ca4001e407800580407000004a2000004e0005d
:102cb400030032003e0407000080eb002f003700c1
:102cc4000040eb00500407000004a2000004e000f0
:102cd40003003200360407000080eb0027003700b1
:102ce4000e80e80010407800470407000004a200aa
:102cf4000004e000030032002d0407000080eb0014
:102d04001e00370064004700100078004800de0011
:102d1400004078003c0407000004a2000004e00026
:102d240003003200220407000080eb001300370088
:102d34006400470010007800004078003204070067
:102d44000004a2000004e00003003200180407009d
:102d54000080eb0009003700150407000004a200fe
:102d64000004e000020032000080eb0003003700a2
:102d740010002000f00107000000eb000080fa00c2
:102d8400000006000600fa008e81e8008049780001
:102d94006300470001487800640047000248780057
:102da40064004700104078000080fb00670060006a
:102db400cc00dd0063004700104078000080fb0079
:102dc4006f0060004800dd00810070000e80e800a4
:102dd400104078000080fb007f006000008f7000ce
:102de400e80307000004a2000004e000020032002f
:102df4000080eb002a00370000c5b300020407007e
:102e04000004a2000004e00003003200e80307000d
:102e14000080eb002200370090c0b300fa030700e3
:102e24000004a2000004e00003003200e0030700f5
:102e34000080eb001a0037001e0078004800de0016
:102e440000407800f00307000004a2000004e00042
:102e540003003200d60307000080eb0010003700a7
:102e64001e00780000407800e70307000004a20079
:102e74000004e00003003200cd0307000080eb00f3
:102e840007003700ca0307000004a2000004e000a2
:102e9400020032000080eb00010037000000eb006c
:102ea4000080fa00000006000a00fa00881f78007b
:102eb400e601470080497800670047000148780030
:102ec4006800470002087800670047001040780057
:102ed4000004e00002003a000000eb00610037004b
:102ee400a80307000004a2000004e000020032006e
:102ef4000080eb005b00370000c5b300c20307008d
:102f04000004a2000004e00003003200a80307004c
:102f14000080eb0053003700e0c2b300ba0307009f
:102f24000004a2000004e00003003200a003070034
:102f34000080eb004b00370066004700104078002b
:102f4400b10307000004a2000004e0000300320003
:102f5400970307000080eb0042003700670047003a
:102f6400104078000040e900a70307000004a20015
:102f74000004e000030032008d0307000080eb0032
:102f840038003700950307000004a2000004e000a5
:102f940003003200860307000080eb003100370095
:102fa40010c5b300980307000004a2000004e00069
:102fb400030032007e0307000080eb002900370085
:102fc40010c0b300a5030700670047001040780055
:102fd4000080fb0000004000800078000e80e800c4
:102fe400010878000000eb00000f780011003700a2
:102ff4000e80e800100078008000e90010c0b300e3
:103004009e8f500001003e000040eb00e4004700aa
:103014008048780068004700100078001e044000d3
:1030240064004700104078008c030700004c7800cf
:103034001e0fe8000e80e800100078009e00780063
:10304400808f5000eaff3900590307000004a200f2
:103054000004e000020032000080eb0001003700b1
:103064000000eb004f0478000080fa000000060026
:103074000400fa008e80e800800878000e80e800e2
:10308400100078008000eb000108780000fe0700c3
:103094000000e000020032000080eb002b0037004b
:1030a4002c0007000000e000030032002afe0700a5
:1030b4000080eb00250037000041eb008040eb006e
:1030c4000040eb002fff07000000e0000300320087
:1030d40021fe07000080eb001c00370020002000c8
:1030e400150107000e01780011c0b30050c1b300f0
:1030f4006dff07000000e0000300320016fe070029
:103104000080eb001100370013fe07000000e00010
:10311400020032000080eb000c0037001e407800f3
:103124000080fb00c800dd000e00e80010407800bd
:103134000080fb0001007000800078000e80e80031
:1031440010007800010878000000eb000080fa000d
:10315400000006000000fa000a0307000004a200b1
:103164000004e000020032000080eb001900370088
:1031740000c5b300240307000004a2000004e0001b
:10318400030032000a0307000080eb00110037003f
:1031940080c1b3001c0307000004a2000004e00087
:1031a40003003200020307000080eb00090037002f
:1031b400ff0207000004a2000004e0000200320045
:1031c4000080eb0003003700401f2000e9000700e7
:1031d4000000eb000080fa00000006000000fa0086
:1031e40060022000303a8800213a800000fe2f005f
:1031f40000806000203a8800213a8000f0f32f001c
:1032040000806000203a88003200200080072000ff
:10321400a109200033742000804978008149780096
:1032240082497800103a8000000178000200a00072
:103234006004200071052000237420008049780078
:10324400814978008249780000000000113a80002a
:10325400000027008080600000002300808f500061
:10326400faff3a0000000000113a8000000220003a
:10327400008060000000e000fbff32000080fa00e4
:10328400000006000000fa0040a7a9000430ef0087
:103294000630ef000030ef000230ef0005e1a90036
:1032a4000421a90004c1a900210880000003200012
:1032b4000100700020088800608929001008880037
:1032c4000021ef0001428000f0ff280080806000b0
:1032d4000000230001007000004288000068a9007b
:1032e4002068a80011e1a9001021a90010c1a900bb
:1032f400810880000003200001007000800888001d
:10330400a0612000600888000621ef0011428000bf
:10331400f0ff28000080600000d0a0001042880068
:1033240000e8a90020e8a80013e1a9001221a900df
:1033340012c1a90091088000f0fc2f0000806000f9
:103344000040a000900888000a21ef000080eb00f4
:10335400700888000108a9002108a80005e1a80058
:1033640011e1a8000080fa00000006000000fa0045
:10337400103a8000000178000260a100600420007f
:103384007105200023742000804978008149780069
:10339400824978009133800000fc2f008080600017
:1033a400100320000100700090338800103a800060
:1033b400000178000260a000600420007105200074
:1033c400237420008049780081497800824978007c
:1033d4004f87a900713a8000f00f2f000080600031
:1033e400703a88004fe7a8000080fa000000060049
:1033f4000000fa00156ea900c1338000f00f2c0004
:10340400008060000080a000c03388002002a90072
:103414000111800090ff2f000080600000118800df
:1034240020a2a9002062a90011118000f0f32f004e
:103434000080600010118800000420004011880002
:1034440021e2a8002342a800100020003a0007004f
:103454000080fa00000006000000fa00156ea900c2
:10346400113a8000f00b200000816000600420000d
:103474007105200023742000804978008149780078
:1034840082497800c1338000f00f2c0080806000f6
:103494000090230001007000c0338800103a8000bf
:1034a400000178000260a000600420007105200083
:1034b400237420008049780081497800824978008b
:1034c40001e5a900d08080008000eb00bdf4070076
:1034d4000002be00e0808000f18080000001be0098
:1034e4000400be009bf6070077f407000000780094
:1034f4000000e900202888000165a9000145a80012
:103504000105a8000125a90000e5a9000128800003
:1035140080ff2f00008060006000b3000028880056
:1035240001e5a80036e8a90016e8a90001e5a8000d
:103534000080fa00000006000200fa00000f780084
:103544000430ef000630ef000100370000000000f7
:103554001e0078006101b800208080003180800066
:10356400800f5100818f5900f8ff3e000080fa005f
:10357400000006000400fa008e80e800800878004d
:103584000e80e80010007800e500b900000f780014
:103594000a21ef009e007800710888000870ef008f
:1035a40013e1a8000000000008d0bf000004e00000
:1035b400fdff32000080fa00000006000200fa005d
:1035c400004f78000000000011118000002020004e
:1035d400008060000000e000fbff3a001e00fb00da
:1035e400201188000080fa00000006001600fa008e
:1035f400f400470080487800e10529001000090024
:10360400315f78001e01b10074004700104078005b
:103614000080fb004400de00004078000080fb00d6
:103624006f00600000004700904078007100470080
:103634000148780074004700104078000080fb00c7
:103644006f0060000000470090407800720047005f
:10365400014878008040eb0073004700014878007f
:1036640071004700980007000080fa00000006007f
:103674001800fa00f600470080087800e1052900e8
:1036840010000900315f78001e01b1007600470088
:10369400100078004c00de000000470090407800e5
:1036a4007100470001487800760047001000780058
:1036b4004800de006f006000000047009040780082
:1036c4007200470001487800760047001000780037
:1036d4004400de006f006000000047009040780066
:1036e4007300470001487800760047001000780016
:1036f4006f006000000047009040780074004700ad
:10370400014878008040eb007500470001487800cc
:10371400710047006c0007000080fa0000000600fa
:103724000800fa00e6004700804878000000eb003b
:10373400000f780066004700104078000004e000a5
:103744001a003a0000c3b3009cff070028003700aa
:1037540066004700104078000081fb00d0cc2c00ac
:103764000010b8004308de00ea00b9000000510070
:10377400004078000043b000804078001e80e800dc
:1037840000004700014878001e0fe800660047006b
:10379400104078008080fb00d0cc2c000008b800da
:1037a400c308de0066004700014878006600470051
:1037b400104078000004e000e5ff3a001e80e800b5
:1037c4008040eb0000004700014878000500370006
:1037d4001e0fe9001e80e80000004700104078003a
:1037e40076ff07001e0078000000e000f8ff3c00b0
:1037f4000080fa00000006000a00fa00e800470012
:10380400800878000000eb00000f78006800470093
:10381400100078000000e00018003a0000c3b30074
:1038240066ff070026003700680047001001780093
:10383400d0cc2c000010b8004308de00ea00b90028
:1038440000005100004078000043b0008040780040
:103854001e80e80000004700014878001e0fe800c1
:103864006800470090007800d0cc2c000008b80015
:10387400c308de00680047000108780068004700bc
:10388400100078000000e000e7ff3a001e80e80026
:103894008040eb0000004700014878000500370035
:1038a4001e0fe9001e80e800000047001040780069
:1038b40042ff07001e0078000000e000f8ff3c0013
:1038c4000080fa00000006000200fa00000f7800f1
:1038d400040037001e007800104078001e0fe80036
:1038e40036ff07001e007800104078000004e00056
:1038f400f8ff3a000080fa00000006000a00fa000f
:10390400881f7800660147000089be0018c0b30014
:10391400660047006011b800900090001000780025
:1039240065f307000000e000010035000044eb00ef
:103934000804e00008003200d0c2b3001fff0700f3
:1039440066004700900090001000780001f0a2008b
:10395400660147000089be006600470090009000a1
:103964001000780058f30700000f78001e0078005c
:10397400cf80de0090f30700660247000001be001e
:103984001400780094009000a5f3070002002000c2
:10399400832c24006ff507000200200003f02300ad
:1039a400a8f3070048f307000e81e8000009780037
:1039b4000e80e8009000780030062000808f5000d0
:1039c400040034001e0fe8008000eb000e80e800c5
:1039d400010878001e0078000000e00003003a00af
:1039e40000c3b300f5fe0700330037008000eb008e
:1039f40064004700010878001c0037009e0078002e
:103a0400706626000089b9004299de004f88de0006
:103a140000005100ea00b900008050000040780026
:103a24000043b00080407800200221006401470078
:103a34001201780002004000014878006400470049
:103a4400100078008000e800640047000108780056
:103a54001e017800706626000090b900c288de005e
:103a64004f90de0000805000000f78001e007800a8
:103a74000000e000e1ff3c000b0037006400470059
:103a8400100078008000e900640047000108780015
:103a940020022100e400470091007800010040006a
:103aa40010407800c5fe070064004700100078004d
:103ab4000000e000f1ff3c00e0c2b300bffe0700dd
:103ac4000e80e80010017800706626000090b900ae
:103ad400c288de004f90de00008050000040780075
:103ae4000043b000b5fe07000e80e80090007800a7
:103af400706626000089b9004299de004f88de0016
:103b040000005100ea00b900008050000040780035
:103b14000043b000a9fe07004f0478000080fa00bb
:103b2400000006000200fa00004f78001e80fb002f
:103b34006010880000000000201080006100600018
:103b44000000e000fcff3a00810007002110800023
:103b540000002800008060000000e0000200320045
:103b64000080eb00010037000000eb000080fa0049
:103b7400000006000200fa00004f78000062a8006e
:103b84000000000000108000680060000000e000f9
:103b9400fcff3a001e4078000004e00002003200fe
:103ba4000040eb000100370010c0b3000080fb00b0
:103bb400610060004500dd00011080000150a1009b
:103bc40001007000001088000082a80000000000be
:103bd40000108000700060000000e000fcff3a006c
:103be40070108000004078000080fa000000060099
:103bf4000400fa00f006290033ff070080c0b30078
:103c0400004f7800260037001e40780080404000b6
:103c14000e00e800014878005a0007000004a200e2
:103c24000004e00002003200610007001b003700be
:103c34000e00e80010407800730007008e80e80052
:103c4400804878005a0007000e80e8001040780091
:103c54000004e00011003200300829001aff0700b8
:103c64001e40780061fe0700e008290016ff0700e7
:103c74000e00e800104078005cfe0700500929009f
:103c840011ff07000e00e800104078000004a000b7
:103c940056fe0700c00929000bff07001e4fe8006d
:103ca40070c7b3009e40780080cf5000d6ff360026
:103cb400000a290004ff07000080fa000000060043
:103cc4000200fa0001e2a90014aea90018aea8008f
:103cd40014cea9000040eb00004f78000700370025
:103ce40018cea900803e200022fe070018cea800ae
:103cf400803e20001ffe07001e4fe8001e40780093
:103d0400e84f5000f6ff36001e00070028000700a9
:103d140001e2a90014cea80014aea8000080fa00a5
:103d2400000006000000fa0001e2a90014aea80099
:103d340014cea800b0182000501088000122a8005a
:103d440000a2a90001e2a8000080fa000000060019
:103d54000000fa0000000000211080000000240090
:103d6400008060000000e000fbff3a0000108000cb
:103d74007f0060000000e000f7ff3a000080fa00d6
:103d8400000006000000fa00f1ff07000002a8008e
:103d94000000000000108000610060000000e000ee
:103da400fcff3a0010c0b3000080fa0000000600d7
:103db4000000fa00e6ff07000042a800000000002f
:103dc40000108000640060000000e000fcff3a0086
:103dd40010c0b3000080fa00000006000000fa00e2
:103de400dbff07000022a800000000000010800094
:103df400620060000000e000fcff3a0010c0b30065
:103e04000080fa00000006000200fa00004f78006b
:103e1400cfff07001e80fb00601088000000000038
:103e240020108000610060000000e000fcff3a0008
:103e3400c7ff0700211080000000280000806000f8
:103e44000000e000020032000040eb0001003700f7
:103e540010c0b3000080fa00000006000400fa005d
:103e64008e80e80080487800b9ff07000062a8004f
:103e74000000000020108000620060000000e000ec
:103e8400fcff320070108000004f7800b0ff070084
:103e94000e80e800104078000004e00002003200c8
:103ea4000040eb000100370010c0b3000080fb00ad
:103eb400610060004500dd00011080000150a10098
:103ec40001007000001088000082a80000000000bb
:103ed40000108000700060000000e000fcff3a0069
:103ee4001e4078000080fa00000006000000fa007e
:103ef40097ff070000a2a9000082a80000000000ac
:103f040000108000700060000000e000fcff3a0038
:103f14000080fa00000006000000fa008cff070091
:103f240000a2a8000082a800000000000010800089
:103f3400700060000000e000fcff3a000080fa001e
:103f4400000006001400fa00f20047008008780020
:103f5400e1004700120b29000f000900b258780055
:103f640050c0b300004f7800720047001000780082
:103f7400104078001e4068000080fb000000e8004c
:103f840000004700104f78007200470010007800ce
:103f94000000e800104078001e4068000080fb002c
:103fa4000000e80000004700104f7800720047004e
:103fb400100078000080e800104078001e4068007f
:103fc4000080fb000000e80000004700104f78006c
:103fd4007200470010007800630040001040780031
:103fe4001e4068000080fb000000e800000047005d
:103ff400104f780072004700100078006400400001
:10400400104078001e4068000080fb000000e800bb
:1040140000004700104f780072004700100078003d
:1040240065004000104078001e4068000080fb00de
:104034000000e80000004700104f78001e407800a0
:104044000080fa00000006002200fa00881f7800b1
:1040540062fc07008bfc0700e5fc070031ff07004a
:10406400c0cc280018fe070040ce280016fe07002a
:1040740039fa07000000e00003003200a0d0280055
:1040840011fe0700ffff370000d328000efe0700d3
:104094004006200028fd07008000eb007800470060
:1040a400010878000000eb00000f78006000b80001
:1040b4007a0147000089be006000b8007e01470015
:1040c4000089be006000b8000e81e8000089be00cf
:1040d400780047000001780011c0b30010c4b30099
:1040e40071fb070000f0a7000000ea000000e900ef
:1040f400cf00de006a00470001087800fe00470098
:104104007a00470041010700ec004700804878002e
:104114006a004700100078000000e0004800320008
:1041240078004700900078000000280000806000bc
:1041340000f0a7000000ea000000ea00cf00de0063
:104144006d004700014878007800470010007800af
:104154008000780001f0a100010f78006d00470095
:10416400104078000004e00002003200d0d528009e
:10417400d5fd07006000b800660147000089be0055
:1041840000832f001e0040008000eb008df107002b
:1041940002002c00a36d24008ff207006601470083
:1041a4000089be0018c0b300660047006011b80063
:1041b40090009000100078003ff107000000e0003c
:1041c400010035000044eb000804e0000300320065
:1041d4006000b800660147000089be0018c0b30043
:1041e400660047000200200003f8230090009000be
:1041f4001000780032f107000000e00001003c00ec
:104204000044eb000804e000040032000000200039
:1042140001f82300660147000089be0066004700dc
:104224000200200003082400900090001000780091
:1042340048f307000e81e8000089be000200370041
:10424400f0d82800a0fd07006c004700104078005b
:104254000004a2000004e0000800320050db280043
:1042640099fd07006000b8007a0147000089be008c
:104274006000b8007e0147000089be000e80e8009f
:10428400900090001000780030f107006e014700a4
:10429400004978006e004700104078000080fb0061
:1042a400cf80de0044f107000e82e8000001be006a
:1042b400140078009400900059f1070002002000d7
:1042c4000312240023f3070020f107006f014700c5
:1042d400004978007a0047009000900010007800b0
:1042e4001af1070070014700004978007000470088
:1042f400104078008080fb00d0cc2c000008b8006f
:104304004308de00004078000081fb00d0cc2c0084
:104314000010b8004308de00ea00b9008000510034
:104324007100470001487800700047001040780091
:104334000081fb00d0cc2c000010b8004308de0044
:10434400ea00b9008000510072004700014878007b
:104354007e0047009000900010007800fbf00700fa
:10436400730147000049780073004700104078004b
:104374008080fb00d0cc2c000008b8004308de008d
:10438400004078000081fb00d0cc2c000010b80065
:104394004308de00ea00b9008000510074004700c1
:1043a4000148780073004700104078000081fb004a
:1043b400d0cc2c000010b8004308de00ea00b9009d
:1043c40080005100750047000148780011c0b30017
:1043d40076004700014878007600470010407800d6
:1043e4000080fb00cc00dd006e0047001040780028
:1043f4000080fb004800dd00810070006f00470072
:10440400104078000080fb004400dd008100700053
:1044140071004700104078000080fb00010070002c
:10442400b028880072004700104078000080fb002c
:10443400cc00dd0074004700104078000080fb00d1
:104444004800dd00810070007500470010407800ce
:104454000080fb004400dd0001007000a0288800fb
:104464000c05a800000000006028800061006000c6
:104474000000e000fcff3a00b0808000c1808000b2
:104484000001780061004000e0804800b0808800ae
:10449400c18088000200780075fc070090dd2800c8
:1044a40009fd07000e80e8009000900010007800dd
:1044b40012fd070030de280003fd07001e0078000f
:1044c4006bfc070050df2800fffc07007a00470060
:1044d400900090001000780008fd0700f0df28002d
:1044e400f9fc07007e00470090009000100078005f
:1044f40002fd0700a0e02800f3fc0700b0288000bc
:104504005bfc0700a028800059fc0700f0e12800ac
:10451400edfc07004006200007fc0700defe370024
:104524000800fa00640147000009780066004700ab
:104534000148780000c0eb00004f78008040eb0099
:104544000e00e80001487800270037000e00e8005c
:10455400104078000080fb00e400470091007800e0
:1045640000804000104078001e4f68008040eb003f
:104574000e80e80001487800120037001e407800e1
:104584000004e00007003d001e80fb000000400026
:104594008040780010c3b30000c06800004f78006a
:1045a400030037001e40780000404000004f7800b0
:1045b4000e80e800104078008040e8000e80e8009b
:1045c400014878000e80e80010407800e74f500062
:1045d400eaff36000e00e800104078008040e80052
:1045e4000e00e800014878000e00e80090407800d2
:1045f400660047001040780080cf5000d3ff390098
:104604001e4078000080fa00000006001000fa0046
:10461400881f78006c014700000978006e0047008d
:1046240001087800d7fd07000004a2000004e000a0
:10463400020032000040eb009d003700a0c8b30028
:10464400f1fd07000004a2000004e00003003200b2
:10465400d7fd07000040eb0095003700d0cfb30032
:10466400e9fd07000004a2000004e000030032009a
:10467400cffd07000040eb008d003700ccfd0700a4
:1046840020002000acfb0700befd07000004a200d0
:104694000004e000020032000040eb008400370018
:1046a400b0c8b300d8fd07000004a2000004e00075
:1046b40003003200befd07000040eb007c00370021
:1046c4000000eb00000f78000700370010c0b300b3
:1046d400e2fd07001e017800e6004100810047006a
:1046e400804878001e0fe8001e007800e40f500098
:1046f400f6ff34000040eb00d8fd0700eb00470054
:1047040080487800aafd07006600470021c0b30076
:1047140083ff0700e800470091407800814f500074
:10472400020032000040eb006100370066004700e1
:104734006300400021c0b30079ff0700eb0047008d
:1047440091407800814f5000020032000040eb009d
:104754005700370066004700104078000080fb00d7
:10476400c800dd0067004700104078000080fb00af
:10477400810070000e80e80001087800690047009d
:10478400104078000080fb00c800dd006a0047008c
:10479400104078000080fb00810070006400470036
:1047a400010878000e80e800100078008000eb001b
:1047b40004f0070002f02f00f377240006f107004d
:1047c40002002000f3322400e2f10700020020007e
:1047d4004323240012f007006c0147001201780003
:1047e4000089be0064004700100078008000eb00e0
:1047f400f4ef070002f02f00f3772400f6f007002f
:1048040002002000a32f2400d2f1070002002000a0
:10481400030c240002f007006e0147001201780027
:104824000089be006e0047001000780090009000e0
:104834001000780018c0b30002002000832c24006c
:104844009fef07000000e00001003c000044eb0083
:104854000804e000050032006e00470010017800f3
:1048640000002000812c24000089be006e00470057
:1048740010007800900090001000780018c0b30079
:104884006011b8008cef07000000e0000100350063
:104894000044eb000804e000040032006e0047000e
:1048a400100178006000b8000089be0010c0b30099
:0c48b4004f0478000080fa0000000600ad
:020000040000fa
:1048c0002e10000006000000800000000010000014
:1048d0001600000080000000161000000a00000012
:1048e0008200000001000000000300000000200022
:1048f00042000000221000000c00000080000000b8
:1049000020100000020000008000000000000000f5
:020000040000fa
:020000040002f8
:04af3000fbff000023
:020000040000fa
:020000040002f8
:04af38005dff0000b9
:020000040000fa
:020000040002f8
:04af40009fff00006f
:020000040000fa
:020000040002f8
:04af4800feff000008
:020000040000fa
:020000040002f8
:04af5000ffff0000ff
:020000040000fa
:020000040002f8
:04af7800feff0000d8
:020000040000fa
:020000040002f8
:04af8000ffff0000cf
:00000001FF
